{"contracts/ContractRegistry.sol":{"ContractRegistry":{"abi":[{"inputs":[{"internalType":"contract ICodeTrust","name":"initCodeTrust","type":"address"},{"internalType":"bytes32","name":"name","type":"bytes32"},{"internalType":"uint16","name":"version","type":"uint16"},{"internalType":"bytes32","name":"logicCodeHash","type":"bytes32"}],"stateMutability":"nonpayable","type":"constructor"},{"anonymous":false,"inputs":[{"indexed":false,"internalType":"bytes32","name":"name","type":"bytes32"},{"indexed":true,"internalType":"address","name":"oldAdmin","type":"address"},{"indexed":true,"internalType":"address","name":"newAdmin","type":"address"}],"name":"AdminChanged","type":"event"},{"anonymous":false,"inputs":[{"indexed":true,"internalType":"bytes32","name":"name","type":"bytes32"},{"indexed":true,"internalType":"address","name":"proxy","type":"address"},{"indexed":false,"internalType":"address","name":"logic","type":"address"},{"indexed":true,"internalType":"uint16","name":"version","type":"uint16"},{"indexed":false,"internalType":"bytes32","name":"logicCodeHash","type":"bytes32"}],"name":"NewRecord","type":"event"},{"anonymous":false,"inputs":[{"indexed":true,"internalType":"address","name":"previousOwner","type":"address"},{"indexed":true,"internalType":"address","name":"newOwner","type":"address"}],"name":"OwnershipTransferred","type":"event"},{"inputs":[{"internalType":"bytes32","name":"name","type":"bytes32"},{"internalType":"address","name":"newAdmin","type":"address"}],"name":"changeRegisteredAdmin","outputs":[],"stateMutability":"nonpayable","type":"function"},{"inputs":[],"name":"getMyRecords","outputs":[{"internalType":"bytes32[]","name":"latestRecords","type":"bytes32[]"}],"stateMutability":"view","type":"function"},{"inputs":[{"internalType":"bytes32","name":"name","type":"bytes32"},{"internalType":"address","name":"admin","type":"address"},{"internalType":"uint16","name":"version","type":"uint16"}],"name":"getRecord","outputs":[{"internalType":"bool","name":"found","type":"bool"},{"components":[{"internalType":"bytes32","name":"name","type":"bytes32"},{"internalType":"address","name":"proxy","type":"address"},{"internalType":"address","name":"logic","type":"address"},{"internalType":"address","name":"admin","type":"address"},{"internalType":"uint16","name":"version","type":"uint16"},{"internalType":"bytes32","name":"logicCodeHash","type":"bytes32"},{"internalType":"uint256","name":"timestamp","type":"uint256"}],"internalType":"struct ContractRecord","name":"record","type":"tuple"}],"stateMutability":"view","type":"function"},{"inputs":[],"name":"getSystemRecords","outputs":[{"internalType":"bytes32[]","name":"latestRecords","type":"bytes32[]"}],"stateMutability":"view","type":"function"},{"inputs":[],"name":"owner","outputs":[{"internalType":"address","name":"","type":"address"}],"stateMutability":"view","type":"function"},{"inputs":[{"internalType":"bytes32","name":"name","type":"bytes32"},{"internalType":"address","name":"proxy","type":"address"},{"internalType":"address","name":"logic","type":"address"},{"internalType":"uint16","name":"version","type":"uint16"},{"internalType":"bytes32","name":"logicCodeHash","type":"bytes32"},{"internalType":"address","name":"admin","type":"address"}],"name":"register","outputs":[],"stateMutability":"nonpayable","type":"function"},{"inputs":[],"name":"renounceOwnership","outputs":[],"stateMutability":"nonpayable","type":"function"},{"inputs":[{"internalType":"address","name":"newOwner","type":"address"}],"name":"transferOwnership","outputs":[],"stateMutability":"nonpayable","type":"function"},{"inputs":[{"internalType":"bytes32","name":"name","type":"bytes32"},{"internalType":"address","name":"proxy","type":"address"},{"internalType":"address","name":"logic","type":"address"},{"internalType":"address","name":"newAdmin","type":"address"},{"internalType":"uint16","name":"version","type":"uint16"},{"internalType":"bytes32","name":"logicCodeHash","type":"bytes32"},{"internalType":"address","name":"admin","type":"address"}],"name":"update","outputs":[],"stateMutability":"nonpayable","type":"function"}],"evm":{"bytecode":{"linkReferences":{},"object":"60806040523480156200001157600080fd5b506040516200189938038062001899833981016040819052620000349162000460565b6200003f3362000091565b600180546001600160a01b0319166001600160a01b0386161790558262000077576f436f6e7472616374526567697374727960801b92505b62000087833080858533620000e1565b50505050620004bf565b600080546001600160a01b038381166001600160a01b0319831681178455604051919092169283917f8be0079c531659141344cd1fd0a4f28419497f9722a3daafe3b4186f6b6457e09190a35050565b6001600160a01b0384166200013d5760405162461bcd60e51b815260206004820152601760248201527f4c6f6769632061646472657373206973206e656464656400000000000000000060448201526064015b60405180910390fd5b6001600160a01b03851662000150578394505b61270f61ffff84161115620001a85760405162461bcd60e51b815260206004820152601f60248201527f56657273696f6e206d757374206265206c6f776572207468616e203939393900604482015260640162000134565b6001600160a01b0381166000908152600360209081526040808320600283528184208a855283528184208184528285205461ffff16855290925290912060058101541580156200020557506003810154600160a01b900461ffff16155b620002535760405162461bcd60e51b815260206004820152601e60248201527f416c726561647920726567697374657265642c20757365207570646174650000604482015260640162000134565b60026000846001600160a01b03166001600160a01b03168152602001908152602001600020600089815260200190815260200160002060008661ffff1661ffff1681526020019081526020016000209050878160000181905550868160010160006101000a8154816001600160a01b0302191690836001600160a01b03160217905550858160020160006101000a8154816001600160a01b0302191690836001600160a01b03160217905550828160030160006101000a8154816001600160a01b0302191690836001600160a01b03160217905550848160030160146101000a81548161ffff021916908361ffff16021790555083816004018190555042816005018190555081600201548260010160008a815260200190815260200160002081905550878260020181905550848260000160008a815260200190815260200160002060006101000a81548161ffff021916908361ffff1602179055508060030160149054906101000a900461ffff1661ffff168160010160009054906101000a90046001600160a01b03166001600160a01b031682600001547fb8064287be8e96c6334f8cff70015f26aa567834bc9455bdc54f6d163a1013768460020160009054906101000a90046001600160a01b031685600401546040516200044e9291906001600160a01b03929092168252602082015260400190565b60405180910390a45050505050505050565b600080600080608085870312156200047757600080fd5b84516001600160a01b03811681146200048f57600080fd5b60208601516040870151919550935061ffff81168114620004af57600080fd5b6060959095015193969295505050565b6113ca80620004cf6000396000f3fe608060405234801561001057600080fd5b50600436106100835760003560e01c8063116cce861461008857806340a40e9d1461009d578063715018a6146100b0578063842f95f0146100b85780638da5cb5b146100cb578063ccd92b48146100eb578063e76637ce1461016c578063f2fde38b14610181578063ff69bc3314610194575b600080fd5b61009b6100963660046110ea565b61019c565b005b61009b6100ab366004611150565b61026e565b61009b610339565b61009b6100c63660046111c8565b61034d565b6000546040516001600160a01b0390911681526020015b60405180910390f35b6100fe6100f93660046111f4565b610545565b60408051921515835281516020808501919091528201516001600160a01b03908116848301529082015181166060808501919091528201511660808084019190915281015161ffff1660a08084019190915281015160c080840191909152015160e0820152610100016100e2565b610174610567565b6040516100e29190611230565b61009b61018f366004611274565b61057c565b6101746105f5565b6001600160a01b0381166101ad5750335b6001600160a01b03811633148061023357506001546001600160a01b0316634f940270338360006040518463ffffffff1660e01b81526004016101f293929190611296565b602060405180830381865afa15801561020f573d6000803e3d6000fd5b505050506040513d601f19601f8201168201806040525081019061023391906112ba565b6102585760405162461bcd60e51b815260040161024f906112dc565b60405180910390fd5b61026686868686868661060c565b505050505050565b6001600160a01b03811661027f5750335b6001600160a01b03811633148061030557506001546001600160a01b0316634f940270338360006040518463ffffffff1660e01b81526004016102c493929190611296565b602060405180830381865afa1580156102e1573d6000803e3d6000fd5b505050506040513d601f19601f8201168201806040525081019061030591906112ba565b6103215760405162461bcd60e51b815260040161024f906112dc565b61033087878787878787610978565b50505050505050565b610341610cd9565b61034b6000610d33565b565b336001600160a01b038216158015906103785750806001600160a01b0316826001600160a01b031614155b6103b85760405162461bcd60e51b815260206004820152601160248201527024b73b30b634b2103732bb9030b236b4b760791b604482015260640161024f565b6001600160a01b03811660009081526003602090815260408083206002835281842087855283528184208184528285205461ffff1685529092528220600581015491929091900361044b5760405162461bcd60e51b815260206004820152601e60248201527f436f6e7472616374207265636f7264206e6f7420726567697374657265640000604482015260640161024f565b8054600182015460028301546003840154600485015461048694936001600160a01b03908116931691600160a01b900461ffff16908961060c565b6104908286610d83565b6001600160a01b0383811660008181526002602081815260408084208b855282528084208883528185205461ffff16855282528084208481556001810180546001600160a01b031990811690915593810180549094169093556003830180546001600160b01b03191690556004830184905560059092019290925551888152928716927f6467ef979e83be7da4c6bdb4513ae6309dbf5cd9ca8f5474d2f77ef171f5b903910160405180910390a35050505050565b600061054f611080565b61055a858585610e4f565b915091505b935093915050565b606061057733610f39565b610f39565b905090565b610584610cd9565b6001600160a01b0381166105e95760405162461bcd60e51b815260206004820152602660248201527f4f776e61626c653a206e6577206f776e657220697320746865207a65726f206160448201526564647265737360d01b606482015260840161024f565b6105f281610d33565b50565b60606105776105726000546001600160a01b031690565b6001600160a01b03841661065c5760405162461bcd60e51b8152602060048201526017602482015276131bd9da58c81859191c995cdcc81a5cc81b9959191959604a1b604482015260640161024f565b6001600160a01b03851661066e578394505b61270f61ffff841611156106c45760405162461bcd60e51b815260206004820152601f60248201527f56657273696f6e206d757374206265206c6f776572207468616e203939393900604482015260640161024f565b6001600160a01b0381166000908152600360209081526040808320600283528184208a855283528184208184528285205461ffff168552909252909120600581015415801561072057506003810154600160a01b900461ffff16155b61076c5760405162461bcd60e51b815260206004820152601e60248201527f416c726561647920726567697374657265642c20757365207570646174650000604482015260640161024f565b60026000846001600160a01b03166001600160a01b03168152602001908152602001600020600089815260200190815260200160002060008661ffff1661ffff1681526020019081526020016000209050878160000181905550868160010160006101000a8154816001600160a01b0302191690836001600160a01b03160217905550858160020160006101000a8154816001600160a01b0302191690836001600160a01b03160217905550828160030160006101000a8154816001600160a01b0302191690836001600160a01b03160217905550848160030160146101000a81548161ffff021916908361ffff16021790555083816004018190555042816005018190555081600201548260010160008a815260200190815260200160002081905550878260020181905550848260000160008a815260200190815260200160002060006101000a81548161ffff021916908361ffff1602179055508060030160149054906101000a900461ffff1661ffff168160010160009054906101000a90046001600160a01b03166001600160a01b031682600001547fb8064287be8e96c6334f8cff70015f26aa567834bc9455bdc54f6d163a1013768460020160009054906101000a90046001600160a01b031685600401546040516109669291906001600160a01b03929092168252602082015260400190565b60405180910390a45050505050505050565b866109ba5760405162461bcd60e51b8152602060048201526012602482015271149958dbdc99081b985b59481b995959195960721b604482015260640161024f565b6001600160a01b0381166000908152600360209081526040808320600283528184208b855283528184208184528285205461ffff16855290925282206005810154919290919003610a4d5760405162461bcd60e51b815260206004820152601c60248201527f4e6f7420726567697374657265642c2075736520726567697374657200000000604482015260640161024f565b8461ffff16600003610a77576003810154610a7490600160a01b900461ffff166001611329565b94505b600381015461ffff808716600160a01b9092041610610ace5760405162461bcd60e51b815260206004820152601360248201527224b73b30b634b2103732bb903b32b939b4b7b760691b604482015260640161024f565b6001600160a01b0380841660009081526002602090815260408083208d8452825280832061ffff8a168452909152902090891615610b28576001810180546001600160a01b0319166001600160a01b038b16179055610b4f565b60018083015490820180546001600160a01b0319166001600160a01b039092169190911790555b6001600160a01b03881615610b80576002810180546001600160a01b0319166001600160a01b038a16179055610ba7565b60028083015490820180546001600160a01b0319166001600160a01b039092169190911790555b6001600160a01b03871615610bd8576003810180546001600160a01b0319166001600160a01b038916179055610bff565b60038083015490820180546001600160a01b0319166001600160a01b039092169190911790555b8415610c115760048101859055610c1c565b600480830154908201555b8154815560038101805461ffff60a01b1916600160a01b61ffff89811682029290921780845542600586015560008e81526020888152604091829020805493859004861661ffff19909416939093179092559354600186015486546002880154600489015488516001600160a01b0392831681529586015294909204909416949290931692917fb8064287be8e96c6334f8cff70015f26aa567834bc9455bdc54f6d163a101376910160405180910390a450505050505050505050565b6000546001600160a01b0316331461034b5760405162461bcd60e51b815260206004820181905260248201527f4f776e61626c653a2063616c6c6572206973206e6f7420746865206f776e6572604482015260640161024f565b600080546001600160a01b038381166001600160a01b0319831681178455604051919092169283917f8be0079c531659141344cd1fd0a4f28419497f9722a3daafe3b4186f6b6457e09190a35050565b60028201546000818152600184016020526040902054610db9575060009081526001820160205260408120819055600290910155565b60008181526001840160205260409020548214610e335780610e1d5760405162461bcd60e51b815260206004820152601f60248201527f5265636f72644e616d65206e6f7420666f756e6420666f722073656e64657200604482015260640161024f565b6000908152600183016020526040902054610db9565b6000918252600192909201602052604080822054928252902055565b6000610e59611080565b61270f61ffff84161115610e92576001600160a01b038416600090815260036020908152604080832088845290915290205461ffff1692505b506001600160a01b038084166000908152600260208181526040808420898552825280842061ffff8089168652908352818520825160e0810184528154815260018201548816948101949094529384015486169183019190915260038301549485166060830152600160a01b9094049093166080840152600481015460a08401526005015460c083018190529003610f2d576000915061055f565b60019150935093915050565b6001600160a01b0381166000908152600360205260408120600201546060915b8115801590610f69575061271081105b15610fac5780610f788161134f565b6001600160a01b0386166000908152600360209081526040808320968352600190960190529390932054929150610f599050565b6001600160a01b03841660009081526003602052604081206002015492508167ffffffffffffffff811115610fe357610fe3611368565b60405190808252806020026020018201604052801561100c578160200160208202803683370190505b50905060005b82811015611077578382828151811061102d5761102d61137e565b6020908102919091018101919091526001600160a01b038716600090815260038252604080822096825260019096019091529390932054928061106f8161134f565b915050611012565b50949350505050565b6040805160e081018252600080825260208201819052918101829052606081018290526080810182905260a0810182905260c081019190915290565b80356001600160a01b03811681146110d357600080fd5b919050565b803561ffff811681146110d357600080fd5b60008060008060008060c0878903121561110357600080fd5b86359550611113602088016110bc565b9450611121604088016110bc565b935061112f606088016110d8565b92506080870135915061114460a088016110bc565b90509295509295509295565b600080600080600080600060e0888a03121561116b57600080fd5b8735965061117b602089016110bc565b9550611189604089016110bc565b9450611197606089016110bc565b93506111a5608089016110d8565b925060a088013591506111ba60c089016110bc565b905092959891949750929550565b600080604083850312156111db57600080fd5b823591506111eb602084016110bc565b90509250929050565b60008060006060848603121561120957600080fd5b83359250611219602085016110bc565b9150611227604085016110d8565b90509250925092565b6020808252825182820181905260009190848201906040850190845b818110156112685783518352928401929184019160010161124c565b50909695505050505050565b60006020828403121561128657600080fd5b61128f826110bc565b9392505050565b6001600160a01b039384168152919092166020820152604081019190915260600190565b6000602082840312156112cc57600080fd5b8151801515811461128f57600080fd5b6020808252601b908201527f43616c6c2066726f6d20756e7472757374656420616464726573730000000000604082015260600190565b634e487b7160e01b600052601160045260246000fd5b600061ffff80831681851680830382111561134657611346611313565b01949350505050565b60006001820161136157611361611313565b5060010190565b634e487b7160e01b600052604160045260246000fd5b634e487b7160e01b600052603260045260246000fdfea2646970667358221220ac6b6a7c0761b68029d167b4ef2c584c91113483e3559ba89955e1c27d9fb10a64736f6c634300080d0033","opcodes":"PUSH1 0x80 PUSH1 0x40 MSTORE CALLVALUE DUP1 ISZERO PUSH3 0x11 JUMPI PUSH1 0x0 DUP1 REVERT JUMPDEST POP PUSH1 0x40 MLOAD PUSH3 0x1899 CODESIZE SUB DUP1 PUSH3 0x1899 DUP4 CODECOPY DUP2 ADD PUSH1 0x40 DUP2 SWAP1 MSTORE PUSH3 0x34 SWAP2 PUSH3 0x460 JUMP JUMPDEST PUSH3 0x3F CALLER PUSH3 0x91 JUMP JUMPDEST PUSH1 0x1 DUP1 SLOAD PUSH1 0x1 PUSH1 0x1 PUSH1 0xA0 SHL SUB NOT AND PUSH1 0x1 PUSH1 0x1 PUSH1 0xA0 SHL SUB DUP7 AND OR SWAP1 SSTORE DUP3 PUSH3 0x77 JUMPI PUSH16 0x436F6E74726163745265676973747279 PUSH1 0x80 SHL SWAP3 POP JUMPDEST PUSH3 0x87 DUP4 ADDRESS DUP1 DUP6 DUP6 CALLER PUSH3 0xE1 JUMP JUMPDEST POP POP POP POP PUSH3 0x4BF JUMP JUMPDEST PUSH1 0x0 DUP1 SLOAD PUSH1 0x1 PUSH1 0x1 PUSH1 0xA0 SHL SUB DUP4 DUP2 AND PUSH1 0x1 PUSH1 0x1 PUSH1 0xA0 SHL SUB NOT DUP4 AND DUP2 OR DUP5 SSTORE PUSH1 0x40 MLOAD SWAP2 SWAP1 SWAP3 AND SWAP3 DUP4 SWAP2 PUSH32 0x8BE0079C531659141344CD1FD0A4F28419497F9722A3DAAFE3B4186F6B6457E0 SWAP2 SWAP1 LOG3 POP POP JUMP JUMPDEST PUSH1 0x1 PUSH1 0x1 PUSH1 0xA0 SHL SUB DUP5 AND PUSH3 0x13D JUMPI PUSH1 0x40 MLOAD PUSH3 0x461BCD PUSH1 0xE5 SHL DUP2 MSTORE PUSH1 0x20 PUSH1 0x4 DUP3 ADD MSTORE PUSH1 0x17 PUSH1 0x24 DUP3 ADD MSTORE PUSH32 0x4C6F6769632061646472657373206973206E6564646564000000000000000000 PUSH1 0x44 DUP3 ADD MSTORE PUSH1 0x64 ADD JUMPDEST PUSH1 0x40 MLOAD DUP1 SWAP2 SUB SWAP1 REVERT JUMPDEST PUSH1 0x1 PUSH1 0x1 PUSH1 0xA0 SHL SUB DUP6 AND PUSH3 0x150 JUMPI DUP4 SWAP5 POP JUMPDEST PUSH2 0x270F PUSH2 0xFFFF DUP5 AND GT ISZERO PUSH3 0x1A8 JUMPI PUSH1 0x40 MLOAD PUSH3 0x461BCD PUSH1 0xE5 SHL DUP2 MSTORE PUSH1 0x20 PUSH1 0x4 DUP3 ADD MSTORE PUSH1 0x1F PUSH1 0x24 DUP3 ADD MSTORE PUSH32 0x56657273696F6E206D757374206265206C6F776572207468616E203939393900 PUSH1 0x44 DUP3 ADD MSTORE PUSH1 0x64 ADD PUSH3 0x134 JUMP JUMPDEST PUSH1 0x1 PUSH1 0x1 PUSH1 0xA0 SHL SUB DUP2 AND PUSH1 0x0 SWAP1 DUP2 MSTORE PUSH1 0x3 PUSH1 0x20 SWAP1 DUP2 MSTORE PUSH1 0x40 DUP1 DUP4 KECCAK256 PUSH1 0x2 DUP4 MSTORE DUP2 DUP5 KECCAK256 DUP11 DUP6 MSTORE DUP4 MSTORE DUP2 DUP5 KECCAK256 DUP2 DUP5 MSTORE DUP3 DUP6 KECCAK256 SLOAD PUSH2 0xFFFF AND DUP6 MSTORE SWAP1 SWAP3 MSTORE SWAP1 SWAP2 KECCAK256 PUSH1 0x5 DUP2 ADD SLOAD ISZERO DUP1 ISZERO PUSH3 0x205 JUMPI POP PUSH1 0x3 DUP2 ADD SLOAD PUSH1 0x1 PUSH1 0xA0 SHL SWAP1 DIV PUSH2 0xFFFF AND ISZERO JUMPDEST PUSH3 0x253 JUMPI PUSH1 0x40 MLOAD PUSH3 0x461BCD PUSH1 0xE5 SHL DUP2 MSTORE PUSH1 0x20 PUSH1 0x4 DUP3 ADD MSTORE PUSH1 0x1E PUSH1 0x24 DUP3 ADD MSTORE PUSH32 0x416C726561647920726567697374657265642C20757365207570646174650000 PUSH1 0x44 DUP3 ADD MSTORE PUSH1 0x64 ADD PUSH3 0x134 JUMP JUMPDEST PUSH1 0x2 PUSH1 0x0 DUP5 PUSH1 0x1 PUSH1 0x1 PUSH1 0xA0 SHL SUB AND PUSH1 0x1 PUSH1 0x1 PUSH1 0xA0 SHL SUB AND DUP2 MSTORE PUSH1 0x20 ADD SWAP1 DUP2 MSTORE PUSH1 0x20 ADD PUSH1 0x0 KECCAK256 PUSH1 0x0 DUP10 DUP2 MSTORE PUSH1 0x20 ADD SWAP1 DUP2 MSTORE PUSH1 0x20 ADD PUSH1 0x0 KECCAK256 PUSH1 0x0 DUP7 PUSH2 0xFFFF AND PUSH2 0xFFFF AND DUP2 MSTORE PUSH1 0x20 ADD SWAP1 DUP2 MSTORE PUSH1 0x20 ADD PUSH1 0x0 KECCAK256 SWAP1 POP DUP8 DUP2 PUSH1 0x0 ADD DUP2 SWAP1 SSTORE POP DUP7 DUP2 PUSH1 0x1 ADD PUSH1 0x0 PUSH2 0x100 EXP DUP2 SLOAD DUP2 PUSH1 0x1 PUSH1 0x1 PUSH1 0xA0 SHL SUB MUL NOT AND SWAP1 DUP4 PUSH1 0x1 PUSH1 0x1 PUSH1 0xA0 SHL SUB AND MUL OR SWAP1 SSTORE POP DUP6 DUP2 PUSH1 0x2 ADD PUSH1 0x0 PUSH2 0x100 EXP DUP2 SLOAD DUP2 PUSH1 0x1 PUSH1 0x1 PUSH1 0xA0 SHL SUB MUL NOT AND SWAP1 DUP4 PUSH1 0x1 PUSH1 0x1 PUSH1 0xA0 SHL SUB AND MUL OR SWAP1 SSTORE POP DUP3 DUP2 PUSH1 0x3 ADD PUSH1 0x0 PUSH2 0x100 EXP DUP2 SLOAD DUP2 PUSH1 0x1 PUSH1 0x1 PUSH1 0xA0 SHL SUB MUL NOT AND SWAP1 DUP4 PUSH1 0x1 PUSH1 0x1 PUSH1 0xA0 SHL SUB AND MUL OR SWAP1 SSTORE POP DUP5 DUP2 PUSH1 0x3 ADD PUSH1 0x14 PUSH2 0x100 EXP DUP2 SLOAD DUP2 PUSH2 0xFFFF MUL NOT AND SWAP1 DUP4 PUSH2 0xFFFF AND MUL OR SWAP1 SSTORE POP DUP4 DUP2 PUSH1 0x4 ADD DUP2 SWAP1 SSTORE POP TIMESTAMP DUP2 PUSH1 0x5 ADD DUP2 SWAP1 SSTORE POP DUP2 PUSH1 0x2 ADD SLOAD DUP3 PUSH1 0x1 ADD PUSH1 0x0 DUP11 DUP2 MSTORE PUSH1 0x20 ADD SWAP1 DUP2 MSTORE PUSH1 0x20 ADD PUSH1 0x0 KECCAK256 DUP2 SWAP1 SSTORE POP DUP8 DUP3 PUSH1 0x2 ADD DUP2 SWAP1 SSTORE POP DUP5 DUP3 PUSH1 0x0 ADD PUSH1 0x0 DUP11 DUP2 MSTORE PUSH1 0x20 ADD SWAP1 DUP2 MSTORE PUSH1 0x20 ADD PUSH1 0x0 KECCAK256 PUSH1 0x0 PUSH2 0x100 EXP DUP2 SLOAD DUP2 PUSH2 0xFFFF MUL NOT AND SWAP1 DUP4 PUSH2 0xFFFF AND MUL OR SWAP1 SSTORE POP DUP1 PUSH1 0x3 ADD PUSH1 0x14 SWAP1 SLOAD SWAP1 PUSH2 0x100 EXP SWAP1 DIV PUSH2 0xFFFF AND PUSH2 0xFFFF AND DUP2 PUSH1 0x1 ADD PUSH1 0x0 SWAP1 SLOAD SWAP1 PUSH2 0x100 EXP SWAP1 DIV PUSH1 0x1 PUSH1 0x1 PUSH1 0xA0 SHL SUB AND PUSH1 0x1 PUSH1 0x1 PUSH1 0xA0 SHL SUB AND DUP3 PUSH1 0x0 ADD SLOAD PUSH32 0xB8064287BE8E96C6334F8CFF70015F26AA567834BC9455BDC54F6D163A101376 DUP5 PUSH1 0x2 ADD PUSH1 0x0 SWAP1 SLOAD SWAP1 PUSH2 0x100 EXP SWAP1 DIV PUSH1 0x1 PUSH1 0x1 PUSH1 0xA0 SHL SUB AND DUP6 PUSH1 0x4 ADD SLOAD PUSH1 0x40 MLOAD PUSH3 0x44E SWAP3 SWAP2 SWAP1 PUSH1 0x1 PUSH1 0x1 PUSH1 0xA0 SHL SUB SWAP3 SWAP1 SWAP3 AND DUP3 MSTORE PUSH1 0x20 DUP3 ADD MSTORE PUSH1 0x40 ADD SWAP1 JUMP JUMPDEST PUSH1 0x40 MLOAD DUP1 SWAP2 SUB SWAP1 LOG4 POP POP POP POP POP POP POP POP JUMP JUMPDEST PUSH1 0x0 DUP1 PUSH1 0x0 DUP1 PUSH1 0x80 DUP6 DUP8 SUB SLT ISZERO PUSH3 0x477 JUMPI PUSH1 0x0 DUP1 REVERT JUMPDEST DUP5 MLOAD PUSH1 0x1 PUSH1 0x1 PUSH1 0xA0 SHL SUB DUP2 AND DUP2 EQ PUSH3 0x48F JUMPI PUSH1 0x0 DUP1 REVERT JUMPDEST PUSH1 0x20 DUP7 ADD MLOAD PUSH1 0x40 DUP8 ADD MLOAD SWAP2 SWAP6 POP SWAP4 POP PUSH2 0xFFFF DUP2 AND DUP2 EQ PUSH3 0x4AF JUMPI PUSH1 0x0 DUP1 REVERT JUMPDEST PUSH1 0x60 SWAP6 SWAP1 SWAP6 ADD MLOAD SWAP4 SWAP7 SWAP3 SWAP6 POP POP POP JUMP JUMPDEST PUSH2 0x13CA DUP1 PUSH3 0x4CF PUSH1 0x0 CODECOPY PUSH1 0x0 RETURN INVALID PUSH1 0x80 PUSH1 0x40 MSTORE CALLVALUE DUP1 ISZERO PUSH2 0x10 JUMPI PUSH1 0x0 DUP1 REVERT JUMPDEST POP PUSH1 0x4 CALLDATASIZE LT PUSH2 0x83 JUMPI PUSH1 0x0 CALLDATALOAD PUSH1 0xE0 SHR DUP1 PUSH4 0x116CCE86 EQ PUSH2 0x88 JUMPI DUP1 PUSH4 0x40A40E9D EQ PUSH2 0x9D JUMPI DUP1 PUSH4 0x715018A6 EQ PUSH2 0xB0 JUMPI DUP1 PUSH4 0x842F95F0 EQ PUSH2 0xB8 JUMPI DUP1 PUSH4 0x8DA5CB5B EQ PUSH2 0xCB JUMPI DUP1 PUSH4 0xCCD92B48 EQ PUSH2 0xEB JUMPI DUP1 PUSH4 0xE76637CE EQ PUSH2 0x16C JUMPI DUP1 PUSH4 0xF2FDE38B EQ PUSH2 0x181 JUMPI DUP1 PUSH4 0xFF69BC33 EQ PUSH2 0x194 JUMPI JUMPDEST PUSH1 0x0 DUP1 REVERT JUMPDEST PUSH2 0x9B PUSH2 0x96 CALLDATASIZE PUSH1 0x4 PUSH2 0x10EA JUMP JUMPDEST PUSH2 0x19C JUMP JUMPDEST STOP JUMPDEST PUSH2 0x9B PUSH2 0xAB CALLDATASIZE PUSH1 0x4 PUSH2 0x1150 JUMP JUMPDEST PUSH2 0x26E JUMP JUMPDEST PUSH2 0x9B PUSH2 0x339 JUMP JUMPDEST PUSH2 0x9B PUSH2 0xC6 CALLDATASIZE PUSH1 0x4 PUSH2 0x11C8 JUMP JUMPDEST PUSH2 0x34D JUMP JUMPDEST PUSH1 0x0 SLOAD PUSH1 0x40 MLOAD PUSH1 0x1 PUSH1 0x1 PUSH1 0xA0 SHL SUB SWAP1 SWAP2 AND DUP2 MSTORE PUSH1 0x20 ADD JUMPDEST PUSH1 0x40 MLOAD DUP1 SWAP2 SUB SWAP1 RETURN JUMPDEST PUSH2 0xFE PUSH2 0xF9 CALLDATASIZE PUSH1 0x4 PUSH2 0x11F4 JUMP JUMPDEST PUSH2 0x545 JUMP JUMPDEST PUSH1 0x40 DUP1 MLOAD SWAP3 ISZERO ISZERO DUP4 MSTORE DUP2 MLOAD PUSH1 0x20 DUP1 DUP6 ADD SWAP2 SWAP1 SWAP2 MSTORE DUP3 ADD MLOAD PUSH1 0x1 PUSH1 0x1 PUSH1 0xA0 SHL SUB SWAP1 DUP2 AND DUP5 DUP4 ADD MSTORE SWAP1 DUP3 ADD MLOAD DUP2 AND PUSH1 0x60 DUP1 DUP6 ADD SWAP2 SWAP1 SWAP2 MSTORE DUP3 ADD MLOAD AND PUSH1 0x80 DUP1 DUP5 ADD SWAP2 SWAP1 SWAP2 MSTORE DUP2 ADD MLOAD PUSH2 0xFFFF AND PUSH1 0xA0 DUP1 DUP5 ADD SWAP2 SWAP1 SWAP2 MSTORE DUP2 ADD MLOAD PUSH1 0xC0 DUP1 DUP5 ADD SWAP2 SWAP1 SWAP2 MSTORE ADD MLOAD PUSH1 0xE0 DUP3 ADD MSTORE PUSH2 0x100 ADD PUSH2 0xE2 JUMP JUMPDEST PUSH2 0x174 PUSH2 0x567 JUMP JUMPDEST PUSH1 0x40 MLOAD PUSH2 0xE2 SWAP2 SWAP1 PUSH2 0x1230 JUMP JUMPDEST PUSH2 0x9B PUSH2 0x18F CALLDATASIZE PUSH1 0x4 PUSH2 0x1274 JUMP JUMPDEST PUSH2 0x57C JUMP JUMPDEST PUSH2 0x174 PUSH2 0x5F5 JUMP JUMPDEST PUSH1 0x1 PUSH1 0x1 PUSH1 0xA0 SHL SUB DUP2 AND PUSH2 0x1AD JUMPI POP CALLER JUMPDEST PUSH1 0x1 PUSH1 0x1 PUSH1 0xA0 SHL SUB DUP2 AND CALLER EQ DUP1 PUSH2 0x233 JUMPI POP PUSH1 0x1 SLOAD PUSH1 0x1 PUSH1 0x1 PUSH1 0xA0 SHL SUB AND PUSH4 0x4F940270 CALLER DUP4 PUSH1 0x0 PUSH1 0x40 MLOAD DUP5 PUSH4 0xFFFFFFFF AND PUSH1 0xE0 SHL DUP2 MSTORE PUSH1 0x4 ADD PUSH2 0x1F2 SWAP4 SWAP3 SWAP2 SWAP1 PUSH2 0x1296 JUMP JUMPDEST PUSH1 0x20 PUSH1 0x40 MLOAD DUP1 DUP4 SUB DUP2 DUP7 GAS STATICCALL ISZERO DUP1 ISZERO PUSH2 0x20F JUMPI RETURNDATASIZE PUSH1 0x0 DUP1 RETURNDATACOPY RETURNDATASIZE PUSH1 0x0 REVERT JUMPDEST POP POP POP POP PUSH1 0x40 MLOAD RETURNDATASIZE PUSH1 0x1F NOT PUSH1 0x1F DUP3 ADD AND DUP3 ADD DUP1 PUSH1 0x40 MSTORE POP DUP2 ADD SWAP1 PUSH2 0x233 SWAP2 SWAP1 PUSH2 0x12BA JUMP JUMPDEST PUSH2 0x258 JUMPI PUSH1 0x40 MLOAD PUSH3 0x461BCD PUSH1 0xE5 SHL DUP2 MSTORE PUSH1 0x4 ADD PUSH2 0x24F SWAP1 PUSH2 0x12DC JUMP JUMPDEST PUSH1 0x40 MLOAD DUP1 SWAP2 SUB SWAP1 REVERT JUMPDEST PUSH2 0x266 DUP7 DUP7 DUP7 DUP7 DUP7 DUP7 PUSH2 0x60C JUMP JUMPDEST POP POP POP POP POP POP JUMP JUMPDEST PUSH1 0x1 PUSH1 0x1 PUSH1 0xA0 SHL SUB DUP2 AND PUSH2 0x27F JUMPI POP CALLER JUMPDEST PUSH1 0x1 PUSH1 0x1 PUSH1 0xA0 SHL SUB DUP2 AND CALLER EQ DUP1 PUSH2 0x305 JUMPI POP PUSH1 0x1 SLOAD PUSH1 0x1 PUSH1 0x1 PUSH1 0xA0 SHL SUB AND PUSH4 0x4F940270 CALLER DUP4 PUSH1 0x0 PUSH1 0x40 MLOAD DUP5 PUSH4 0xFFFFFFFF AND PUSH1 0xE0 SHL DUP2 MSTORE PUSH1 0x4 ADD PUSH2 0x2C4 SWAP4 SWAP3 SWAP2 SWAP1 PUSH2 0x1296 JUMP JUMPDEST PUSH1 0x20 PUSH1 0x40 MLOAD DUP1 DUP4 SUB DUP2 DUP7 GAS STATICCALL ISZERO DUP1 ISZERO PUSH2 0x2E1 JUMPI RETURNDATASIZE PUSH1 0x0 DUP1 RETURNDATACOPY RETURNDATASIZE PUSH1 0x0 REVERT JUMPDEST POP POP POP POP PUSH1 0x40 MLOAD RETURNDATASIZE PUSH1 0x1F NOT PUSH1 0x1F DUP3 ADD AND DUP3 ADD DUP1 PUSH1 0x40 MSTORE POP DUP2 ADD SWAP1 PUSH2 0x305 SWAP2 SWAP1 PUSH2 0x12BA JUMP JUMPDEST PUSH2 0x321 JUMPI PUSH1 0x40 MLOAD PUSH3 0x461BCD PUSH1 0xE5 SHL DUP2 MSTORE PUSH1 0x4 ADD PUSH2 0x24F SWAP1 PUSH2 0x12DC JUMP JUMPDEST PUSH2 0x330 DUP8 DUP8 DUP8 DUP8 DUP8 DUP8 DUP8 PUSH2 0x978 JUMP JUMPDEST POP POP POP POP POP POP POP JUMP JUMPDEST PUSH2 0x341 PUSH2 0xCD9 JUMP JUMPDEST PUSH2 0x34B PUSH1 0x0 PUSH2 0xD33 JUMP JUMPDEST JUMP JUMPDEST CALLER PUSH1 0x1 PUSH1 0x1 PUSH1 0xA0 SHL SUB DUP3 AND ISZERO DUP1 ISZERO SWAP1 PUSH2 0x378 JUMPI POP DUP1 PUSH1 0x1 PUSH1 0x1 PUSH1 0xA0 SHL SUB AND DUP3 PUSH1 0x1 PUSH1 0x1 PUSH1 0xA0 SHL SUB AND EQ ISZERO JUMPDEST PUSH2 0x3B8 JUMPI PUSH1 0x40 MLOAD PUSH3 0x461BCD PUSH1 0xE5 SHL DUP2 MSTORE PUSH1 0x20 PUSH1 0x4 DUP3 ADD MSTORE PUSH1 0x11 PUSH1 0x24 DUP3 ADD MSTORE PUSH17 0x24B73B30B634B2103732BB9030B236B4B7 PUSH1 0x79 SHL PUSH1 0x44 DUP3 ADD MSTORE PUSH1 0x64 ADD PUSH2 0x24F JUMP JUMPDEST PUSH1 0x1 PUSH1 0x1 PUSH1 0xA0 SHL SUB DUP2 AND PUSH1 0x0 SWAP1 DUP2 MSTORE PUSH1 0x3 PUSH1 0x20 SWAP1 DUP2 MSTORE PUSH1 0x40 DUP1 DUP4 KECCAK256 PUSH1 0x2 DUP4 MSTORE DUP2 DUP5 KECCAK256 DUP8 DUP6 MSTORE DUP4 MSTORE DUP2 DUP5 KECCAK256 DUP2 DUP5 MSTORE DUP3 DUP6 KECCAK256 SLOAD PUSH2 0xFFFF AND DUP6 MSTORE SWAP1 SWAP3 MSTORE DUP3 KECCAK256 PUSH1 0x5 DUP2 ADD SLOAD SWAP2 SWAP3 SWAP1 SWAP2 SWAP1 SUB PUSH2 0x44B JUMPI PUSH1 0x40 MLOAD PUSH3 0x461BCD PUSH1 0xE5 SHL DUP2 MSTORE PUSH1 0x20 PUSH1 0x4 DUP3 ADD MSTORE PUSH1 0x1E PUSH1 0x24 DUP3 ADD MSTORE PUSH32 0x436F6E7472616374207265636F7264206E6F7420726567697374657265640000 PUSH1 0x44 DUP3 ADD MSTORE PUSH1 0x64 ADD PUSH2 0x24F JUMP JUMPDEST DUP1 SLOAD PUSH1 0x1 DUP3 ADD SLOAD PUSH1 0x2 DUP4 ADD SLOAD PUSH1 0x3 DUP5 ADD SLOAD PUSH1 0x4 DUP6 ADD SLOAD PUSH2 0x486 SWAP5 SWAP4 PUSH1 0x1 PUSH1 0x1 PUSH1 0xA0 SHL SUB SWAP1 DUP2 AND SWAP4 AND SWAP2 PUSH1 0x1 PUSH1 0xA0 SHL SWAP1 DIV PUSH2 0xFFFF AND SWAP1 DUP10 PUSH2 0x60C JUMP JUMPDEST PUSH2 0x490 DUP3 DUP7 PUSH2 0xD83 JUMP JUMPDEST PUSH1 0x1 PUSH1 0x1 PUSH1 0xA0 SHL SUB DUP4 DUP2 AND PUSH1 0x0 DUP2 DUP2 MSTORE PUSH1 0x2 PUSH1 0x20 DUP2 DUP2 MSTORE PUSH1 0x40 DUP1 DUP5 KECCAK256 DUP12 DUP6 MSTORE DUP3 MSTORE DUP1 DUP5 KECCAK256 DUP9 DUP4 MSTORE DUP2 DUP6 KECCAK256 SLOAD PUSH2 0xFFFF AND DUP6 MSTORE DUP3 MSTORE DUP1 DUP5 KECCAK256 DUP5 DUP2 SSTORE PUSH1 0x1 DUP2 ADD DUP1 SLOAD PUSH1 0x1 PUSH1 0x1 PUSH1 0xA0 SHL SUB NOT SWAP1 DUP2 AND SWAP1 SWAP2 SSTORE SWAP4 DUP2 ADD DUP1 SLOAD SWAP1 SWAP5 AND SWAP1 SWAP4 SSTORE PUSH1 0x3 DUP4 ADD DUP1 SLOAD PUSH1 0x1 PUSH1 0x1 PUSH1 0xB0 SHL SUB NOT AND SWAP1 SSTORE PUSH1 0x4 DUP4 ADD DUP5 SWAP1 SSTORE PUSH1 0x5 SWAP1 SWAP3 ADD SWAP3 SWAP1 SWAP3 SSTORE MLOAD DUP9 DUP2 MSTORE SWAP3 DUP8 AND SWAP3 PUSH32 0x6467EF979E83BE7DA4C6BDB4513AE6309DBF5CD9CA8F5474D2F77EF171F5B903 SWAP2 ADD PUSH1 0x40 MLOAD DUP1 SWAP2 SUB SWAP1 LOG3 POP POP POP POP POP JUMP JUMPDEST PUSH1 0x0 PUSH2 0x54F PUSH2 0x1080 JUMP JUMPDEST PUSH2 0x55A DUP6 DUP6 DUP6 PUSH2 0xE4F JUMP JUMPDEST SWAP2 POP SWAP2 POP JUMPDEST SWAP4 POP SWAP4 SWAP2 POP POP JUMP JUMPDEST PUSH1 0x60 PUSH2 0x577 CALLER PUSH2 0xF39 JUMP JUMPDEST PUSH2 0xF39 JUMP JUMPDEST SWAP1 POP SWAP1 JUMP JUMPDEST PUSH2 0x584 PUSH2 0xCD9 JUMP JUMPDEST PUSH1 0x1 PUSH1 0x1 PUSH1 0xA0 SHL SUB DUP2 AND PUSH2 0x5E9 JUMPI PUSH1 0x40 MLOAD PUSH3 0x461BCD PUSH1 0xE5 SHL DUP2 MSTORE PUSH1 0x20 PUSH1 0x4 DUP3 ADD MSTORE PUSH1 0x26 PUSH1 0x24 DUP3 ADD MSTORE PUSH32 0x4F776E61626C653A206E6577206F776E657220697320746865207A65726F2061 PUSH1 0x44 DUP3 ADD MSTORE PUSH6 0x646472657373 PUSH1 0xD0 SHL PUSH1 0x64 DUP3 ADD MSTORE PUSH1 0x84 ADD PUSH2 0x24F JUMP JUMPDEST PUSH2 0x5F2 DUP2 PUSH2 0xD33 JUMP JUMPDEST POP JUMP JUMPDEST PUSH1 0x60 PUSH2 0x577 PUSH2 0x572 PUSH1 0x0 SLOAD PUSH1 0x1 PUSH1 0x1 PUSH1 0xA0 SHL SUB AND SWAP1 JUMP JUMPDEST PUSH1 0x1 PUSH1 0x1 PUSH1 0xA0 SHL SUB DUP5 AND PUSH2 0x65C JUMPI PUSH1 0x40 MLOAD PUSH3 0x461BCD PUSH1 0xE5 SHL DUP2 MSTORE PUSH1 0x20 PUSH1 0x4 DUP3 ADD MSTORE PUSH1 0x17 PUSH1 0x24 DUP3 ADD MSTORE PUSH23 0x131BD9DA58C81859191C995CDCC81A5CC81B9959191959 PUSH1 0x4A SHL PUSH1 0x44 DUP3 ADD MSTORE PUSH1 0x64 ADD PUSH2 0x24F JUMP JUMPDEST PUSH1 0x1 PUSH1 0x1 PUSH1 0xA0 SHL SUB DUP6 AND PUSH2 0x66E JUMPI DUP4 SWAP5 POP JUMPDEST PUSH2 0x270F PUSH2 0xFFFF DUP5 AND GT ISZERO PUSH2 0x6C4 JUMPI PUSH1 0x40 MLOAD PUSH3 0x461BCD PUSH1 0xE5 SHL DUP2 MSTORE PUSH1 0x20 PUSH1 0x4 DUP3 ADD MSTORE PUSH1 0x1F PUSH1 0x24 DUP3 ADD MSTORE PUSH32 0x56657273696F6E206D757374206265206C6F776572207468616E203939393900 PUSH1 0x44 DUP3 ADD MSTORE PUSH1 0x64 ADD PUSH2 0x24F JUMP JUMPDEST PUSH1 0x1 PUSH1 0x1 PUSH1 0xA0 SHL SUB DUP2 AND PUSH1 0x0 SWAP1 DUP2 MSTORE PUSH1 0x3 PUSH1 0x20 SWAP1 DUP2 MSTORE PUSH1 0x40 DUP1 DUP4 KECCAK256 PUSH1 0x2 DUP4 MSTORE DUP2 DUP5 KECCAK256 DUP11 DUP6 MSTORE DUP4 MSTORE DUP2 DUP5 KECCAK256 DUP2 DUP5 MSTORE DUP3 DUP6 KECCAK256 SLOAD PUSH2 0xFFFF AND DUP6 MSTORE SWAP1 SWAP3 MSTORE SWAP1 SWAP2 KECCAK256 PUSH1 0x5 DUP2 ADD SLOAD ISZERO DUP1 ISZERO PUSH2 0x720 JUMPI POP PUSH1 0x3 DUP2 ADD SLOAD PUSH1 0x1 PUSH1 0xA0 SHL SWAP1 DIV PUSH2 0xFFFF AND ISZERO JUMPDEST PUSH2 0x76C JUMPI PUSH1 0x40 MLOAD PUSH3 0x461BCD PUSH1 0xE5 SHL DUP2 MSTORE PUSH1 0x20 PUSH1 0x4 DUP3 ADD MSTORE PUSH1 0x1E PUSH1 0x24 DUP3 ADD MSTORE PUSH32 0x416C726561647920726567697374657265642C20757365207570646174650000 PUSH1 0x44 DUP3 ADD MSTORE PUSH1 0x64 ADD PUSH2 0x24F JUMP JUMPDEST PUSH1 0x2 PUSH1 0x0 DUP5 PUSH1 0x1 PUSH1 0x1 PUSH1 0xA0 SHL SUB AND PUSH1 0x1 PUSH1 0x1 PUSH1 0xA0 SHL SUB AND DUP2 MSTORE PUSH1 0x20 ADD SWAP1 DUP2 MSTORE PUSH1 0x20 ADD PUSH1 0x0 KECCAK256 PUSH1 0x0 DUP10 DUP2 MSTORE PUSH1 0x20 ADD SWAP1 DUP2 MSTORE PUSH1 0x20 ADD PUSH1 0x0 KECCAK256 PUSH1 0x0 DUP7 PUSH2 0xFFFF AND PUSH2 0xFFFF AND DUP2 MSTORE PUSH1 0x20 ADD SWAP1 DUP2 MSTORE PUSH1 0x20 ADD PUSH1 0x0 KECCAK256 SWAP1 POP DUP8 DUP2 PUSH1 0x0 ADD DUP2 SWAP1 SSTORE POP DUP7 DUP2 PUSH1 0x1 ADD PUSH1 0x0 PUSH2 0x100 EXP DUP2 SLOAD DUP2 PUSH1 0x1 PUSH1 0x1 PUSH1 0xA0 SHL SUB MUL NOT AND SWAP1 DUP4 PUSH1 0x1 PUSH1 0x1 PUSH1 0xA0 SHL SUB AND MUL OR SWAP1 SSTORE POP DUP6 DUP2 PUSH1 0x2 ADD PUSH1 0x0 PUSH2 0x100 EXP DUP2 SLOAD DUP2 PUSH1 0x1 PUSH1 0x1 PUSH1 0xA0 SHL SUB MUL NOT AND SWAP1 DUP4 PUSH1 0x1 PUSH1 0x1 PUSH1 0xA0 SHL SUB AND MUL OR SWAP1 SSTORE POP DUP3 DUP2 PUSH1 0x3 ADD PUSH1 0x0 PUSH2 0x100 EXP DUP2 SLOAD DUP2 PUSH1 0x1 PUSH1 0x1 PUSH1 0xA0 SHL SUB MUL NOT AND SWAP1 DUP4 PUSH1 0x1 PUSH1 0x1 PUSH1 0xA0 SHL SUB AND MUL OR SWAP1 SSTORE POP DUP5 DUP2 PUSH1 0x3 ADD PUSH1 0x14 PUSH2 0x100 EXP DUP2 SLOAD DUP2 PUSH2 0xFFFF MUL NOT AND SWAP1 DUP4 PUSH2 0xFFFF AND MUL OR SWAP1 SSTORE POP DUP4 DUP2 PUSH1 0x4 ADD DUP2 SWAP1 SSTORE POP TIMESTAMP DUP2 PUSH1 0x5 ADD DUP2 SWAP1 SSTORE POP DUP2 PUSH1 0x2 ADD SLOAD DUP3 PUSH1 0x1 ADD PUSH1 0x0 DUP11 DUP2 MSTORE PUSH1 0x20 ADD SWAP1 DUP2 MSTORE PUSH1 0x20 ADD PUSH1 0x0 KECCAK256 DUP2 SWAP1 SSTORE POP DUP8 DUP3 PUSH1 0x2 ADD DUP2 SWAP1 SSTORE POP DUP5 DUP3 PUSH1 0x0 ADD PUSH1 0x0 DUP11 DUP2 MSTORE PUSH1 0x20 ADD SWAP1 DUP2 MSTORE PUSH1 0x20 ADD PUSH1 0x0 KECCAK256 PUSH1 0x0 PUSH2 0x100 EXP DUP2 SLOAD DUP2 PUSH2 0xFFFF MUL NOT AND SWAP1 DUP4 PUSH2 0xFFFF AND MUL OR SWAP1 SSTORE POP DUP1 PUSH1 0x3 ADD PUSH1 0x14 SWAP1 SLOAD SWAP1 PUSH2 0x100 EXP SWAP1 DIV PUSH2 0xFFFF AND PUSH2 0xFFFF AND DUP2 PUSH1 0x1 ADD PUSH1 0x0 SWAP1 SLOAD SWAP1 PUSH2 0x100 EXP SWAP1 DIV PUSH1 0x1 PUSH1 0x1 PUSH1 0xA0 SHL SUB AND PUSH1 0x1 PUSH1 0x1 PUSH1 0xA0 SHL SUB AND DUP3 PUSH1 0x0 ADD SLOAD PUSH32 0xB8064287BE8E96C6334F8CFF70015F26AA567834BC9455BDC54F6D163A101376 DUP5 PUSH1 0x2 ADD PUSH1 0x0 SWAP1 SLOAD SWAP1 PUSH2 0x100 EXP SWAP1 DIV PUSH1 0x1 PUSH1 0x1 PUSH1 0xA0 SHL SUB AND DUP6 PUSH1 0x4 ADD SLOAD PUSH1 0x40 MLOAD PUSH2 0x966 SWAP3 SWAP2 SWAP1 PUSH1 0x1 PUSH1 0x1 PUSH1 0xA0 SHL SUB SWAP3 SWAP1 SWAP3 AND DUP3 MSTORE PUSH1 0x20 DUP3 ADD MSTORE PUSH1 0x40 ADD SWAP1 JUMP JUMPDEST PUSH1 0x40 MLOAD DUP1 SWAP2 SUB SWAP1 LOG4 POP POP POP POP POP POP POP POP JUMP JUMPDEST DUP7 PUSH2 0x9BA JUMPI PUSH1 0x40 MLOAD PUSH3 0x461BCD PUSH1 0xE5 SHL DUP2 MSTORE PUSH1 0x20 PUSH1 0x4 DUP3 ADD MSTORE PUSH1 0x12 PUSH1 0x24 DUP3 ADD MSTORE PUSH18 0x149958DBDC99081B985B59481B9959591959 PUSH1 0x72 SHL PUSH1 0x44 DUP3 ADD MSTORE PUSH1 0x64 ADD PUSH2 0x24F JUMP JUMPDEST PUSH1 0x1 PUSH1 0x1 PUSH1 0xA0 SHL SUB DUP2 AND PUSH1 0x0 SWAP1 DUP2 MSTORE PUSH1 0x3 PUSH1 0x20 SWAP1 DUP2 MSTORE PUSH1 0x40 DUP1 DUP4 KECCAK256 PUSH1 0x2 DUP4 MSTORE DUP2 DUP5 KECCAK256 DUP12 DUP6 MSTORE DUP4 MSTORE DUP2 DUP5 KECCAK256 DUP2 DUP5 MSTORE DUP3 DUP6 KECCAK256 SLOAD PUSH2 0xFFFF AND DUP6 MSTORE SWAP1 SWAP3 MSTORE DUP3 KECCAK256 PUSH1 0x5 DUP2 ADD SLOAD SWAP2 SWAP3 SWAP1 SWAP2 SWAP1 SUB PUSH2 0xA4D JUMPI PUSH1 0x40 MLOAD PUSH3 0x461BCD PUSH1 0xE5 SHL DUP2 MSTORE PUSH1 0x20 PUSH1 0x4 DUP3 ADD MSTORE PUSH1 0x1C PUSH1 0x24 DUP3 ADD MSTORE PUSH32 0x4E6F7420726567697374657265642C2075736520726567697374657200000000 PUSH1 0x44 DUP3 ADD MSTORE PUSH1 0x64 ADD PUSH2 0x24F JUMP JUMPDEST DUP5 PUSH2 0xFFFF AND PUSH1 0x0 SUB PUSH2 0xA77 JUMPI PUSH1 0x3 DUP2 ADD SLOAD PUSH2 0xA74 SWAP1 PUSH1 0x1 PUSH1 0xA0 SHL SWAP1 DIV PUSH2 0xFFFF AND PUSH1 0x1 PUSH2 0x1329 JUMP JUMPDEST SWAP5 POP JUMPDEST PUSH1 0x3 DUP2 ADD SLOAD PUSH2 0xFFFF DUP1 DUP8 AND PUSH1 0x1 PUSH1 0xA0 SHL SWAP1 SWAP3 DIV AND LT PUSH2 0xACE JUMPI PUSH1 0x40 MLOAD PUSH3 0x461BCD PUSH1 0xE5 SHL DUP2 MSTORE PUSH1 0x20 PUSH1 0x4 DUP3 ADD MSTORE PUSH1 0x13 PUSH1 0x24 DUP3 ADD MSTORE PUSH19 0x24B73B30B634B2103732BB903B32B939B4B7B7 PUSH1 0x69 SHL PUSH1 0x44 DUP3 ADD MSTORE PUSH1 0x64 ADD PUSH2 0x24F JUMP JUMPDEST PUSH1 0x1 PUSH1 0x1 PUSH1 0xA0 SHL SUB DUP1 DUP5 AND PUSH1 0x0 SWAP1 DUP2 MSTORE PUSH1 0x2 PUSH1 0x20 SWAP1 DUP2 MSTORE PUSH1 0x40 DUP1 DUP4 KECCAK256 DUP14 DUP5 MSTORE DUP3 MSTORE DUP1 DUP4 KECCAK256 PUSH2 0xFFFF DUP11 AND DUP5 MSTORE SWAP1 SWAP2 MSTORE SWAP1 KECCAK256 SWAP1 DUP10 AND ISZERO PUSH2 0xB28 JUMPI PUSH1 0x1 DUP2 ADD DUP1 SLOAD PUSH1 0x1 PUSH1 0x1 PUSH1 0xA0 SHL SUB NOT AND PUSH1 0x1 PUSH1 0x1 PUSH1 0xA0 SHL SUB DUP12 AND OR SWAP1 SSTORE PUSH2 0xB4F JUMP JUMPDEST PUSH1 0x1 DUP1 DUP4 ADD SLOAD SWAP1 DUP3 ADD DUP1 SLOAD PUSH1 0x1 PUSH1 0x1 PUSH1 0xA0 SHL SUB NOT AND PUSH1 0x1 PUSH1 0x1 PUSH1 0xA0 SHL SUB SWAP1 SWAP3 AND SWAP2 SWAP1 SWAP2 OR SWAP1 SSTORE JUMPDEST PUSH1 0x1 PUSH1 0x1 PUSH1 0xA0 SHL SUB DUP9 AND ISZERO PUSH2 0xB80 JUMPI PUSH1 0x2 DUP2 ADD DUP1 SLOAD PUSH1 0x1 PUSH1 0x1 PUSH1 0xA0 SHL SUB NOT AND PUSH1 0x1 PUSH1 0x1 PUSH1 0xA0 SHL SUB DUP11 AND OR SWAP1 SSTORE PUSH2 0xBA7 JUMP JUMPDEST PUSH1 0x2 DUP1 DUP4 ADD SLOAD SWAP1 DUP3 ADD DUP1 SLOAD PUSH1 0x1 PUSH1 0x1 PUSH1 0xA0 SHL SUB NOT AND PUSH1 0x1 PUSH1 0x1 PUSH1 0xA0 SHL SUB SWAP1 SWAP3 AND SWAP2 SWAP1 SWAP2 OR SWAP1 SSTORE JUMPDEST PUSH1 0x1 PUSH1 0x1 PUSH1 0xA0 SHL SUB DUP8 AND ISZERO PUSH2 0xBD8 JUMPI PUSH1 0x3 DUP2 ADD DUP1 SLOAD PUSH1 0x1 PUSH1 0x1 PUSH1 0xA0 SHL SUB NOT AND PUSH1 0x1 PUSH1 0x1 PUSH1 0xA0 SHL SUB DUP10 AND OR SWAP1 SSTORE PUSH2 0xBFF JUMP JUMPDEST PUSH1 0x3 DUP1 DUP4 ADD SLOAD SWAP1 DUP3 ADD DUP1 SLOAD PUSH1 0x1 PUSH1 0x1 PUSH1 0xA0 SHL SUB NOT AND PUSH1 0x1 PUSH1 0x1 PUSH1 0xA0 SHL SUB SWAP1 SWAP3 AND SWAP2 SWAP1 SWAP2 OR SWAP1 SSTORE JUMPDEST DUP5 ISZERO PUSH2 0xC11 JUMPI PUSH1 0x4 DUP2 ADD DUP6 SWAP1 SSTORE PUSH2 0xC1C JUMP JUMPDEST PUSH1 0x4 DUP1 DUP4 ADD SLOAD SWAP1 DUP3 ADD SSTORE JUMPDEST DUP2 SLOAD DUP2 SSTORE PUSH1 0x3 DUP2 ADD DUP1 SLOAD PUSH2 0xFFFF PUSH1 0xA0 SHL NOT AND PUSH1 0x1 PUSH1 0xA0 SHL PUSH2 0xFFFF DUP10 DUP2 AND DUP3 MUL SWAP3 SWAP1 SWAP3 OR DUP1 DUP5 SSTORE TIMESTAMP PUSH1 0x5 DUP7 ADD SSTORE PUSH1 0x0 DUP15 DUP2 MSTORE PUSH1 0x20 DUP9 DUP2 MSTORE PUSH1 0x40 SWAP2 DUP3 SWAP1 KECCAK256 DUP1 SLOAD SWAP4 DUP6 SWAP1 DIV DUP7 AND PUSH2 0xFFFF NOT SWAP1 SWAP5 AND SWAP4 SWAP1 SWAP4 OR SWAP1 SWAP3 SSTORE SWAP4 SLOAD PUSH1 0x1 DUP7 ADD SLOAD DUP7 SLOAD PUSH1 0x2 DUP9 ADD SLOAD PUSH1 0x4 DUP10 ADD SLOAD DUP9 MLOAD PUSH1 0x1 PUSH1 0x1 PUSH1 0xA0 SHL SUB SWAP3 DUP4 AND DUP2 MSTORE SWAP6 DUP7 ADD MSTORE SWAP5 SWAP1 SWAP3 DIV SWAP1 SWAP5 AND SWAP5 SWAP3 SWAP1 SWAP4 AND SWAP3 SWAP2 PUSH32 0xB8064287BE8E96C6334F8CFF70015F26AA567834BC9455BDC54F6D163A101376 SWAP2 ADD PUSH1 0x40 MLOAD DUP1 SWAP2 SUB SWAP1 LOG4 POP POP POP POP POP POP POP POP POP POP JUMP JUMPDEST PUSH1 0x0 SLOAD PUSH1 0x1 PUSH1 0x1 PUSH1 0xA0 SHL SUB AND CALLER EQ PUSH2 0x34B JUMPI PUSH1 0x40 MLOAD PUSH3 0x461BCD PUSH1 0xE5 SHL DUP2 MSTORE PUSH1 0x20 PUSH1 0x4 DUP3 ADD DUP2 SWAP1 MSTORE PUSH1 0x24 DUP3 ADD MSTORE PUSH32 0x4F776E61626C653A2063616C6C6572206973206E6F7420746865206F776E6572 PUSH1 0x44 DUP3 ADD MSTORE PUSH1 0x64 ADD PUSH2 0x24F JUMP JUMPDEST PUSH1 0x0 DUP1 SLOAD PUSH1 0x1 PUSH1 0x1 PUSH1 0xA0 SHL SUB DUP4 DUP2 AND PUSH1 0x1 PUSH1 0x1 PUSH1 0xA0 SHL SUB NOT DUP4 AND DUP2 OR DUP5 SSTORE PUSH1 0x40 MLOAD SWAP2 SWAP1 SWAP3 AND SWAP3 DUP4 SWAP2 PUSH32 0x8BE0079C531659141344CD1FD0A4F28419497F9722A3DAAFE3B4186F6B6457E0 SWAP2 SWAP1 LOG3 POP POP JUMP JUMPDEST PUSH1 0x2 DUP3 ADD SLOAD PUSH1 0x0 DUP2 DUP2 MSTORE PUSH1 0x1 DUP5 ADD PUSH1 0x20 MSTORE PUSH1 0x40 SWAP1 KECCAK256 SLOAD PUSH2 0xDB9 JUMPI POP PUSH1 0x0 SWAP1 DUP2 MSTORE PUSH1 0x1 DUP3 ADD PUSH1 0x20 MSTORE PUSH1 0x40 DUP2 KECCAK256 DUP2 SWAP1 SSTORE PUSH1 0x2 SWAP1 SWAP2 ADD SSTORE JUMP JUMPDEST PUSH1 0x0 DUP2 DUP2 MSTORE PUSH1 0x1 DUP5 ADD PUSH1 0x20 MSTORE PUSH1 0x40 SWAP1 KECCAK256 SLOAD DUP3 EQ PUSH2 0xE33 JUMPI DUP1 PUSH2 0xE1D JUMPI PUSH1 0x40 MLOAD PUSH3 0x461BCD PUSH1 0xE5 SHL DUP2 MSTORE PUSH1 0x20 PUSH1 0x4 DUP3 ADD MSTORE PUSH1 0x1F PUSH1 0x24 DUP3 ADD MSTORE PUSH32 0x5265636F72644E616D65206E6F7420666F756E6420666F722073656E64657200 PUSH1 0x44 DUP3 ADD MSTORE PUSH1 0x64 ADD PUSH2 0x24F JUMP JUMPDEST PUSH1 0x0 SWAP1 DUP2 MSTORE PUSH1 0x1 DUP4 ADD PUSH1 0x20 MSTORE PUSH1 0x40 SWAP1 KECCAK256 SLOAD PUSH2 0xDB9 JUMP JUMPDEST PUSH1 0x0 SWAP2 DUP3 MSTORE PUSH1 0x1 SWAP3 SWAP1 SWAP3 ADD PUSH1 0x20 MSTORE PUSH1 0x40 DUP1 DUP3 KECCAK256 SLOAD SWAP3 DUP3 MSTORE SWAP1 KECCAK256 SSTORE JUMP JUMPDEST PUSH1 0x0 PUSH2 0xE59 PUSH2 0x1080 JUMP JUMPDEST PUSH2 0x270F PUSH2 0xFFFF DUP5 AND GT ISZERO PUSH2 0xE92 JUMPI PUSH1 0x1 PUSH1 0x1 PUSH1 0xA0 SHL SUB DUP5 AND PUSH1 0x0 SWAP1 DUP2 MSTORE PUSH1 0x3 PUSH1 0x20 SWAP1 DUP2 MSTORE PUSH1 0x40 DUP1 DUP4 KECCAK256 DUP9 DUP5 MSTORE SWAP1 SWAP2 MSTORE SWAP1 KECCAK256 SLOAD PUSH2 0xFFFF AND SWAP3 POP JUMPDEST POP PUSH1 0x1 PUSH1 0x1 PUSH1 0xA0 SHL SUB DUP1 DUP5 AND PUSH1 0x0 SWAP1 DUP2 MSTORE PUSH1 0x2 PUSH1 0x20 DUP2 DUP2 MSTORE PUSH1 0x40 DUP1 DUP5 KECCAK256 DUP10 DUP6 MSTORE DUP3 MSTORE DUP1 DUP5 KECCAK256 PUSH2 0xFFFF DUP1 DUP10 AND DUP7 MSTORE SWAP1 DUP4 MSTORE DUP2 DUP6 KECCAK256 DUP3 MLOAD PUSH1 0xE0 DUP2 ADD DUP5 MSTORE DUP2 SLOAD DUP2 MSTORE PUSH1 0x1 DUP3 ADD SLOAD DUP9 AND SWAP5 DUP2 ADD SWAP5 SWAP1 SWAP5 MSTORE SWAP4 DUP5 ADD SLOAD DUP7 AND SWAP2 DUP4 ADD SWAP2 SWAP1 SWAP2 MSTORE PUSH1 0x3 DUP4 ADD SLOAD SWAP5 DUP6 AND PUSH1 0x60 DUP4 ADD MSTORE PUSH1 0x1 PUSH1 0xA0 SHL SWAP1 SWAP5 DIV SWAP1 SWAP4 AND PUSH1 0x80 DUP5 ADD MSTORE PUSH1 0x4 DUP2 ADD SLOAD PUSH1 0xA0 DUP5 ADD MSTORE PUSH1 0x5 ADD SLOAD PUSH1 0xC0 DUP4 ADD DUP2 SWAP1 MSTORE SWAP1 SUB PUSH2 0xF2D JUMPI PUSH1 0x0 SWAP2 POP PUSH2 0x55F JUMP JUMPDEST PUSH1 0x1 SWAP2 POP SWAP4 POP SWAP4 SWAP2 POP POP JUMP JUMPDEST PUSH1 0x1 PUSH1 0x1 PUSH1 0xA0 SHL SUB DUP2 AND PUSH1 0x0 SWAP1 DUP2 MSTORE PUSH1 0x3 PUSH1 0x20 MSTORE PUSH1 0x40 DUP2 KECCAK256 PUSH1 0x2 ADD SLOAD PUSH1 0x60 SWAP2 JUMPDEST DUP2 ISZERO DUP1 ISZERO SWAP1 PUSH2 0xF69 JUMPI POP PUSH2 0x2710 DUP2 LT JUMPDEST ISZERO PUSH2 0xFAC JUMPI DUP1 PUSH2 0xF78 DUP2 PUSH2 0x134F JUMP JUMPDEST PUSH1 0x1 PUSH1 0x1 PUSH1 0xA0 SHL SUB DUP7 AND PUSH1 0x0 SWAP1 DUP2 MSTORE PUSH1 0x3 PUSH1 0x20 SWAP1 DUP2 MSTORE PUSH1 0x40 DUP1 DUP4 KECCAK256 SWAP7 DUP4 MSTORE PUSH1 0x1 SWAP1 SWAP7 ADD SWAP1 MSTORE SWAP4 SWAP1 SWAP4 KECCAK256 SLOAD SWAP3 SWAP2 POP PUSH2 0xF59 SWAP1 POP JUMP JUMPDEST PUSH1 0x1 PUSH1 0x1 PUSH1 0xA0 SHL SUB DUP5 AND PUSH1 0x0 SWAP1 DUP2 MSTORE PUSH1 0x3 PUSH1 0x20 MSTORE PUSH1 0x40 DUP2 KECCAK256 PUSH1 0x2 ADD SLOAD SWAP3 POP DUP2 PUSH8 0xFFFFFFFFFFFFFFFF DUP2 GT ISZERO PUSH2 0xFE3 JUMPI PUSH2 0xFE3 PUSH2 0x1368 JUMP JUMPDEST PUSH1 0x40 MLOAD SWAP1 DUP1 DUP3 MSTORE DUP1 PUSH1 0x20 MUL PUSH1 0x20 ADD DUP3 ADD PUSH1 0x40 MSTORE DUP1 ISZERO PUSH2 0x100C JUMPI DUP2 PUSH1 0x20 ADD PUSH1 0x20 DUP3 MUL DUP1 CALLDATASIZE DUP4 CALLDATACOPY ADD SWAP1 POP JUMPDEST POP SWAP1 POP PUSH1 0x0 JUMPDEST DUP3 DUP2 LT ISZERO PUSH2 0x1077 JUMPI DUP4 DUP3 DUP3 DUP2 MLOAD DUP2 LT PUSH2 0x102D JUMPI PUSH2 0x102D PUSH2 0x137E JUMP JUMPDEST PUSH1 0x20 SWAP1 DUP2 MUL SWAP2 SWAP1 SWAP2 ADD DUP2 ADD SWAP2 SWAP1 SWAP2 MSTORE PUSH1 0x1 PUSH1 0x1 PUSH1 0xA0 SHL SUB DUP8 AND PUSH1 0x0 SWAP1 DUP2 MSTORE PUSH1 0x3 DUP3 MSTORE PUSH1 0x40 DUP1 DUP3 KECCAK256 SWAP7 DUP3 MSTORE PUSH1 0x1 SWAP1 SWAP7 ADD SWAP1 SWAP2 MSTORE SWAP4 SWAP1 SWAP4 KECCAK256 SLOAD SWAP3 DUP1 PUSH2 0x106F DUP2 PUSH2 0x134F JUMP JUMPDEST SWAP2 POP POP PUSH2 0x1012 JUMP JUMPDEST POP SWAP5 SWAP4 POP POP POP POP JUMP JUMPDEST PUSH1 0x40 DUP1 MLOAD PUSH1 0xE0 DUP2 ADD DUP3 MSTORE PUSH1 0x0 DUP1 DUP3 MSTORE PUSH1 0x20 DUP3 ADD DUP2 SWAP1 MSTORE SWAP2 DUP2 ADD DUP3 SWAP1 MSTORE PUSH1 0x60 DUP2 ADD DUP3 SWAP1 MSTORE PUSH1 0x80 DUP2 ADD DUP3 SWAP1 MSTORE PUSH1 0xA0 DUP2 ADD DUP3 SWAP1 MSTORE PUSH1 0xC0 DUP2 ADD SWAP2 SWAP1 SWAP2 MSTORE SWAP1 JUMP JUMPDEST DUP1 CALLDATALOAD PUSH1 0x1 PUSH1 0x1 PUSH1 0xA0 SHL SUB DUP2 AND DUP2 EQ PUSH2 0x10D3 JUMPI PUSH1 0x0 DUP1 REVERT JUMPDEST SWAP2 SWAP1 POP JUMP JUMPDEST DUP1 CALLDATALOAD PUSH2 0xFFFF DUP2 AND DUP2 EQ PUSH2 0x10D3 JUMPI PUSH1 0x0 DUP1 REVERT JUMPDEST PUSH1 0x0 DUP1 PUSH1 0x0 DUP1 PUSH1 0x0 DUP1 PUSH1 0xC0 DUP8 DUP10 SUB SLT ISZERO PUSH2 0x1103 JUMPI PUSH1 0x0 DUP1 REVERT JUMPDEST DUP7 CALLDATALOAD SWAP6 POP PUSH2 0x1113 PUSH1 0x20 DUP9 ADD PUSH2 0x10BC JUMP JUMPDEST SWAP5 POP PUSH2 0x1121 PUSH1 0x40 DUP9 ADD PUSH2 0x10BC JUMP JUMPDEST SWAP4 POP PUSH2 0x112F PUSH1 0x60 DUP9 ADD PUSH2 0x10D8 JUMP JUMPDEST SWAP3 POP PUSH1 0x80 DUP8 ADD CALLDATALOAD SWAP2 POP PUSH2 0x1144 PUSH1 0xA0 DUP9 ADD PUSH2 0x10BC JUMP JUMPDEST SWAP1 POP SWAP3 SWAP6 POP SWAP3 SWAP6 POP SWAP3 SWAP6 JUMP JUMPDEST PUSH1 0x0 DUP1 PUSH1 0x0 DUP1 PUSH1 0x0 DUP1 PUSH1 0x0 PUSH1 0xE0 DUP9 DUP11 SUB SLT ISZERO PUSH2 0x116B JUMPI PUSH1 0x0 DUP1 REVERT JUMPDEST DUP8 CALLDATALOAD SWAP7 POP PUSH2 0x117B PUSH1 0x20 DUP10 ADD PUSH2 0x10BC JUMP JUMPDEST SWAP6 POP PUSH2 0x1189 PUSH1 0x40 DUP10 ADD PUSH2 0x10BC JUMP JUMPDEST SWAP5 POP PUSH2 0x1197 PUSH1 0x60 DUP10 ADD PUSH2 0x10BC JUMP JUMPDEST SWAP4 POP PUSH2 0x11A5 PUSH1 0x80 DUP10 ADD PUSH2 0x10D8 JUMP JUMPDEST SWAP3 POP PUSH1 0xA0 DUP9 ADD CALLDATALOAD SWAP2 POP PUSH2 0x11BA PUSH1 0xC0 DUP10 ADD PUSH2 0x10BC JUMP JUMPDEST SWAP1 POP SWAP3 SWAP6 SWAP9 SWAP2 SWAP5 SWAP8 POP SWAP3 SWAP6 POP JUMP JUMPDEST PUSH1 0x0 DUP1 PUSH1 0x40 DUP4 DUP6 SUB SLT ISZERO PUSH2 0x11DB JUMPI PUSH1 0x0 DUP1 REVERT JUMPDEST DUP3 CALLDATALOAD SWAP2 POP PUSH2 0x11EB PUSH1 0x20 DUP5 ADD PUSH2 0x10BC JUMP JUMPDEST SWAP1 POP SWAP3 POP SWAP3 SWAP1 POP JUMP JUMPDEST PUSH1 0x0 DUP1 PUSH1 0x0 PUSH1 0x60 DUP5 DUP7 SUB SLT ISZERO PUSH2 0x1209 JUMPI PUSH1 0x0 DUP1 REVERT JUMPDEST DUP4 CALLDATALOAD SWAP3 POP PUSH2 0x1219 PUSH1 0x20 DUP6 ADD PUSH2 0x10BC JUMP JUMPDEST SWAP2 POP PUSH2 0x1227 PUSH1 0x40 DUP6 ADD PUSH2 0x10D8 JUMP JUMPDEST SWAP1 POP SWAP3 POP SWAP3 POP SWAP3 JUMP JUMPDEST PUSH1 0x20 DUP1 DUP3 MSTORE DUP3 MLOAD DUP3 DUP3 ADD DUP2 SWAP1 MSTORE PUSH1 0x0 SWAP2 SWAP1 DUP5 DUP3 ADD SWAP1 PUSH1 0x40 DUP6 ADD SWAP1 DUP5 JUMPDEST DUP2 DUP2 LT ISZERO PUSH2 0x1268 JUMPI DUP4 MLOAD DUP4 MSTORE SWAP3 DUP5 ADD SWAP3 SWAP2 DUP5 ADD SWAP2 PUSH1 0x1 ADD PUSH2 0x124C JUMP JUMPDEST POP SWAP1 SWAP7 SWAP6 POP POP POP POP POP POP JUMP JUMPDEST PUSH1 0x0 PUSH1 0x20 DUP3 DUP5 SUB SLT ISZERO PUSH2 0x1286 JUMPI PUSH1 0x0 DUP1 REVERT JUMPDEST PUSH2 0x128F DUP3 PUSH2 0x10BC JUMP JUMPDEST SWAP4 SWAP3 POP POP POP JUMP JUMPDEST PUSH1 0x1 PUSH1 0x1 PUSH1 0xA0 SHL SUB SWAP4 DUP5 AND DUP2 MSTORE SWAP2 SWAP1 SWAP3 AND PUSH1 0x20 DUP3 ADD MSTORE PUSH1 0x40 DUP2 ADD SWAP2 SWAP1 SWAP2 MSTORE PUSH1 0x60 ADD SWAP1 JUMP JUMPDEST PUSH1 0x0 PUSH1 0x20 DUP3 DUP5 SUB SLT ISZERO PUSH2 0x12CC JUMPI PUSH1 0x0 DUP1 REVERT JUMPDEST DUP2 MLOAD DUP1 ISZERO ISZERO DUP2 EQ PUSH2 0x128F JUMPI PUSH1 0x0 DUP1 REVERT JUMPDEST PUSH1 0x20 DUP1 DUP3 MSTORE PUSH1 0x1B SWAP1 DUP3 ADD MSTORE PUSH32 0x43616C6C2066726F6D20756E7472757374656420616464726573730000000000 PUSH1 0x40 DUP3 ADD MSTORE PUSH1 0x60 ADD SWAP1 JUMP JUMPDEST PUSH4 0x4E487B71 PUSH1 0xE0 SHL PUSH1 0x0 MSTORE PUSH1 0x11 PUSH1 0x4 MSTORE PUSH1 0x24 PUSH1 0x0 REVERT JUMPDEST PUSH1 0x0 PUSH2 0xFFFF DUP1 DUP4 AND DUP2 DUP6 AND DUP1 DUP4 SUB DUP3 GT ISZERO PUSH2 0x1346 JUMPI PUSH2 0x1346 PUSH2 0x1313 JUMP JUMPDEST ADD SWAP5 SWAP4 POP POP POP POP JUMP JUMPDEST PUSH1 0x0 PUSH1 0x1 DUP3 ADD PUSH2 0x1361 JUMPI PUSH2 0x1361 PUSH2 0x1313 JUMP JUMPDEST POP PUSH1 0x1 ADD SWAP1 JUMP JUMPDEST PUSH4 0x4E487B71 PUSH1 0xE0 SHL PUSH1 0x0 MSTORE PUSH1 0x41 PUSH1 0x4 MSTORE PUSH1 0x24 PUSH1 0x0 REVERT JUMPDEST PUSH4 0x4E487B71 PUSH1 0xE0 SHL PUSH1 0x0 MSTORE PUSH1 0x32 PUSH1 0x4 MSTORE PUSH1 0x24 PUSH1 0x0 REVERT INVALID LOG2 PUSH5 0x6970667358 0x22 SLT KECCAK256 0xAC PUSH12 0x6A7C0761B68029D167B4EF2C PC 0x4C SWAP2 GT CALLVALUE DUP4 0xE3 SSTORE SWAP12 0xA8 SWAP10 SSTORE 0xE1 0xC2 PUSH30 0x9FB10A64736F6C634300080D003300000000000000000000000000000000 "},"methodIdentifiers":{"changeRegisteredAdmin(bytes32,address)":"842f95f0","getMyRecords()":"e76637ce","getRecord(bytes32,address,uint16)":"ccd92b48","getSystemRecords()":"ff69bc33","owner()":"8da5cb5b","register(bytes32,address,address,uint16,bytes32,address)":"116cce86","renounceOwnership()":"715018a6","transferOwnership(address)":"f2fde38b","update(bytes32,address,address,address,uint16,bytes32,address)":"40a40e9d"}}}}}