{"contracts/ContractDeployer.sol":{"ContractDeployer":{"abi":[{"inputs":[{"internalType":"contract IContractRegistry","name":"initRegistry","type":"address"}],"stateMutability":"nonpayable","type":"constructor"},{"anonymous":false,"inputs":[{"indexed":false,"internalType":"address","name":"registry","type":"address"},{"indexed":true,"internalType":"bytes32","name":"name","type":"bytes32"},{"indexed":true,"internalType":"address","name":"proxyOrLogic","type":"address"},{"indexed":true,"internalType":"uint16","name":"version","type":"uint16"},{"indexed":false,"internalType":"bytes32","name":"logicCodeHash","type":"bytes32"}],"name":"ContractDeployed","type":"event"},{"inputs":[{"internalType":"contract IContractRegistry","name":"registry","type":"address"},{"internalType":"bytes","name":"bytecode","type":"bytes"},{"internalType":"bytes","name":"data","type":"bytes"},{"internalType":"bytes32","name":"salt","type":"bytes32"},{"internalType":"bytes32","name":"name","type":"bytes32"},{"internalType":"uint16","name":"version","type":"uint16"}],"name":"deployContract","outputs":[],"stateMutability":"nonpayable","type":"function"}],"evm":{"bytecode":{"linkReferences":{},"object":"608060405234801561001057600080fd5b5060405161088a38038061088a83398101604081905261002f91610054565b600080546001600160a01b0319166001600160a01b0392909216919091179055610084565b60006020828403121561006657600080fd5b81516001600160a01b038116811461007d57600080fd5b9392505050565b6107f7806100936000396000f3fe608060405234801561001057600080fd5b506004361061002b5760003560e01c80633aa3df6c14610030575b600080fd5b61004361003e36600461055c565b610045565b005b6001600160a01b038616610062576000546001600160a01b031695505b858361009457854260405160200161007b92919061061d565b6040516020818303038152906040528051906020012093505b60006100c360008689896040516020016100af92919061063f565b604051602081830303815290604052610339565b90506000816001600160a01b0316803b806020016040519081016040528181526000908060200190933c805160209091012060405163f2fde38b60e01b81523360048201529091506001600160a01b0383169063f2fde38b90602401600060405180830381600087803b15801561013957600080fd5b505af192505050801561014a575060015b5060405163199b256960e31b81526004810186905233602482015261271060448201526000906001600160a01b038b169063ccd92b4890606401600060405180830381865afa1580156101a1573d6000803e3d6000fd5b505050506040513d6000823e601f3d908101601f191682016040526101c991908101906106d6565b509050801561025e576040516340a40e9d60e01b8152600481018790526001600160a01b03848116602483018190526044830152336064830181905261ffff8816608484015260a4830185905260c48301528b16906340a40e9d9060e401600060405180830381600087803b15801561024157600080fd5b505af1158015610255573d6000803e3d6000fd5b505050506102df565b6040516308b6674360e11b8152600481018790526001600160a01b0384811660248301819052604483015261ffff87166064830152608482018490523360a48301528b169063116cce869060c401600060405180830381600087803b1580156102c657600080fd5b505af11580156102da573d6000803e3d6000fd5b505050505b604080516001600160a01b0386811682526020820185905261ffff8816929086169189917e60efd136254ce44bc32bb474aa1526e3a1ac84c0d4473c0b3fb4407c5b747a910160405180910390a450505050505050505050565b6000834710156103905760405162461bcd60e51b815260206004820152601d60248201527f437265617465323a20696e73756666696369656e742062616c616e636500000060448201526064015b60405180910390fd5b81516000036103e15760405162461bcd60e51b815260206004820181905260248201527f437265617465323a2062797465636f6465206c656e677468206973207a65726f6044820152606401610387565b8282516020840186f590506001600160a01b03811661043e5760405162461bcd60e51b8152602060048201526019602482015278437265617465323a204661696c6564206f6e206465706c6f7960381b6044820152606401610387565b9392505050565b6001600160a01b038116811461045a57600080fd5b50565b634e487b7160e01b600052604160045260246000fd5b604051610100810167ffffffffffffffff811182821017156104975761049761045d565b60405290565b604051601f8201601f1916810167ffffffffffffffff811182821017156104c6576104c661045d565b604052919050565b600067ffffffffffffffff8211156104e8576104e861045d565b50601f01601f191660200190565b600082601f83011261050757600080fd5b813561051a610515826104ce565b61049d565b81815284602083860101111561052f57600080fd5b816020850160208301376000918101602001919091529392505050565b61ffff8116811461045a57600080fd5b60008060008060008060c0878903121561057557600080fd5b863561058081610445565b9550602087013567ffffffffffffffff8082111561059d57600080fd5b6105a98a838b016104f6565b965060408901359150808211156105bf57600080fd5b506105cc89828a016104f6565b945050606087013592506080870135915060a08701356105eb8161054c565b809150509295509295509295565b60005b838110156106145781810151838201526020016105fc565b50506000910152565b6000835161062f8184602088016105f9565b9190910191825250602001919050565b600083516106518184602088016105f9565b8351908301906106658183602088016105f9565b01949350505050565b805161067981610445565b919050565b80516106798161054c565b600082601f83011261069a57600080fd5b81516106a8610515826104ce565b8181528460208386010111156106bd57600080fd5b6106ce8260208301602087016105f9565b949350505050565b600080604083850312156106e957600080fd5b825180151581146106f957600080fd5b602084015190925067ffffffffffffffff8082111561071757600080fd5b90840190610100828703121561072c57600080fd5b610734610473565b825181526107446020840161066e565b60208201526107556040840161066e565b60408201526107666060840161066e565b60608201526107776080840161067e565b608082015260a083015160a082015260c08301518281111561079857600080fd5b6107a488828601610689565b60c08301525060e083015160e0820152809350505050925092905056fea2646970667358221220ef8243223abc7ca6f3c99bf694f916106ccc62f144883548959769d30bc1f2ad64736f6c63430008110033","opcodes":"PUSH1 0x80 PUSH1 0x40 MSTORE CALLVALUE DUP1 ISZERO PUSH2 0x10 JUMPI PUSH1 0x0 DUP1 REVERT JUMPDEST POP PUSH1 0x40 MLOAD PUSH2 0x88A CODESIZE SUB DUP1 PUSH2 0x88A DUP4 CODECOPY DUP2 ADD PUSH1 0x40 DUP2 SWAP1 MSTORE PUSH2 0x2F SWAP2 PUSH2 0x54 JUMP JUMPDEST PUSH1 0x0 DUP1 SLOAD PUSH1 0x1 PUSH1 0x1 PUSH1 0xA0 SHL SUB NOT AND PUSH1 0x1 PUSH1 0x1 PUSH1 0xA0 SHL SUB SWAP3 SWAP1 SWAP3 AND SWAP2 SWAP1 SWAP2 OR SWAP1 SSTORE PUSH2 0x84 JUMP JUMPDEST PUSH1 0x0 PUSH1 0x20 DUP3 DUP5 SUB SLT ISZERO PUSH2 0x66 JUMPI PUSH1 0x0 DUP1 REVERT JUMPDEST DUP2 MLOAD PUSH1 0x1 PUSH1 0x1 PUSH1 0xA0 SHL SUB DUP2 AND DUP2 EQ PUSH2 0x7D JUMPI PUSH1 0x0 DUP1 REVERT JUMPDEST SWAP4 SWAP3 POP POP POP JUMP JUMPDEST PUSH2 0x7F7 DUP1 PUSH2 0x93 PUSH1 0x0 CODECOPY PUSH1 0x0 RETURN INVALID PUSH1 0x80 PUSH1 0x40 MSTORE CALLVALUE DUP1 ISZERO PUSH2 0x10 JUMPI PUSH1 0x0 DUP1 REVERT JUMPDEST POP PUSH1 0x4 CALLDATASIZE LT PUSH2 0x2B JUMPI PUSH1 0x0 CALLDATALOAD PUSH1 0xE0 SHR DUP1 PUSH4 0x3AA3DF6C EQ PUSH2 0x30 JUMPI JUMPDEST PUSH1 0x0 DUP1 REVERT JUMPDEST PUSH2 0x43 PUSH2 0x3E CALLDATASIZE PUSH1 0x4 PUSH2 0x55C JUMP JUMPDEST PUSH2 0x45 JUMP JUMPDEST STOP JUMPDEST PUSH1 0x1 PUSH1 0x1 PUSH1 0xA0 SHL SUB DUP7 AND PUSH2 0x62 JUMPI PUSH1 0x0 SLOAD PUSH1 0x1 PUSH1 0x1 PUSH1 0xA0 SHL SUB AND SWAP6 POP JUMPDEST DUP6 DUP4 PUSH2 0x94 JUMPI DUP6 TIMESTAMP PUSH1 0x40 MLOAD PUSH1 0x20 ADD PUSH2 0x7B SWAP3 SWAP2 SWAP1 PUSH2 0x61D JUMP JUMPDEST PUSH1 0x40 MLOAD PUSH1 0x20 DUP2 DUP4 SUB SUB DUP2 MSTORE SWAP1 PUSH1 0x40 MSTORE DUP1 MLOAD SWAP1 PUSH1 0x20 ADD KECCAK256 SWAP4 POP JUMPDEST PUSH1 0x0 PUSH2 0xC3 PUSH1 0x0 DUP7 DUP10 DUP10 PUSH1 0x40 MLOAD PUSH1 0x20 ADD PUSH2 0xAF SWAP3 SWAP2 SWAP1 PUSH2 0x63F JUMP JUMPDEST PUSH1 0x40 MLOAD PUSH1 0x20 DUP2 DUP4 SUB SUB DUP2 MSTORE SWAP1 PUSH1 0x40 MSTORE PUSH2 0x339 JUMP JUMPDEST SWAP1 POP PUSH1 0x0 DUP2 PUSH1 0x1 PUSH1 0x1 PUSH1 0xA0 SHL SUB AND DUP1 EXTCODESIZE DUP1 PUSH1 0x20 ADD PUSH1 0x40 MLOAD SWAP1 DUP2 ADD PUSH1 0x40 MSTORE DUP2 DUP2 MSTORE PUSH1 0x0 SWAP1 DUP1 PUSH1 0x20 ADD SWAP1 SWAP4 EXTCODECOPY DUP1 MLOAD PUSH1 0x20 SWAP1 SWAP2 ADD KECCAK256 PUSH1 0x40 MLOAD PUSH4 0xF2FDE38B PUSH1 0xE0 SHL DUP2 MSTORE CALLER PUSH1 0x4 DUP3 ADD MSTORE SWAP1 SWAP2 POP PUSH1 0x1 PUSH1 0x1 PUSH1 0xA0 SHL SUB DUP4 AND SWAP1 PUSH4 0xF2FDE38B SWAP1 PUSH1 0x24 ADD PUSH1 0x0 PUSH1 0x40 MLOAD DUP1 DUP4 SUB DUP2 PUSH1 0x0 DUP8 DUP1 EXTCODESIZE ISZERO DUP1 ISZERO PUSH2 0x139 JUMPI PUSH1 0x0 DUP1 REVERT JUMPDEST POP GAS CALL SWAP3 POP POP POP DUP1 ISZERO PUSH2 0x14A JUMPI POP PUSH1 0x1 JUMPDEST POP PUSH1 0x40 MLOAD PUSH4 0x199B2569 PUSH1 0xE3 SHL DUP2 MSTORE PUSH1 0x4 DUP2 ADD DUP7 SWAP1 MSTORE CALLER PUSH1 0x24 DUP3 ADD MSTORE PUSH2 0x2710 PUSH1 0x44 DUP3 ADD MSTORE PUSH1 0x0 SWAP1 PUSH1 0x1 PUSH1 0x1 PUSH1 0xA0 SHL SUB DUP12 AND SWAP1 PUSH4 0xCCD92B48 SWAP1 PUSH1 0x64 ADD PUSH1 0x0 PUSH1 0x40 MLOAD DUP1 DUP4 SUB DUP2 DUP7 GAS STATICCALL ISZERO DUP1 ISZERO PUSH2 0x1A1 JUMPI RETURNDATASIZE PUSH1 0x0 DUP1 RETURNDATACOPY RETURNDATASIZE PUSH1 0x0 REVERT JUMPDEST POP POP POP POP PUSH1 0x40 MLOAD RETURNDATASIZE PUSH1 0x0 DUP3 RETURNDATACOPY PUSH1 0x1F RETURNDATASIZE SWAP1 DUP2 ADD PUSH1 0x1F NOT AND DUP3 ADD PUSH1 0x40 MSTORE PUSH2 0x1C9 SWAP2 SWAP1 DUP2 ADD SWAP1 PUSH2 0x6D6 JUMP JUMPDEST POP SWAP1 POP DUP1 ISZERO PUSH2 0x25E JUMPI PUSH1 0x40 MLOAD PUSH4 0x40A40E9D PUSH1 0xE0 SHL DUP2 MSTORE PUSH1 0x4 DUP2 ADD DUP8 SWAP1 MSTORE PUSH1 0x1 PUSH1 0x1 PUSH1 0xA0 SHL SUB DUP5 DUP2 AND PUSH1 0x24 DUP4 ADD DUP2 SWAP1 MSTORE PUSH1 0x44 DUP4 ADD MSTORE CALLER PUSH1 0x64 DUP4 ADD DUP2 SWAP1 MSTORE PUSH2 0xFFFF DUP9 AND PUSH1 0x84 DUP5 ADD MSTORE PUSH1 0xA4 DUP4 ADD DUP6 SWAP1 MSTORE PUSH1 0xC4 DUP4 ADD MSTORE DUP12 AND SWAP1 PUSH4 0x40A40E9D SWAP1 PUSH1 0xE4 ADD PUSH1 0x0 PUSH1 0x40 MLOAD DUP1 DUP4 SUB DUP2 PUSH1 0x0 DUP8 DUP1 EXTCODESIZE ISZERO DUP1 ISZERO PUSH2 0x241 JUMPI PUSH1 0x0 DUP1 REVERT JUMPDEST POP GAS CALL ISZERO DUP1 ISZERO PUSH2 0x255 JUMPI RETURNDATASIZE PUSH1 0x0 DUP1 RETURNDATACOPY RETURNDATASIZE PUSH1 0x0 REVERT JUMPDEST POP POP POP POP PUSH2 0x2DF JUMP JUMPDEST PUSH1 0x40 MLOAD PUSH4 0x8B66743 PUSH1 0xE1 SHL DUP2 MSTORE PUSH1 0x4 DUP2 ADD DUP8 SWAP1 MSTORE PUSH1 0x1 PUSH1 0x1 PUSH1 0xA0 SHL SUB DUP5 DUP2 AND PUSH1 0x24 DUP4 ADD DUP2 SWAP1 MSTORE PUSH1 0x44 DUP4 ADD MSTORE PUSH2 0xFFFF DUP8 AND PUSH1 0x64 DUP4 ADD MSTORE PUSH1 0x84 DUP3 ADD DUP5 SWAP1 MSTORE CALLER PUSH1 0xA4 DUP4 ADD MSTORE DUP12 AND SWAP1 PUSH4 0x116CCE86 SWAP1 PUSH1 0xC4 ADD PUSH1 0x0 PUSH1 0x40 MLOAD DUP1 DUP4 SUB DUP2 PUSH1 0x0 DUP8 DUP1 EXTCODESIZE ISZERO DUP1 ISZERO PUSH2 0x2C6 JUMPI PUSH1 0x0 DUP1 REVERT JUMPDEST POP GAS CALL ISZERO DUP1 ISZERO PUSH2 0x2DA JUMPI RETURNDATASIZE PUSH1 0x0 DUP1 RETURNDATACOPY RETURNDATASIZE PUSH1 0x0 REVERT JUMPDEST POP POP POP POP JUMPDEST PUSH1 0x40 DUP1 MLOAD PUSH1 0x1 PUSH1 0x1 PUSH1 0xA0 SHL SUB DUP7 DUP2 AND DUP3 MSTORE PUSH1 0x20 DUP3 ADD DUP6 SWAP1 MSTORE PUSH2 0xFFFF DUP9 AND SWAP3 SWAP1 DUP7 AND SWAP2 DUP10 SWAP2 PUSH31 0x60EFD136254CE44BC32BB474AA1526E3A1AC84C0D4473C0B3FB4407C5B747A SWAP2 ADD PUSH1 0x40 MLOAD DUP1 SWAP2 SUB SWAP1 LOG4 POP POP POP POP POP POP POP POP POP POP JUMP JUMPDEST PUSH1 0x0 DUP4 SELFBALANCE LT ISZERO PUSH2 0x390 JUMPI PUSH1 0x40 MLOAD PUSH3 0x461BCD PUSH1 0xE5 SHL DUP2 MSTORE PUSH1 0x20 PUSH1 0x4 DUP3 ADD MSTORE PUSH1 0x1D PUSH1 0x24 DUP3 ADD MSTORE PUSH32 0x437265617465323A20696E73756666696369656E742062616C616E6365000000 PUSH1 0x44 DUP3 ADD MSTORE PUSH1 0x64 ADD JUMPDEST PUSH1 0x40 MLOAD DUP1 SWAP2 SUB SWAP1 REVERT JUMPDEST DUP2 MLOAD PUSH1 0x0 SUB PUSH2 0x3E1 JUMPI PUSH1 0x40 MLOAD PUSH3 0x461BCD PUSH1 0xE5 SHL DUP2 MSTORE PUSH1 0x20 PUSH1 0x4 DUP3 ADD DUP2 SWAP1 MSTORE PUSH1 0x24 DUP3 ADD MSTORE PUSH32 0x437265617465323A2062797465636F6465206C656E677468206973207A65726F PUSH1 0x44 DUP3 ADD MSTORE PUSH1 0x64 ADD PUSH2 0x387 JUMP JUMPDEST DUP3 DUP3 MLOAD PUSH1 0x20 DUP5 ADD DUP7 CREATE2 SWAP1 POP PUSH1 0x1 PUSH1 0x1 PUSH1 0xA0 SHL SUB DUP2 AND PUSH2 0x43E JUMPI PUSH1 0x40 MLOAD PUSH3 0x461BCD PUSH1 0xE5 SHL DUP2 MSTORE PUSH1 0x20 PUSH1 0x4 DUP3 ADD MSTORE PUSH1 0x19 PUSH1 0x24 DUP3 ADD MSTORE PUSH25 0x437265617465323A204661696C6564206F6E206465706C6F79 PUSH1 0x38 SHL PUSH1 0x44 DUP3 ADD MSTORE PUSH1 0x64 ADD PUSH2 0x387 JUMP JUMPDEST SWAP4 SWAP3 POP POP POP JUMP JUMPDEST PUSH1 0x1 PUSH1 0x1 PUSH1 0xA0 SHL SUB DUP2 AND DUP2 EQ PUSH2 0x45A JUMPI PUSH1 0x0 DUP1 REVERT JUMPDEST POP JUMP JUMPDEST PUSH4 0x4E487B71 PUSH1 0xE0 SHL PUSH1 0x0 MSTORE PUSH1 0x41 PUSH1 0x4 MSTORE PUSH1 0x24 PUSH1 0x0 REVERT JUMPDEST PUSH1 0x40 MLOAD PUSH2 0x100 DUP2 ADD PUSH8 0xFFFFFFFFFFFFFFFF DUP2 GT DUP3 DUP3 LT OR ISZERO PUSH2 0x497 JUMPI PUSH2 0x497 PUSH2 0x45D JUMP JUMPDEST PUSH1 0x40 MSTORE SWAP1 JUMP JUMPDEST PUSH1 0x40 MLOAD PUSH1 0x1F DUP3 ADD PUSH1 0x1F NOT AND DUP2 ADD PUSH8 0xFFFFFFFFFFFFFFFF DUP2 GT DUP3 DUP3 LT OR ISZERO PUSH2 0x4C6 JUMPI PUSH2 0x4C6 PUSH2 0x45D JUMP JUMPDEST PUSH1 0x40 MSTORE SWAP2 SWAP1 POP JUMP JUMPDEST PUSH1 0x0 PUSH8 0xFFFFFFFFFFFFFFFF DUP3 GT ISZERO PUSH2 0x4E8 JUMPI PUSH2 0x4E8 PUSH2 0x45D JUMP JUMPDEST POP PUSH1 0x1F ADD PUSH1 0x1F NOT AND PUSH1 0x20 ADD SWAP1 JUMP JUMPDEST PUSH1 0x0 DUP3 PUSH1 0x1F DUP4 ADD SLT PUSH2 0x507 JUMPI PUSH1 0x0 DUP1 REVERT JUMPDEST DUP2 CALLDATALOAD PUSH2 0x51A PUSH2 0x515 DUP3 PUSH2 0x4CE JUMP JUMPDEST PUSH2 0x49D JUMP JUMPDEST DUP2 DUP2 MSTORE DUP5 PUSH1 0x20 DUP4 DUP7 ADD ADD GT ISZERO PUSH2 0x52F JUMPI PUSH1 0x0 DUP1 REVERT JUMPDEST DUP2 PUSH1 0x20 DUP6 ADD PUSH1 0x20 DUP4 ADD CALLDATACOPY PUSH1 0x0 SWAP2 DUP2 ADD PUSH1 0x20 ADD SWAP2 SWAP1 SWAP2 MSTORE SWAP4 SWAP3 POP POP POP JUMP JUMPDEST PUSH2 0xFFFF DUP2 AND DUP2 EQ PUSH2 0x45A JUMPI PUSH1 0x0 DUP1 REVERT JUMPDEST PUSH1 0x0 DUP1 PUSH1 0x0 DUP1 PUSH1 0x0 DUP1 PUSH1 0xC0 DUP8 DUP10 SUB SLT ISZERO PUSH2 0x575 JUMPI PUSH1 0x0 DUP1 REVERT JUMPDEST DUP7 CALLDATALOAD PUSH2 0x580 DUP2 PUSH2 0x445 JUMP JUMPDEST SWAP6 POP PUSH1 0x20 DUP8 ADD CALLDATALOAD PUSH8 0xFFFFFFFFFFFFFFFF DUP1 DUP3 GT ISZERO PUSH2 0x59D JUMPI PUSH1 0x0 DUP1 REVERT JUMPDEST PUSH2 0x5A9 DUP11 DUP4 DUP12 ADD PUSH2 0x4F6 JUMP JUMPDEST SWAP7 POP PUSH1 0x40 DUP10 ADD CALLDATALOAD SWAP2 POP DUP1 DUP3 GT ISZERO PUSH2 0x5BF JUMPI PUSH1 0x0 DUP1 REVERT JUMPDEST POP PUSH2 0x5CC DUP10 DUP3 DUP11 ADD PUSH2 0x4F6 JUMP JUMPDEST SWAP5 POP POP PUSH1 0x60 DUP8 ADD CALLDATALOAD SWAP3 POP PUSH1 0x80 DUP8 ADD CALLDATALOAD SWAP2 POP PUSH1 0xA0 DUP8 ADD CALLDATALOAD PUSH2 0x5EB DUP2 PUSH2 0x54C JUMP JUMPDEST DUP1 SWAP2 POP POP SWAP3 SWAP6 POP SWAP3 SWAP6 POP SWAP3 SWAP6 JUMP JUMPDEST PUSH1 0x0 JUMPDEST DUP4 DUP2 LT ISZERO PUSH2 0x614 JUMPI DUP2 DUP2 ADD MLOAD DUP4 DUP3 ADD MSTORE PUSH1 0x20 ADD PUSH2 0x5FC JUMP JUMPDEST POP POP PUSH1 0x0 SWAP2 ADD MSTORE JUMP JUMPDEST PUSH1 0x0 DUP4 MLOAD PUSH2 0x62F DUP2 DUP5 PUSH1 0x20 DUP9 ADD PUSH2 0x5F9 JUMP JUMPDEST SWAP2 SWAP1 SWAP2 ADD SWAP2 DUP3 MSTORE POP PUSH1 0x20 ADD SWAP2 SWAP1 POP JUMP JUMPDEST PUSH1 0x0 DUP4 MLOAD PUSH2 0x651 DUP2 DUP5 PUSH1 0x20 DUP9 ADD PUSH2 0x5F9 JUMP JUMPDEST DUP4 MLOAD SWAP1 DUP4 ADD SWAP1 PUSH2 0x665 DUP2 DUP4 PUSH1 0x20 DUP9 ADD PUSH2 0x5F9 JUMP JUMPDEST ADD SWAP5 SWAP4 POP POP POP POP JUMP JUMPDEST DUP1 MLOAD PUSH2 0x679 DUP2 PUSH2 0x445 JUMP JUMPDEST SWAP2 SWAP1 POP JUMP JUMPDEST DUP1 MLOAD PUSH2 0x679 DUP2 PUSH2 0x54C JUMP JUMPDEST PUSH1 0x0 DUP3 PUSH1 0x1F DUP4 ADD SLT PUSH2 0x69A JUMPI PUSH1 0x0 DUP1 REVERT JUMPDEST DUP2 MLOAD PUSH2 0x6A8 PUSH2 0x515 DUP3 PUSH2 0x4CE JUMP JUMPDEST DUP2 DUP2 MSTORE DUP5 PUSH1 0x20 DUP4 DUP7 ADD ADD GT ISZERO PUSH2 0x6BD JUMPI PUSH1 0x0 DUP1 REVERT JUMPDEST PUSH2 0x6CE DUP3 PUSH1 0x20 DUP4 ADD PUSH1 0x20 DUP8 ADD PUSH2 0x5F9 JUMP JUMPDEST SWAP5 SWAP4 POP POP POP POP JUMP JUMPDEST PUSH1 0x0 DUP1 PUSH1 0x40 DUP4 DUP6 SUB SLT ISZERO PUSH2 0x6E9 JUMPI PUSH1 0x0 DUP1 REVERT JUMPDEST DUP3 MLOAD DUP1 ISZERO ISZERO DUP2 EQ PUSH2 0x6F9 JUMPI PUSH1 0x0 DUP1 REVERT JUMPDEST PUSH1 0x20 DUP5 ADD MLOAD SWAP1 SWAP3 POP PUSH8 0xFFFFFFFFFFFFFFFF DUP1 DUP3 GT ISZERO PUSH2 0x717 JUMPI PUSH1 0x0 DUP1 REVERT JUMPDEST SWAP1 DUP5 ADD SWAP1 PUSH2 0x100 DUP3 DUP8 SUB SLT ISZERO PUSH2 0x72C JUMPI PUSH1 0x0 DUP1 REVERT JUMPDEST PUSH2 0x734 PUSH2 0x473 JUMP JUMPDEST DUP3 MLOAD DUP2 MSTORE PUSH2 0x744 PUSH1 0x20 DUP5 ADD PUSH2 0x66E JUMP JUMPDEST PUSH1 0x20 DUP3 ADD MSTORE PUSH2 0x755 PUSH1 0x40 DUP5 ADD PUSH2 0x66E JUMP JUMPDEST PUSH1 0x40 DUP3 ADD MSTORE PUSH2 0x766 PUSH1 0x60 DUP5 ADD PUSH2 0x66E JUMP JUMPDEST PUSH1 0x60 DUP3 ADD MSTORE PUSH2 0x777 PUSH1 0x80 DUP5 ADD PUSH2 0x67E JUMP JUMPDEST PUSH1 0x80 DUP3 ADD MSTORE PUSH1 0xA0 DUP4 ADD MLOAD PUSH1 0xA0 DUP3 ADD MSTORE PUSH1 0xC0 DUP4 ADD MLOAD DUP3 DUP2 GT ISZERO PUSH2 0x798 JUMPI PUSH1 0x0 DUP1 REVERT JUMPDEST PUSH2 0x7A4 DUP9 DUP3 DUP7 ADD PUSH2 0x689 JUMP JUMPDEST PUSH1 0xC0 DUP4 ADD MSTORE POP PUSH1 0xE0 DUP4 ADD MLOAD PUSH1 0xE0 DUP3 ADD MSTORE DUP1 SWAP4 POP POP POP POP SWAP3 POP SWAP3 SWAP1 POP JUMP INVALID LOG2 PUSH5 0x6970667358 0x22 SLT KECCAK256 0xEF DUP3 NUMBER 0x22 GASPRICE 0xBC PUSH29 0xA6F3C99BF694F916106CCC62F144883548959769D30BC1F2AD64736F6C PUSH4 0x43000811 STOP CALLER "},"methodIdentifiers":{"deployContract(address,bytes,bytes,bytes32,bytes32,uint16)":"3aa3df6c"}}}}}