{"contracts/ContractRegistry.sol":{"ContractRegistry":{"abi":[{"inputs":[{"internalType":"contract ICodeTrust","name":"initCodeTrust","type":"address"},{"internalType":"bytes32","name":"name","type":"bytes32"},{"internalType":"uint16","name":"version","type":"uint16"},{"internalType":"bytes32","name":"logicCodeHash","type":"bytes32"}],"stateMutability":"nonpayable","type":"constructor"},{"anonymous":false,"inputs":[{"indexed":true,"internalType":"bytes32","name":"name","type":"bytes32"},{"indexed":true,"internalType":"address","name":"oldAdmin","type":"address"},{"indexed":true,"internalType":"address","name":"newAdmin","type":"address"}],"name":"AdminChanged","type":"event"},{"anonymous":false,"inputs":[{"indexed":true,"internalType":"bytes32","name":"name","type":"bytes32"},{"indexed":true,"internalType":"bytes","name":"oldExtraData","type":"bytes"},{"indexed":true,"internalType":"bytes","name":"newExtraData","type":"bytes"}],"name":"ExtraDataUpdated","type":"event"},{"anonymous":false,"inputs":[{"indexed":true,"internalType":"bytes32","name":"name","type":"bytes32"},{"indexed":true,"internalType":"address","name":"proxy","type":"address"},{"indexed":false,"internalType":"address","name":"logic","type":"address"},{"indexed":true,"internalType":"uint16","name":"version","type":"uint16"},{"indexed":false,"internalType":"bytes32","name":"logicCodeHash","type":"bytes32"}],"name":"NewRecord","type":"event"},{"anonymous":false,"inputs":[{"indexed":true,"internalType":"address","name":"previousOwner","type":"address"},{"indexed":true,"internalType":"address","name":"newOwner","type":"address"}],"name":"OwnershipTransferred","type":"event"},{"inputs":[{"internalType":"bytes32","name":"name","type":"bytes32"},{"internalType":"address","name":"newAdmin","type":"address"}],"name":"changeRegisteredAdmin","outputs":[],"stateMutability":"nonpayable","type":"function"},{"inputs":[{"internalType":"bytes32","name":"name","type":"bytes32"},{"internalType":"bytes","name":"newExtraData","type":"bytes"}],"name":"editExtraData","outputs":[],"stateMutability":"nonpayable","type":"function"},{"inputs":[],"name":"getMyRecords","outputs":[{"internalType":"bytes32[]","name":"latestRecords","type":"bytes32[]"}],"stateMutability":"view","type":"function"},{"inputs":[{"internalType":"bytes32","name":"name","type":"bytes32"},{"internalType":"address","name":"admin","type":"address"},{"internalType":"uint16","name":"version","type":"uint16"}],"name":"getRecord","outputs":[{"internalType":"bool","name":"found","type":"bool"},{"components":[{"internalType":"bytes32","name":"name","type":"bytes32"},{"internalType":"address","name":"proxy","type":"address"},{"internalType":"address","name":"logic","type":"address"},{"internalType":"address","name":"admin","type":"address"},{"internalType":"uint16","name":"version","type":"uint16"},{"internalType":"bytes32","name":"logicCodeHash","type":"bytes32"},{"internalType":"bytes","name":"extraData","type":"bytes"},{"internalType":"uint256","name":"timestamp","type":"uint256"}],"internalType":"struct ContractRecord","name":"record","type":"tuple"}],"stateMutability":"view","type":"function"},{"inputs":[],"name":"getSystemRecords","outputs":[{"internalType":"bytes32[]","name":"latestRecords","type":"bytes32[]"}],"stateMutability":"view","type":"function"},{"inputs":[],"name":"owner","outputs":[{"internalType":"address","name":"","type":"address"}],"stateMutability":"view","type":"function"},{"inputs":[{"internalType":"bytes32","name":"name","type":"bytes32"},{"internalType":"address","name":"proxy","type":"address"},{"internalType":"address","name":"logic","type":"address"},{"internalType":"uint16","name":"version","type":"uint16"},{"internalType":"bytes32","name":"logicCodeHash","type":"bytes32"},{"internalType":"address","name":"admin","type":"address"}],"name":"register","outputs":[],"stateMutability":"nonpayable","type":"function"},{"inputs":[],"name":"renounceOwnership","outputs":[],"stateMutability":"nonpayable","type":"function"},{"inputs":[{"internalType":"address","name":"newOwner","type":"address"}],"name":"transferOwnership","outputs":[],"stateMutability":"nonpayable","type":"function"},{"inputs":[{"internalType":"bytes32","name":"name","type":"bytes32"},{"internalType":"address","name":"proxy","type":"address"},{"internalType":"address","name":"logic","type":"address"},{"internalType":"address","name":"newAdmin","type":"address"},{"internalType":"uint16","name":"version","type":"uint16"},{"internalType":"bytes32","name":"logicCodeHash","type":"bytes32"},{"internalType":"address","name":"admin","type":"address"}],"name":"update","outputs":[],"stateMutability":"nonpayable","type":"function"}],"evm":{"bytecode":{"linkReferences":{},"object":"60806040523480156200001157600080fd5b5060405162001de938038062001de9833981016040819052620000349162000460565b6200003f3362000091565b600180546001600160a01b0319166001600160a01b0386161790558262000077576f436f6e7472616374526567697374727960801b92505b62000087833080858533620000e1565b50505050620004bf565b600080546001600160a01b038381166001600160a01b0319831681178455604051919092169283917f8be0079c531659141344cd1fd0a4f28419497f9722a3daafe3b4186f6b6457e09190a35050565b6001600160a01b0384166200013d5760405162461bcd60e51b815260206004820152601760248201527f4c6f6769632061646472657373206973206e656464656400000000000000000060448201526064015b60405180910390fd5b6001600160a01b03851662000150578394505b61270f61ffff84161115620001a85760405162461bcd60e51b815260206004820152601f60248201527f56657273696f6e206d757374206265206c6f776572207468616e203939393900604482015260640162000134565b6001600160a01b0381166000908152600360209081526040808320600283528184208a855283528184208184528285205461ffff16855290925290912060068101541580156200020557506003810154600160a01b900461ffff16155b620002535760405162461bcd60e51b815260206004820152601e60248201527f416c726561647920726567697374657265642c20757365207570646174650000604482015260640162000134565b60026000846001600160a01b03166001600160a01b03168152602001908152602001600020600089815260200190815260200160002060008661ffff1661ffff1681526020019081526020016000209050878160000181905550868160010160006101000a8154816001600160a01b0302191690836001600160a01b03160217905550858160020160006101000a8154816001600160a01b0302191690836001600160a01b03160217905550828160030160006101000a8154816001600160a01b0302191690836001600160a01b03160217905550848160030160146101000a81548161ffff021916908361ffff16021790555083816004018190555042816006018190555081600201548260010160008a815260200190815260200160002081905550878260020181905550848260000160008a815260200190815260200160002060006101000a81548161ffff021916908361ffff1602179055508060030160149054906101000a900461ffff1661ffff168160010160009054906101000a90046001600160a01b03166001600160a01b031682600001547fb8064287be8e96c6334f8cff70015f26aa567834bc9455bdc54f6d163a1013768460020160009054906101000a90046001600160a01b031685600401546040516200044e9291906001600160a01b03929092168252602082015260400190565b60405180910390a45050505050505050565b600080600080608085870312156200047757600080fd5b84516001600160a01b03811681146200048f57600080fd5b60208601516040870151919550935061ffff81168114620004af57600080fd5b6060959095015193969295505050565b61191a80620004cf6000396000f3fe608060405234801561001057600080fd5b506004361061009e5760003560e01c80639ecbb057116100665780639ecbb05714610106578063ccd92b4814610119578063e76637ce1461013a578063f2fde38b1461014f578063ff69bc331461016257600080fd5b8063116cce86146100a357806340a40e9d146100b8578063715018a6146100cb578063842f95f0146100d35780638da5cb5b146100e6575b600080fd5b6100b66100b1366004611260565b61016a565b005b6100b66100c63660046112c6565b61023c565b6100b6610307565b6100b66100e136600461133e565b61031b565b6000546040516001600160a01b0390911681526020015b60405180910390f35b6100b6610114366004611380565b61052f565b61012c61012736600461143b565b610618565b6040516100fd9291906114c7565b61014261063a565b6040516100fd9190611565565b6100b661015d3660046115a9565b61064f565b6101426106c8565b6001600160a01b03811661017b5750335b6001600160a01b03811633148061020157506001546001600160a01b0316634f940270338360006040518463ffffffff1660e01b81526004016101c0939291906115cb565b602060405180830381865afa1580156101dd573d6000803e3d6000fd5b505050506040513d601f19601f8201168201806040525081019061020191906115ef565b6102265760405162461bcd60e51b815260040161021d90611611565b60405180910390fd5b6102348686868686866106df565b505050505050565b6001600160a01b03811661024d5750335b6001600160a01b0381163314806102d357506001546001600160a01b0316634f940270338360006040518463ffffffff1660e01b8152600401610292939291906115cb565b602060405180830381865afa1580156102af573d6000803e3d6000fd5b505050506040513d601f19601f820116820180604052508101906102d391906115ef565b6102ef5760405162461bcd60e51b815260040161021d90611611565b6102fe87878787878787610a4b565b50505050505050565b61030f610d57565b6103196000610db1565b565b336001600160a01b038216158015906103465750806001600160a01b0316826001600160a01b031614155b6103865760405162461bcd60e51b815260206004820152601160248201527024b73b30b634b2103732bb9030b236b4b760791b604482015260640161021d565b6001600160a01b03811660009081526003602090815260408083206002835281842087855283528184208184528285205461ffff168552909252822060068101549192909190036104195760405162461bcd60e51b815260206004820152601e60248201527f436f6e7472616374207265636f7264206e6f7420726567697374657265640000604482015260640161021d565b8054600182015460028301546003840154600485015461045494936001600160a01b03908116931691600160a01b900461ffff1690896106df565b61045e8286610e01565b6001600160a01b038316600090815260026020818152604080842089855282528084208683528185205461ffff16855290915282208281556001810180546001600160a01b031990811690915591810180549092169091556003810180546001600160b01b031916905560048101829055906104dd600583018261119c565b60068201600090555050836001600160a01b0316836001600160a01b0316867f6467ef979e83be7da4c6bdb4513ae6309dbf5cd9ca8f5474d2f77ef171f5b90360405160405180910390a45050505050565b338261054d5760405162461bcd60e51b815260040161021d90611648565b6001600160a01b03811660009081526003602090815260408083206002835281842087855283528184208184528285205461ffff168552909252822060068101549192909190036105b05760405162461bcd60e51b815260040161021d90611674565b836040516105be91906116ab565b6040518091039020816005016040516105d79190611701565b604051908190038120835490917f0c1944b28b15a207c930873413a1e86d4da29dc4b5b5d556f7083e6093b10bc590600090a46005810161023485826117bd565b60006106226111d6565b61062d858585610ecf565b915091505b935093915050565b606061064a33611055565b611055565b905090565b610657610d57565b6001600160a01b0381166106bc5760405162461bcd60e51b815260206004820152602660248201527f4f776e61626c653a206e6577206f776e657220697320746865207a65726f206160448201526564647265737360d01b606482015260840161021d565b6106c581610db1565b50565b606061064a6106456000546001600160a01b031690565b6001600160a01b03841661072f5760405162461bcd60e51b8152602060048201526017602482015276131bd9da58c81859191c995cdcc81a5cc81b9959191959604a1b604482015260640161021d565b6001600160a01b038516610741578394505b61270f61ffff841611156107975760405162461bcd60e51b815260206004820152601f60248201527f56657273696f6e206d757374206265206c6f776572207468616e203939393900604482015260640161021d565b6001600160a01b0381166000908152600360209081526040808320600283528184208a855283528184208184528285205461ffff16855290925290912060068101541580156107f357506003810154600160a01b900461ffff16155b61083f5760405162461bcd60e51b815260206004820152601e60248201527f416c726561647920726567697374657265642c20757365207570646174650000604482015260640161021d565b60026000846001600160a01b03166001600160a01b03168152602001908152602001600020600089815260200190815260200160002060008661ffff1661ffff1681526020019081526020016000209050878160000181905550868160010160006101000a8154816001600160a01b0302191690836001600160a01b03160217905550858160020160006101000a8154816001600160a01b0302191690836001600160a01b03160217905550828160030160006101000a8154816001600160a01b0302191690836001600160a01b03160217905550848160030160146101000a81548161ffff021916908361ffff16021790555083816004018190555042816006018190555081600201548260010160008a815260200190815260200160002081905550878260020181905550848260000160008a815260200190815260200160002060006101000a81548161ffff021916908361ffff1602179055508060030160149054906101000a900461ffff1661ffff168160010160009054906101000a90046001600160a01b03166001600160a01b031682600001547fb8064287be8e96c6334f8cff70015f26aa567834bc9455bdc54f6d163a1013768460020160009054906101000a90046001600160a01b03168560040154604051610a399291906001600160a01b03929092168252602082015260400190565b60405180910390a45050505050505050565b86610a685760405162461bcd60e51b815260040161021d90611648565b6001600160a01b0381166000908152600360209081526040808320600283528184208b855283528184208184528285205461ffff16855290925282206006810154919290919003610acb5760405162461bcd60e51b815260040161021d90611674565b8461ffff16600003610af5576003810154610af290600160a01b900461ffff166001611893565b94505b600381015461ffff808716600160a01b9092041610610b4c5760405162461bcd60e51b815260206004820152601360248201527224b73b30b634b2103732bb903b32b939b4b7b760691b604482015260640161021d565b6001600160a01b0380841660009081526002602090815260408083208d8452825280832061ffff8a168452909152902090891615610ba6576001810180546001600160a01b0319166001600160a01b038b16179055610bcd565b60018083015490820180546001600160a01b0319166001600160a01b039092169190911790555b6001600160a01b03881615610bfe576002810180546001600160a01b0319166001600160a01b038a16179055610c25565b60028083015490820180546001600160a01b0319166001600160a01b039092169190911790555b6001600160a01b03871615610c56576003810180546001600160a01b0319166001600160a01b038916179055610c7d565b60038083015490820180546001600160a01b0319166001600160a01b039092169190911790555b8415610c8f5760048101859055610c9a565b600480830154908201555b8154815560038101805461ffff60a01b1916600160a01b61ffff89811682029290921780845542600686015560008e81526020888152604091829020805493859004861661ffff19909416939093179092559354600186015486546002880154600489015488516001600160a01b0392831681529586015294909204909416949290931692917fb8064287be8e96c6334f8cff70015f26aa567834bc9455bdc54f6d163a101376910160405180910390a450505050505050505050565b6000546001600160a01b031633146103195760405162461bcd60e51b815260206004820181905260248201527f4f776e61626c653a2063616c6c6572206973206e6f7420746865206f776e6572604482015260640161021d565b600080546001600160a01b038381166001600160a01b0319831681178455604051919092169283917f8be0079c531659141344cd1fd0a4f28419497f9722a3daafe3b4186f6b6457e09190a35050565b60028201546000818152600184016020526040902054610e37575060009081526001820160205260408120819055600290910155565b60008181526001840160205260409020548214610eb15780610e9b5760405162461bcd60e51b815260206004820152601f60248201527f5265636f72644e616d65206e6f7420666f756e6420666f722073656e64657200604482015260640161021d565b6000908152600183016020526040902054610e37565b6000828152600184016020526040808220548383529120555b505050565b6000610ed96111d6565b61270f61ffff84161115610f12576001600160a01b038416600090815260036020908152604080832088845290915290205461ffff1692505b6001600160a01b0380851660009081526002602081815260408084208a8552825280842061ffff808a168652908352938190208151610100810183528154815260018201548716938101939093529283015485169082015260038201549384166060820152600160a01b9093049091166080830152600481015460a083015260058101805460c084019190610fa6906116c7565b80601f0160208091040260200160405190810160405280929190818152602001828054610fd2906116c7565b801561101f5780601f10610ff45761010080835404028352916020019161101f565b820191906000526020600020905b81548152906001019060200180831161100257829003601f168201915b5050505050815260200160068201548152505090508060e001516000036110495760009150610632565b60019150935093915050565b6001600160a01b0381166000908152600360205260408120600201546060915b8115801590611085575061271081105b156110c85780611094816118b5565b6001600160a01b03861660009081526003602090815260408083209683526001909601905293909320549291506110759050565b6001600160a01b03841660009081526003602052604081206002015492508167ffffffffffffffff8111156110ff576110ff61136a565b604051908082528060200260200182016040528015611128578160200160208202803683370190505b50905060005b828110156111935783828281518110611149576111496118ce565b6020908102919091018101919091526001600160a01b038716600090815260038252604080822096825260019096019091529390932054928061118b816118b5565b91505061112e565b50949350505050565b5080546111a8906116c7565b6000825580601f106111b8575050565b601f0160209004906000526020600020908101906106c59190611219565b604080516101008101825260008082526020820181905291810182905260608082018390526080820183905260a0820183905260c082015260e081019190915290565b5b8082111561122e576000815560010161121a565b5090565b80356001600160a01b038116811461124957600080fd5b919050565b803561ffff8116811461124957600080fd5b60008060008060008060c0878903121561127957600080fd5b8635955061128960208801611232565b945061129760408801611232565b93506112a56060880161124e565b9250608087013591506112ba60a08801611232565b90509295509295509295565b600080600080600080600060e0888a0312156112e157600080fd5b873596506112f160208901611232565b95506112ff60408901611232565b945061130d60608901611232565b935061131b6080890161124e565b925060a0880135915061133060c08901611232565b905092959891949750929550565b6000806040838503121561135157600080fd5b8235915061136160208401611232565b90509250929050565b634e487b7160e01b600052604160045260246000fd5b6000806040838503121561139357600080fd5b82359150602083013567ffffffffffffffff808211156113b257600080fd5b818501915085601f8301126113c657600080fd5b8135818111156113d8576113d861136a565b604051601f8201601f19908116603f011681019083821181831017156114005761140061136a565b8160405282815288602084870101111561141957600080fd5b8260208601602083013760006020848301015280955050505050509250929050565b60008060006060848603121561145057600080fd5b8335925061146060208501611232565b915061146e6040850161124e565b90509250925092565b60005b8381101561149257818101518382015260200161147a565b50506000910152565b600081518084526114b3816020860160208601611477565b601f01601f19169290920160200192915050565b8215158152604060208083018290528351828401528301516001600160a01b039081166060808501919091529184015116608083015282015160009061151860a08401826001600160a01b03169052565b50608083015161ffff811660c08401525060a083015160e083015260c08301516101008084015261154d61014084018261149b565b905060e0840151610120840152809150509392505050565b6020808252825182820181905260009190848201906040850190845b8181101561159d57835183529284019291840191600101611581565b50909695505050505050565b6000602082840312156115bb57600080fd5b6115c482611232565b9392505050565b6001600160a01b039384168152919092166020820152604081019190915260600190565b60006020828403121561160157600080fd5b815180151581146115c457600080fd5b6020808252601b908201527f43616c6c2066726f6d20756e7472757374656420616464726573730000000000604082015260600190565b602080825260129082015271149958dbdc99081b985b59481b995959195960721b604082015260600190565b6020808252601c908201527f4e6f7420726567697374657265642c2075736520726567697374657200000000604082015260600190565b600082516116bd818460208701611477565b9190910192915050565b600181811c908216806116db57607f821691505b6020821081036116fb57634e487b7160e01b600052602260045260246000fd5b50919050565b600080835461170f816116c7565b60018281168015611727576001811461173c5761176b565b60ff198416875282151583028701945061176b565b8760005260208060002060005b858110156117625781548a820152908401908201611749565b50505082870194505b50929695505050505050565b601f821115610eca57600081815260208120601f850160051c8101602086101561179e5750805b601f850160051c820191505b81811015610234578281556001016117aa565b815167ffffffffffffffff8111156117d7576117d761136a565b6117eb816117e584546116c7565b84611777565b602080601f83116001811461182057600084156118085750858301515b600019600386901b1c1916600185901b178555610234565b600085815260208120601f198616915b8281101561184f57888601518255948401946001909101908401611830565b508582101561186d5787850151600019600388901b60f8161c191681555b5050505050600190811b01905550565b634e487b7160e01b600052601160045260246000fd5b61ffff8181168382160190808211156118ae576118ae61187d565b5092915050565b6000600182016118c7576118c761187d565b5060010190565b634e487b7160e01b600052603260045260246000fdfea2646970667358221220af34c90bfab5a70e1eed8a80b187fe2cfa997bbfb501210589b0b5f28da2e48c64736f6c63430008110033","opcodes":"PUSH1 0x80 PUSH1 0x40 MSTORE CALLVALUE DUP1 ISZERO PUSH3 0x11 JUMPI PUSH1 0x0 DUP1 REVERT JUMPDEST POP PUSH1 0x40 MLOAD PUSH3 0x1DE9 CODESIZE SUB DUP1 PUSH3 0x1DE9 DUP4 CODECOPY DUP2 ADD PUSH1 0x40 DUP2 SWAP1 MSTORE PUSH3 0x34 SWAP2 PUSH3 0x460 JUMP JUMPDEST PUSH3 0x3F CALLER PUSH3 0x91 JUMP JUMPDEST PUSH1 0x1 DUP1 SLOAD PUSH1 0x1 PUSH1 0x1 PUSH1 0xA0 SHL SUB NOT AND PUSH1 0x1 PUSH1 0x1 PUSH1 0xA0 SHL SUB DUP7 AND OR SWAP1 SSTORE DUP3 PUSH3 0x77 JUMPI PUSH16 0x436F6E74726163745265676973747279 PUSH1 0x80 SHL SWAP3 POP JUMPDEST PUSH3 0x87 DUP4 ADDRESS DUP1 DUP6 DUP6 CALLER PUSH3 0xE1 JUMP JUMPDEST POP POP POP POP PUSH3 0x4BF JUMP JUMPDEST PUSH1 0x0 DUP1 SLOAD PUSH1 0x1 PUSH1 0x1 PUSH1 0xA0 SHL SUB DUP4 DUP2 AND PUSH1 0x1 PUSH1 0x1 PUSH1 0xA0 SHL SUB NOT DUP4 AND DUP2 OR DUP5 SSTORE PUSH1 0x40 MLOAD SWAP2 SWAP1 SWAP3 AND SWAP3 DUP4 SWAP2 PUSH32 0x8BE0079C531659141344CD1FD0A4F28419497F9722A3DAAFE3B4186F6B6457E0 SWAP2 SWAP1 LOG3 POP POP JUMP JUMPDEST PUSH1 0x1 PUSH1 0x1 PUSH1 0xA0 SHL SUB DUP5 AND PUSH3 0x13D JUMPI PUSH1 0x40 MLOAD PUSH3 0x461BCD PUSH1 0xE5 SHL DUP2 MSTORE PUSH1 0x20 PUSH1 0x4 DUP3 ADD MSTORE PUSH1 0x17 PUSH1 0x24 DUP3 ADD MSTORE PUSH32 0x4C6F6769632061646472657373206973206E6564646564000000000000000000 PUSH1 0x44 DUP3 ADD MSTORE PUSH1 0x64 ADD JUMPDEST PUSH1 0x40 MLOAD DUP1 SWAP2 SUB SWAP1 REVERT JUMPDEST PUSH1 0x1 PUSH1 0x1 PUSH1 0xA0 SHL SUB DUP6 AND PUSH3 0x150 JUMPI DUP4 SWAP5 POP JUMPDEST PUSH2 0x270F PUSH2 0xFFFF DUP5 AND GT ISZERO PUSH3 0x1A8 JUMPI PUSH1 0x40 MLOAD PUSH3 0x461BCD PUSH1 0xE5 SHL DUP2 MSTORE PUSH1 0x20 PUSH1 0x4 DUP3 ADD MSTORE PUSH1 0x1F PUSH1 0x24 DUP3 ADD MSTORE PUSH32 0x56657273696F6E206D757374206265206C6F776572207468616E203939393900 PUSH1 0x44 DUP3 ADD MSTORE PUSH1 0x64 ADD PUSH3 0x134 JUMP JUMPDEST PUSH1 0x1 PUSH1 0x1 PUSH1 0xA0 SHL SUB DUP2 AND PUSH1 0x0 SWAP1 DUP2 MSTORE PUSH1 0x3 PUSH1 0x20 SWAP1 DUP2 MSTORE PUSH1 0x40 DUP1 DUP4 KECCAK256 PUSH1 0x2 DUP4 MSTORE DUP2 DUP5 KECCAK256 DUP11 DUP6 MSTORE DUP4 MSTORE DUP2 DUP5 KECCAK256 DUP2 DUP5 MSTORE DUP3 DUP6 KECCAK256 SLOAD PUSH2 0xFFFF AND DUP6 MSTORE SWAP1 SWAP3 MSTORE SWAP1 SWAP2 KECCAK256 PUSH1 0x6 DUP2 ADD SLOAD ISZERO DUP1 ISZERO PUSH3 0x205 JUMPI POP PUSH1 0x3 DUP2 ADD SLOAD PUSH1 0x1 PUSH1 0xA0 SHL SWAP1 DIV PUSH2 0xFFFF AND ISZERO JUMPDEST PUSH3 0x253 JUMPI PUSH1 0x40 MLOAD PUSH3 0x461BCD PUSH1 0xE5 SHL DUP2 MSTORE PUSH1 0x20 PUSH1 0x4 DUP3 ADD MSTORE PUSH1 0x1E PUSH1 0x24 DUP3 ADD MSTORE PUSH32 0x416C726561647920726567697374657265642C20757365207570646174650000 PUSH1 0x44 DUP3 ADD MSTORE PUSH1 0x64 ADD PUSH3 0x134 JUMP JUMPDEST PUSH1 0x2 PUSH1 0x0 DUP5 PUSH1 0x1 PUSH1 0x1 PUSH1 0xA0 SHL SUB AND PUSH1 0x1 PUSH1 0x1 PUSH1 0xA0 SHL SUB AND DUP2 MSTORE PUSH1 0x20 ADD SWAP1 DUP2 MSTORE PUSH1 0x20 ADD PUSH1 0x0 KECCAK256 PUSH1 0x0 DUP10 DUP2 MSTORE PUSH1 0x20 ADD SWAP1 DUP2 MSTORE PUSH1 0x20 ADD PUSH1 0x0 KECCAK256 PUSH1 0x0 DUP7 PUSH2 0xFFFF AND PUSH2 0xFFFF AND DUP2 MSTORE PUSH1 0x20 ADD SWAP1 DUP2 MSTORE PUSH1 0x20 ADD PUSH1 0x0 KECCAK256 SWAP1 POP DUP8 DUP2 PUSH1 0x0 ADD DUP2 SWAP1 SSTORE POP DUP7 DUP2 PUSH1 0x1 ADD PUSH1 0x0 PUSH2 0x100 EXP DUP2 SLOAD DUP2 PUSH1 0x1 PUSH1 0x1 PUSH1 0xA0 SHL SUB MUL NOT AND SWAP1 DUP4 PUSH1 0x1 PUSH1 0x1 PUSH1 0xA0 SHL SUB AND MUL OR SWAP1 SSTORE POP DUP6 DUP2 PUSH1 0x2 ADD PUSH1 0x0 PUSH2 0x100 EXP DUP2 SLOAD DUP2 PUSH1 0x1 PUSH1 0x1 PUSH1 0xA0 SHL SUB MUL NOT AND SWAP1 DUP4 PUSH1 0x1 PUSH1 0x1 PUSH1 0xA0 SHL SUB AND MUL OR SWAP1 SSTORE POP DUP3 DUP2 PUSH1 0x3 ADD PUSH1 0x0 PUSH2 0x100 EXP DUP2 SLOAD DUP2 PUSH1 0x1 PUSH1 0x1 PUSH1 0xA0 SHL SUB MUL NOT AND SWAP1 DUP4 PUSH1 0x1 PUSH1 0x1 PUSH1 0xA0 SHL SUB AND MUL OR SWAP1 SSTORE POP DUP5 DUP2 PUSH1 0x3 ADD PUSH1 0x14 PUSH2 0x100 EXP DUP2 SLOAD DUP2 PUSH2 0xFFFF MUL NOT AND SWAP1 DUP4 PUSH2 0xFFFF AND MUL OR SWAP1 SSTORE POP DUP4 DUP2 PUSH1 0x4 ADD DUP2 SWAP1 SSTORE POP TIMESTAMP DUP2 PUSH1 0x6 ADD DUP2 SWAP1 SSTORE POP DUP2 PUSH1 0x2 ADD SLOAD DUP3 PUSH1 0x1 ADD PUSH1 0x0 DUP11 DUP2 MSTORE PUSH1 0x20 ADD SWAP1 DUP2 MSTORE PUSH1 0x20 ADD PUSH1 0x0 KECCAK256 DUP2 SWAP1 SSTORE POP DUP8 DUP3 PUSH1 0x2 ADD DUP2 SWAP1 SSTORE POP DUP5 DUP3 PUSH1 0x0 ADD PUSH1 0x0 DUP11 DUP2 MSTORE PUSH1 0x20 ADD SWAP1 DUP2 MSTORE PUSH1 0x20 ADD PUSH1 0x0 KECCAK256 PUSH1 0x0 PUSH2 0x100 EXP DUP2 SLOAD DUP2 PUSH2 0xFFFF MUL NOT AND SWAP1 DUP4 PUSH2 0xFFFF AND MUL OR SWAP1 SSTORE POP DUP1 PUSH1 0x3 ADD PUSH1 0x14 SWAP1 SLOAD SWAP1 PUSH2 0x100 EXP SWAP1 DIV PUSH2 0xFFFF AND PUSH2 0xFFFF AND DUP2 PUSH1 0x1 ADD PUSH1 0x0 SWAP1 SLOAD SWAP1 PUSH2 0x100 EXP SWAP1 DIV PUSH1 0x1 PUSH1 0x1 PUSH1 0xA0 SHL SUB AND PUSH1 0x1 PUSH1 0x1 PUSH1 0xA0 SHL SUB AND DUP3 PUSH1 0x0 ADD SLOAD PUSH32 0xB8064287BE8E96C6334F8CFF70015F26AA567834BC9455BDC54F6D163A101376 DUP5 PUSH1 0x2 ADD PUSH1 0x0 SWAP1 SLOAD SWAP1 PUSH2 0x100 EXP SWAP1 DIV PUSH1 0x1 PUSH1 0x1 PUSH1 0xA0 SHL SUB AND DUP6 PUSH1 0x4 ADD SLOAD PUSH1 0x40 MLOAD PUSH3 0x44E SWAP3 SWAP2 SWAP1 PUSH1 0x1 PUSH1 0x1 PUSH1 0xA0 SHL SUB SWAP3 SWAP1 SWAP3 AND DUP3 MSTORE PUSH1 0x20 DUP3 ADD MSTORE PUSH1 0x40 ADD SWAP1 JUMP JUMPDEST PUSH1 0x40 MLOAD DUP1 SWAP2 SUB SWAP1 LOG4 POP POP POP POP POP POP POP POP JUMP JUMPDEST PUSH1 0x0 DUP1 PUSH1 0x0 DUP1 PUSH1 0x80 DUP6 DUP8 SUB SLT ISZERO PUSH3 0x477 JUMPI PUSH1 0x0 DUP1 REVERT JUMPDEST DUP5 MLOAD PUSH1 0x1 PUSH1 0x1 PUSH1 0xA0 SHL SUB DUP2 AND DUP2 EQ PUSH3 0x48F JUMPI PUSH1 0x0 DUP1 REVERT JUMPDEST PUSH1 0x20 DUP7 ADD MLOAD PUSH1 0x40 DUP8 ADD MLOAD SWAP2 SWAP6 POP SWAP4 POP PUSH2 0xFFFF DUP2 AND DUP2 EQ PUSH3 0x4AF JUMPI PUSH1 0x0 DUP1 REVERT JUMPDEST PUSH1 0x60 SWAP6 SWAP1 SWAP6 ADD MLOAD SWAP4 SWAP7 SWAP3 SWAP6 POP POP POP JUMP JUMPDEST PUSH2 0x191A DUP1 PUSH3 0x4CF PUSH1 0x0 CODECOPY PUSH1 0x0 RETURN INVALID PUSH1 0x80 PUSH1 0x40 MSTORE CALLVALUE DUP1 ISZERO PUSH2 0x10 JUMPI PUSH1 0x0 DUP1 REVERT JUMPDEST POP PUSH1 0x4 CALLDATASIZE LT PUSH2 0x9E JUMPI PUSH1 0x0 CALLDATALOAD PUSH1 0xE0 SHR DUP1 PUSH4 0x9ECBB057 GT PUSH2 0x66 JUMPI DUP1 PUSH4 0x9ECBB057 EQ PUSH2 0x106 JUMPI DUP1 PUSH4 0xCCD92B48 EQ PUSH2 0x119 JUMPI DUP1 PUSH4 0xE76637CE EQ PUSH2 0x13A JUMPI DUP1 PUSH4 0xF2FDE38B EQ PUSH2 0x14F JUMPI DUP1 PUSH4 0xFF69BC33 EQ PUSH2 0x162 JUMPI PUSH1 0x0 DUP1 REVERT JUMPDEST DUP1 PUSH4 0x116CCE86 EQ PUSH2 0xA3 JUMPI DUP1 PUSH4 0x40A40E9D EQ PUSH2 0xB8 JUMPI DUP1 PUSH4 0x715018A6 EQ PUSH2 0xCB JUMPI DUP1 PUSH4 0x842F95F0 EQ PUSH2 0xD3 JUMPI DUP1 PUSH4 0x8DA5CB5B EQ PUSH2 0xE6 JUMPI JUMPDEST PUSH1 0x0 DUP1 REVERT JUMPDEST PUSH2 0xB6 PUSH2 0xB1 CALLDATASIZE PUSH1 0x4 PUSH2 0x1260 JUMP JUMPDEST PUSH2 0x16A JUMP JUMPDEST STOP JUMPDEST PUSH2 0xB6 PUSH2 0xC6 CALLDATASIZE PUSH1 0x4 PUSH2 0x12C6 JUMP JUMPDEST PUSH2 0x23C JUMP JUMPDEST PUSH2 0xB6 PUSH2 0x307 JUMP JUMPDEST PUSH2 0xB6 PUSH2 0xE1 CALLDATASIZE PUSH1 0x4 PUSH2 0x133E JUMP JUMPDEST PUSH2 0x31B JUMP JUMPDEST PUSH1 0x0 SLOAD PUSH1 0x40 MLOAD PUSH1 0x1 PUSH1 0x1 PUSH1 0xA0 SHL SUB SWAP1 SWAP2 AND DUP2 MSTORE PUSH1 0x20 ADD JUMPDEST PUSH1 0x40 MLOAD DUP1 SWAP2 SUB SWAP1 RETURN JUMPDEST PUSH2 0xB6 PUSH2 0x114 CALLDATASIZE PUSH1 0x4 PUSH2 0x1380 JUMP JUMPDEST PUSH2 0x52F JUMP JUMPDEST PUSH2 0x12C PUSH2 0x127 CALLDATASIZE PUSH1 0x4 PUSH2 0x143B JUMP JUMPDEST PUSH2 0x618 JUMP JUMPDEST PUSH1 0x40 MLOAD PUSH2 0xFD SWAP3 SWAP2 SWAP1 PUSH2 0x14C7 JUMP JUMPDEST PUSH2 0x142 PUSH2 0x63A JUMP JUMPDEST PUSH1 0x40 MLOAD PUSH2 0xFD SWAP2 SWAP1 PUSH2 0x1565 JUMP JUMPDEST PUSH2 0xB6 PUSH2 0x15D CALLDATASIZE PUSH1 0x4 PUSH2 0x15A9 JUMP JUMPDEST PUSH2 0x64F JUMP JUMPDEST PUSH2 0x142 PUSH2 0x6C8 JUMP JUMPDEST PUSH1 0x1 PUSH1 0x1 PUSH1 0xA0 SHL SUB DUP2 AND PUSH2 0x17B JUMPI POP CALLER JUMPDEST PUSH1 0x1 PUSH1 0x1 PUSH1 0xA0 SHL SUB DUP2 AND CALLER EQ DUP1 PUSH2 0x201 JUMPI POP PUSH1 0x1 SLOAD PUSH1 0x1 PUSH1 0x1 PUSH1 0xA0 SHL SUB AND PUSH4 0x4F940270 CALLER DUP4 PUSH1 0x0 PUSH1 0x40 MLOAD DUP5 PUSH4 0xFFFFFFFF AND PUSH1 0xE0 SHL DUP2 MSTORE PUSH1 0x4 ADD PUSH2 0x1C0 SWAP4 SWAP3 SWAP2 SWAP1 PUSH2 0x15CB JUMP JUMPDEST PUSH1 0x20 PUSH1 0x40 MLOAD DUP1 DUP4 SUB DUP2 DUP7 GAS STATICCALL ISZERO DUP1 ISZERO PUSH2 0x1DD JUMPI RETURNDATASIZE PUSH1 0x0 DUP1 RETURNDATACOPY RETURNDATASIZE PUSH1 0x0 REVERT JUMPDEST POP POP POP POP PUSH1 0x40 MLOAD RETURNDATASIZE PUSH1 0x1F NOT PUSH1 0x1F DUP3 ADD AND DUP3 ADD DUP1 PUSH1 0x40 MSTORE POP DUP2 ADD SWAP1 PUSH2 0x201 SWAP2 SWAP1 PUSH2 0x15EF JUMP JUMPDEST PUSH2 0x226 JUMPI PUSH1 0x40 MLOAD PUSH3 0x461BCD PUSH1 0xE5 SHL DUP2 MSTORE PUSH1 0x4 ADD PUSH2 0x21D SWAP1 PUSH2 0x1611 JUMP JUMPDEST PUSH1 0x40 MLOAD DUP1 SWAP2 SUB SWAP1 REVERT JUMPDEST PUSH2 0x234 DUP7 DUP7 DUP7 DUP7 DUP7 DUP7 PUSH2 0x6DF JUMP JUMPDEST POP POP POP POP POP POP JUMP JUMPDEST PUSH1 0x1 PUSH1 0x1 PUSH1 0xA0 SHL SUB DUP2 AND PUSH2 0x24D JUMPI POP CALLER JUMPDEST PUSH1 0x1 PUSH1 0x1 PUSH1 0xA0 SHL SUB DUP2 AND CALLER EQ DUP1 PUSH2 0x2D3 JUMPI POP PUSH1 0x1 SLOAD PUSH1 0x1 PUSH1 0x1 PUSH1 0xA0 SHL SUB AND PUSH4 0x4F940270 CALLER DUP4 PUSH1 0x0 PUSH1 0x40 MLOAD DUP5 PUSH4 0xFFFFFFFF AND PUSH1 0xE0 SHL DUP2 MSTORE PUSH1 0x4 ADD PUSH2 0x292 SWAP4 SWAP3 SWAP2 SWAP1 PUSH2 0x15CB JUMP JUMPDEST PUSH1 0x20 PUSH1 0x40 MLOAD DUP1 DUP4 SUB DUP2 DUP7 GAS STATICCALL ISZERO DUP1 ISZERO PUSH2 0x2AF JUMPI RETURNDATASIZE PUSH1 0x0 DUP1 RETURNDATACOPY RETURNDATASIZE PUSH1 0x0 REVERT JUMPDEST POP POP POP POP PUSH1 0x40 MLOAD RETURNDATASIZE PUSH1 0x1F NOT PUSH1 0x1F DUP3 ADD AND DUP3 ADD DUP1 PUSH1 0x40 MSTORE POP DUP2 ADD SWAP1 PUSH2 0x2D3 SWAP2 SWAP1 PUSH2 0x15EF JUMP JUMPDEST PUSH2 0x2EF JUMPI PUSH1 0x40 MLOAD PUSH3 0x461BCD PUSH1 0xE5 SHL DUP2 MSTORE PUSH1 0x4 ADD PUSH2 0x21D SWAP1 PUSH2 0x1611 JUMP JUMPDEST PUSH2 0x2FE DUP8 DUP8 DUP8 DUP8 DUP8 DUP8 DUP8 PUSH2 0xA4B JUMP JUMPDEST POP POP POP POP POP POP POP JUMP JUMPDEST PUSH2 0x30F PUSH2 0xD57 JUMP JUMPDEST PUSH2 0x319 PUSH1 0x0 PUSH2 0xDB1 JUMP JUMPDEST JUMP JUMPDEST CALLER PUSH1 0x1 PUSH1 0x1 PUSH1 0xA0 SHL SUB DUP3 AND ISZERO DUP1 ISZERO SWAP1 PUSH2 0x346 JUMPI POP DUP1 PUSH1 0x1 PUSH1 0x1 PUSH1 0xA0 SHL SUB AND DUP3 PUSH1 0x1 PUSH1 0x1 PUSH1 0xA0 SHL SUB AND EQ ISZERO JUMPDEST PUSH2 0x386 JUMPI PUSH1 0x40 MLOAD PUSH3 0x461BCD PUSH1 0xE5 SHL DUP2 MSTORE PUSH1 0x20 PUSH1 0x4 DUP3 ADD MSTORE PUSH1 0x11 PUSH1 0x24 DUP3 ADD MSTORE PUSH17 0x24B73B30B634B2103732BB9030B236B4B7 PUSH1 0x79 SHL PUSH1 0x44 DUP3 ADD MSTORE PUSH1 0x64 ADD PUSH2 0x21D JUMP JUMPDEST PUSH1 0x1 PUSH1 0x1 PUSH1 0xA0 SHL SUB DUP2 AND PUSH1 0x0 SWAP1 DUP2 MSTORE PUSH1 0x3 PUSH1 0x20 SWAP1 DUP2 MSTORE PUSH1 0x40 DUP1 DUP4 KECCAK256 PUSH1 0x2 DUP4 MSTORE DUP2 DUP5 KECCAK256 DUP8 DUP6 MSTORE DUP4 MSTORE DUP2 DUP5 KECCAK256 DUP2 DUP5 MSTORE DUP3 DUP6 KECCAK256 SLOAD PUSH2 0xFFFF AND DUP6 MSTORE SWAP1 SWAP3 MSTORE DUP3 KECCAK256 PUSH1 0x6 DUP2 ADD SLOAD SWAP2 SWAP3 SWAP1 SWAP2 SWAP1 SUB PUSH2 0x419 JUMPI PUSH1 0x40 MLOAD PUSH3 0x461BCD PUSH1 0xE5 SHL DUP2 MSTORE PUSH1 0x20 PUSH1 0x4 DUP3 ADD MSTORE PUSH1 0x1E PUSH1 0x24 DUP3 ADD MSTORE PUSH32 0x436F6E7472616374207265636F7264206E6F7420726567697374657265640000 PUSH1 0x44 DUP3 ADD MSTORE PUSH1 0x64 ADD PUSH2 0x21D JUMP JUMPDEST DUP1 SLOAD PUSH1 0x1 DUP3 ADD SLOAD PUSH1 0x2 DUP4 ADD SLOAD PUSH1 0x3 DUP5 ADD SLOAD PUSH1 0x4 DUP6 ADD SLOAD PUSH2 0x454 SWAP5 SWAP4 PUSH1 0x1 PUSH1 0x1 PUSH1 0xA0 SHL SUB SWAP1 DUP2 AND SWAP4 AND SWAP2 PUSH1 0x1 PUSH1 0xA0 SHL SWAP1 DIV PUSH2 0xFFFF AND SWAP1 DUP10 PUSH2 0x6DF JUMP JUMPDEST PUSH2 0x45E DUP3 DUP7 PUSH2 0xE01 JUMP JUMPDEST PUSH1 0x1 PUSH1 0x1 PUSH1 0xA0 SHL SUB DUP4 AND PUSH1 0x0 SWAP1 DUP2 MSTORE PUSH1 0x2 PUSH1 0x20 DUP2 DUP2 MSTORE PUSH1 0x40 DUP1 DUP5 KECCAK256 DUP10 DUP6 MSTORE DUP3 MSTORE DUP1 DUP5 KECCAK256 DUP7 DUP4 MSTORE DUP2 DUP6 KECCAK256 SLOAD PUSH2 0xFFFF AND DUP6 MSTORE SWAP1 SWAP2 MSTORE DUP3 KECCAK256 DUP3 DUP2 SSTORE PUSH1 0x1 DUP2 ADD DUP1 SLOAD PUSH1 0x1 PUSH1 0x1 PUSH1 0xA0 SHL SUB NOT SWAP1 DUP2 AND SWAP1 SWAP2 SSTORE SWAP2 DUP2 ADD DUP1 SLOAD SWAP1 SWAP3 AND SWAP1 SWAP2 SSTORE PUSH1 0x3 DUP2 ADD DUP1 SLOAD PUSH1 0x1 PUSH1 0x1 PUSH1 0xB0 SHL SUB NOT AND SWAP1 SSTORE PUSH1 0x4 DUP2 ADD DUP3 SWAP1 SSTORE SWAP1 PUSH2 0x4DD PUSH1 0x5 DUP4 ADD DUP3 PUSH2 0x119C JUMP JUMPDEST PUSH1 0x6 DUP3 ADD PUSH1 0x0 SWAP1 SSTORE POP POP DUP4 PUSH1 0x1 PUSH1 0x1 PUSH1 0xA0 SHL SUB AND DUP4 PUSH1 0x1 PUSH1 0x1 PUSH1 0xA0 SHL SUB AND DUP7 PUSH32 0x6467EF979E83BE7DA4C6BDB4513AE6309DBF5CD9CA8F5474D2F77EF171F5B903 PUSH1 0x40 MLOAD PUSH1 0x40 MLOAD DUP1 SWAP2 SUB SWAP1 LOG4 POP POP POP POP POP JUMP JUMPDEST CALLER DUP3 PUSH2 0x54D JUMPI PUSH1 0x40 MLOAD PUSH3 0x461BCD PUSH1 0xE5 SHL DUP2 MSTORE PUSH1 0x4 ADD PUSH2 0x21D SWAP1 PUSH2 0x1648 JUMP JUMPDEST PUSH1 0x1 PUSH1 0x1 PUSH1 0xA0 SHL SUB DUP2 AND PUSH1 0x0 SWAP1 DUP2 MSTORE PUSH1 0x3 PUSH1 0x20 SWAP1 DUP2 MSTORE PUSH1 0x40 DUP1 DUP4 KECCAK256 PUSH1 0x2 DUP4 MSTORE DUP2 DUP5 KECCAK256 DUP8 DUP6 MSTORE DUP4 MSTORE DUP2 DUP5 KECCAK256 DUP2 DUP5 MSTORE DUP3 DUP6 KECCAK256 SLOAD PUSH2 0xFFFF AND DUP6 MSTORE SWAP1 SWAP3 MSTORE DUP3 KECCAK256 PUSH1 0x6 DUP2 ADD SLOAD SWAP2 SWAP3 SWAP1 SWAP2 SWAP1 SUB PUSH2 0x5B0 JUMPI PUSH1 0x40 MLOAD PUSH3 0x461BCD PUSH1 0xE5 SHL DUP2 MSTORE PUSH1 0x4 ADD PUSH2 0x21D SWAP1 PUSH2 0x1674 JUMP JUMPDEST DUP4 PUSH1 0x40 MLOAD PUSH2 0x5BE SWAP2 SWAP1 PUSH2 0x16AB JUMP JUMPDEST PUSH1 0x40 MLOAD DUP1 SWAP2 SUB SWAP1 KECCAK256 DUP2 PUSH1 0x5 ADD PUSH1 0x40 MLOAD PUSH2 0x5D7 SWAP2 SWAP1 PUSH2 0x1701 JUMP JUMPDEST PUSH1 0x40 MLOAD SWAP1 DUP2 SWAP1 SUB DUP2 KECCAK256 DUP4 SLOAD SWAP1 SWAP2 PUSH32 0xC1944B28B15A207C930873413A1E86D4DA29DC4B5B5D556F7083E6093B10BC5 SWAP1 PUSH1 0x0 SWAP1 LOG4 PUSH1 0x5 DUP2 ADD PUSH2 0x234 DUP6 DUP3 PUSH2 0x17BD JUMP JUMPDEST PUSH1 0x0 PUSH2 0x622 PUSH2 0x11D6 JUMP JUMPDEST PUSH2 0x62D DUP6 DUP6 DUP6 PUSH2 0xECF JUMP JUMPDEST SWAP2 POP SWAP2 POP JUMPDEST SWAP4 POP SWAP4 SWAP2 POP POP JUMP JUMPDEST PUSH1 0x60 PUSH2 0x64A CALLER PUSH2 0x1055 JUMP JUMPDEST PUSH2 0x1055 JUMP JUMPDEST SWAP1 POP SWAP1 JUMP JUMPDEST PUSH2 0x657 PUSH2 0xD57 JUMP JUMPDEST PUSH1 0x1 PUSH1 0x1 PUSH1 0xA0 SHL SUB DUP2 AND PUSH2 0x6BC JUMPI PUSH1 0x40 MLOAD PUSH3 0x461BCD PUSH1 0xE5 SHL DUP2 MSTORE PUSH1 0x20 PUSH1 0x4 DUP3 ADD MSTORE PUSH1 0x26 PUSH1 0x24 DUP3 ADD MSTORE PUSH32 0x4F776E61626C653A206E6577206F776E657220697320746865207A65726F2061 PUSH1 0x44 DUP3 ADD MSTORE PUSH6 0x646472657373 PUSH1 0xD0 SHL PUSH1 0x64 DUP3 ADD MSTORE PUSH1 0x84 ADD PUSH2 0x21D JUMP JUMPDEST PUSH2 0x6C5 DUP2 PUSH2 0xDB1 JUMP JUMPDEST POP JUMP JUMPDEST PUSH1 0x60 PUSH2 0x64A PUSH2 0x645 PUSH1 0x0 SLOAD PUSH1 0x1 PUSH1 0x1 PUSH1 0xA0 SHL SUB AND SWAP1 JUMP JUMPDEST PUSH1 0x1 PUSH1 0x1 PUSH1 0xA0 SHL SUB DUP5 AND PUSH2 0x72F JUMPI PUSH1 0x40 MLOAD PUSH3 0x461BCD PUSH1 0xE5 SHL DUP2 MSTORE PUSH1 0x20 PUSH1 0x4 DUP3 ADD MSTORE PUSH1 0x17 PUSH1 0x24 DUP3 ADD MSTORE PUSH23 0x131BD9DA58C81859191C995CDCC81A5CC81B9959191959 PUSH1 0x4A SHL PUSH1 0x44 DUP3 ADD MSTORE PUSH1 0x64 ADD PUSH2 0x21D JUMP JUMPDEST PUSH1 0x1 PUSH1 0x1 PUSH1 0xA0 SHL SUB DUP6 AND PUSH2 0x741 JUMPI DUP4 SWAP5 POP JUMPDEST PUSH2 0x270F PUSH2 0xFFFF DUP5 AND GT ISZERO PUSH2 0x797 JUMPI PUSH1 0x40 MLOAD PUSH3 0x461BCD PUSH1 0xE5 SHL DUP2 MSTORE PUSH1 0x20 PUSH1 0x4 DUP3 ADD MSTORE PUSH1 0x1F PUSH1 0x24 DUP3 ADD MSTORE PUSH32 0x56657273696F6E206D757374206265206C6F776572207468616E203939393900 PUSH1 0x44 DUP3 ADD MSTORE PUSH1 0x64 ADD PUSH2 0x21D JUMP JUMPDEST PUSH1 0x1 PUSH1 0x1 PUSH1 0xA0 SHL SUB DUP2 AND PUSH1 0x0 SWAP1 DUP2 MSTORE PUSH1 0x3 PUSH1 0x20 SWAP1 DUP2 MSTORE PUSH1 0x40 DUP1 DUP4 KECCAK256 PUSH1 0x2 DUP4 MSTORE DUP2 DUP5 KECCAK256 DUP11 DUP6 MSTORE DUP4 MSTORE DUP2 DUP5 KECCAK256 DUP2 DUP5 MSTORE DUP3 DUP6 KECCAK256 SLOAD PUSH2 0xFFFF AND DUP6 MSTORE SWAP1 SWAP3 MSTORE SWAP1 SWAP2 KECCAK256 PUSH1 0x6 DUP2 ADD SLOAD ISZERO DUP1 ISZERO PUSH2 0x7F3 JUMPI POP PUSH1 0x3 DUP2 ADD SLOAD PUSH1 0x1 PUSH1 0xA0 SHL SWAP1 DIV PUSH2 0xFFFF AND ISZERO JUMPDEST PUSH2 0x83F JUMPI PUSH1 0x40 MLOAD PUSH3 0x461BCD PUSH1 0xE5 SHL DUP2 MSTORE PUSH1 0x20 PUSH1 0x4 DUP3 ADD MSTORE PUSH1 0x1E PUSH1 0x24 DUP3 ADD MSTORE PUSH32 0x416C726561647920726567697374657265642C20757365207570646174650000 PUSH1 0x44 DUP3 ADD MSTORE PUSH1 0x64 ADD PUSH2 0x21D JUMP JUMPDEST PUSH1 0x2 PUSH1 0x0 DUP5 PUSH1 0x1 PUSH1 0x1 PUSH1 0xA0 SHL SUB AND PUSH1 0x1 PUSH1 0x1 PUSH1 0xA0 SHL SUB AND DUP2 MSTORE PUSH1 0x20 ADD SWAP1 DUP2 MSTORE PUSH1 0x20 ADD PUSH1 0x0 KECCAK256 PUSH1 0x0 DUP10 DUP2 MSTORE PUSH1 0x20 ADD SWAP1 DUP2 MSTORE PUSH1 0x20 ADD PUSH1 0x0 KECCAK256 PUSH1 0x0 DUP7 PUSH2 0xFFFF AND PUSH2 0xFFFF AND DUP2 MSTORE PUSH1 0x20 ADD SWAP1 DUP2 MSTORE PUSH1 0x20 ADD PUSH1 0x0 KECCAK256 SWAP1 POP DUP8 DUP2 PUSH1 0x0 ADD DUP2 SWAP1 SSTORE POP DUP7 DUP2 PUSH1 0x1 ADD PUSH1 0x0 PUSH2 0x100 EXP DUP2 SLOAD DUP2 PUSH1 0x1 PUSH1 0x1 PUSH1 0xA0 SHL SUB MUL NOT AND SWAP1 DUP4 PUSH1 0x1 PUSH1 0x1 PUSH1 0xA0 SHL SUB AND MUL OR SWAP1 SSTORE POP DUP6 DUP2 PUSH1 0x2 ADD PUSH1 0x0 PUSH2 0x100 EXP DUP2 SLOAD DUP2 PUSH1 0x1 PUSH1 0x1 PUSH1 0xA0 SHL SUB MUL NOT AND SWAP1 DUP4 PUSH1 0x1 PUSH1 0x1 PUSH1 0xA0 SHL SUB AND MUL OR SWAP1 SSTORE POP DUP3 DUP2 PUSH1 0x3 ADD PUSH1 0x0 PUSH2 0x100 EXP DUP2 SLOAD DUP2 PUSH1 0x1 PUSH1 0x1 PUSH1 0xA0 SHL SUB MUL NOT AND SWAP1 DUP4 PUSH1 0x1 PUSH1 0x1 PUSH1 0xA0 SHL SUB AND MUL OR SWAP1 SSTORE POP DUP5 DUP2 PUSH1 0x3 ADD PUSH1 0x14 PUSH2 0x100 EXP DUP2 SLOAD DUP2 PUSH2 0xFFFF MUL NOT AND SWAP1 DUP4 PUSH2 0xFFFF AND MUL OR SWAP1 SSTORE POP DUP4 DUP2 PUSH1 0x4 ADD DUP2 SWAP1 SSTORE POP TIMESTAMP DUP2 PUSH1 0x6 ADD DUP2 SWAP1 SSTORE POP DUP2 PUSH1 0x2 ADD SLOAD DUP3 PUSH1 0x1 ADD PUSH1 0x0 DUP11 DUP2 MSTORE PUSH1 0x20 ADD SWAP1 DUP2 MSTORE PUSH1 0x20 ADD PUSH1 0x0 KECCAK256 DUP2 SWAP1 SSTORE POP DUP8 DUP3 PUSH1 0x2 ADD DUP2 SWAP1 SSTORE POP DUP5 DUP3 PUSH1 0x0 ADD PUSH1 0x0 DUP11 DUP2 MSTORE PUSH1 0x20 ADD SWAP1 DUP2 MSTORE PUSH1 0x20 ADD PUSH1 0x0 KECCAK256 PUSH1 0x0 PUSH2 0x100 EXP DUP2 SLOAD DUP2 PUSH2 0xFFFF MUL NOT AND SWAP1 DUP4 PUSH2 0xFFFF AND MUL OR SWAP1 SSTORE POP DUP1 PUSH1 0x3 ADD PUSH1 0x14 SWAP1 SLOAD SWAP1 PUSH2 0x100 EXP SWAP1 DIV PUSH2 0xFFFF AND PUSH2 0xFFFF AND DUP2 PUSH1 0x1 ADD PUSH1 0x0 SWAP1 SLOAD SWAP1 PUSH2 0x100 EXP SWAP1 DIV PUSH1 0x1 PUSH1 0x1 PUSH1 0xA0 SHL SUB AND PUSH1 0x1 PUSH1 0x1 PUSH1 0xA0 SHL SUB AND DUP3 PUSH1 0x0 ADD SLOAD PUSH32 0xB8064287BE8E96C6334F8CFF70015F26AA567834BC9455BDC54F6D163A101376 DUP5 PUSH1 0x2 ADD PUSH1 0x0 SWAP1 SLOAD SWAP1 PUSH2 0x100 EXP SWAP1 DIV PUSH1 0x1 PUSH1 0x1 PUSH1 0xA0 SHL SUB AND DUP6 PUSH1 0x4 ADD SLOAD PUSH1 0x40 MLOAD PUSH2 0xA39 SWAP3 SWAP2 SWAP1 PUSH1 0x1 PUSH1 0x1 PUSH1 0xA0 SHL SUB SWAP3 SWAP1 SWAP3 AND DUP3 MSTORE PUSH1 0x20 DUP3 ADD MSTORE PUSH1 0x40 ADD SWAP1 JUMP JUMPDEST PUSH1 0x40 MLOAD DUP1 SWAP2 SUB SWAP1 LOG4 POP POP POP POP POP POP POP POP JUMP JUMPDEST DUP7 PUSH2 0xA68 JUMPI PUSH1 0x40 MLOAD PUSH3 0x461BCD PUSH1 0xE5 SHL DUP2 MSTORE PUSH1 0x4 ADD PUSH2 0x21D SWAP1 PUSH2 0x1648 JUMP JUMPDEST PUSH1 0x1 PUSH1 0x1 PUSH1 0xA0 SHL SUB DUP2 AND PUSH1 0x0 SWAP1 DUP2 MSTORE PUSH1 0x3 PUSH1 0x20 SWAP1 DUP2 MSTORE PUSH1 0x40 DUP1 DUP4 KECCAK256 PUSH1 0x2 DUP4 MSTORE DUP2 DUP5 KECCAK256 DUP12 DUP6 MSTORE DUP4 MSTORE DUP2 DUP5 KECCAK256 DUP2 DUP5 MSTORE DUP3 DUP6 KECCAK256 SLOAD PUSH2 0xFFFF AND DUP6 MSTORE SWAP1 SWAP3 MSTORE DUP3 KECCAK256 PUSH1 0x6 DUP2 ADD SLOAD SWAP2 SWAP3 SWAP1 SWAP2 SWAP1 SUB PUSH2 0xACB JUMPI PUSH1 0x40 MLOAD PUSH3 0x461BCD PUSH1 0xE5 SHL DUP2 MSTORE PUSH1 0x4 ADD PUSH2 0x21D SWAP1 PUSH2 0x1674 JUMP JUMPDEST DUP5 PUSH2 0xFFFF AND PUSH1 0x0 SUB PUSH2 0xAF5 JUMPI PUSH1 0x3 DUP2 ADD SLOAD PUSH2 0xAF2 SWAP1 PUSH1 0x1 PUSH1 0xA0 SHL SWAP1 DIV PUSH2 0xFFFF AND PUSH1 0x1 PUSH2 0x1893 JUMP JUMPDEST SWAP5 POP JUMPDEST PUSH1 0x3 DUP2 ADD SLOAD PUSH2 0xFFFF DUP1 DUP8 AND PUSH1 0x1 PUSH1 0xA0 SHL SWAP1 SWAP3 DIV AND LT PUSH2 0xB4C JUMPI PUSH1 0x40 MLOAD PUSH3 0x461BCD PUSH1 0xE5 SHL DUP2 MSTORE PUSH1 0x20 PUSH1 0x4 DUP3 ADD MSTORE PUSH1 0x13 PUSH1 0x24 DUP3 ADD MSTORE PUSH19 0x24B73B30B634B2103732BB903B32B939B4B7B7 PUSH1 0x69 SHL PUSH1 0x44 DUP3 ADD MSTORE PUSH1 0x64 ADD PUSH2 0x21D JUMP JUMPDEST PUSH1 0x1 PUSH1 0x1 PUSH1 0xA0 SHL SUB DUP1 DUP5 AND PUSH1 0x0 SWAP1 DUP2 MSTORE PUSH1 0x2 PUSH1 0x20 SWAP1 DUP2 MSTORE PUSH1 0x40 DUP1 DUP4 KECCAK256 DUP14 DUP5 MSTORE DUP3 MSTORE DUP1 DUP4 KECCAK256 PUSH2 0xFFFF DUP11 AND DUP5 MSTORE SWAP1 SWAP2 MSTORE SWAP1 KECCAK256 SWAP1 DUP10 AND ISZERO PUSH2 0xBA6 JUMPI PUSH1 0x1 DUP2 ADD DUP1 SLOAD PUSH1 0x1 PUSH1 0x1 PUSH1 0xA0 SHL SUB NOT AND PUSH1 0x1 PUSH1 0x1 PUSH1 0xA0 SHL SUB DUP12 AND OR SWAP1 SSTORE PUSH2 0xBCD JUMP JUMPDEST PUSH1 0x1 DUP1 DUP4 ADD SLOAD SWAP1 DUP3 ADD DUP1 SLOAD PUSH1 0x1 PUSH1 0x1 PUSH1 0xA0 SHL SUB NOT AND PUSH1 0x1 PUSH1 0x1 PUSH1 0xA0 SHL SUB SWAP1 SWAP3 AND SWAP2 SWAP1 SWAP2 OR SWAP1 SSTORE JUMPDEST PUSH1 0x1 PUSH1 0x1 PUSH1 0xA0 SHL SUB DUP9 AND ISZERO PUSH2 0xBFE JUMPI PUSH1 0x2 DUP2 ADD DUP1 SLOAD PUSH1 0x1 PUSH1 0x1 PUSH1 0xA0 SHL SUB NOT AND PUSH1 0x1 PUSH1 0x1 PUSH1 0xA0 SHL SUB DUP11 AND OR SWAP1 SSTORE PUSH2 0xC25 JUMP JUMPDEST PUSH1 0x2 DUP1 DUP4 ADD SLOAD SWAP1 DUP3 ADD DUP1 SLOAD PUSH1 0x1 PUSH1 0x1 PUSH1 0xA0 SHL SUB NOT AND PUSH1 0x1 PUSH1 0x1 PUSH1 0xA0 SHL SUB SWAP1 SWAP3 AND SWAP2 SWAP1 SWAP2 OR SWAP1 SSTORE JUMPDEST PUSH1 0x1 PUSH1 0x1 PUSH1 0xA0 SHL SUB DUP8 AND ISZERO PUSH2 0xC56 JUMPI PUSH1 0x3 DUP2 ADD DUP1 SLOAD PUSH1 0x1 PUSH1 0x1 PUSH1 0xA0 SHL SUB NOT AND PUSH1 0x1 PUSH1 0x1 PUSH1 0xA0 SHL SUB DUP10 AND OR SWAP1 SSTORE PUSH2 0xC7D JUMP JUMPDEST PUSH1 0x3 DUP1 DUP4 ADD SLOAD SWAP1 DUP3 ADD DUP1 SLOAD PUSH1 0x1 PUSH1 0x1 PUSH1 0xA0 SHL SUB NOT AND PUSH1 0x1 PUSH1 0x1 PUSH1 0xA0 SHL SUB SWAP1 SWAP3 AND SWAP2 SWAP1 SWAP2 OR SWAP1 SSTORE JUMPDEST DUP5 ISZERO PUSH2 0xC8F JUMPI PUSH1 0x4 DUP2 ADD DUP6 SWAP1 SSTORE PUSH2 0xC9A JUMP JUMPDEST PUSH1 0x4 DUP1 DUP4 ADD SLOAD SWAP1 DUP3 ADD SSTORE JUMPDEST DUP2 SLOAD DUP2 SSTORE PUSH1 0x3 DUP2 ADD DUP1 SLOAD PUSH2 0xFFFF PUSH1 0xA0 SHL NOT AND PUSH1 0x1 PUSH1 0xA0 SHL PUSH2 0xFFFF DUP10 DUP2 AND DUP3 MUL SWAP3 SWAP1 SWAP3 OR DUP1 DUP5 SSTORE TIMESTAMP PUSH1 0x6 DUP7 ADD SSTORE PUSH1 0x0 DUP15 DUP2 MSTORE PUSH1 0x20 DUP9 DUP2 MSTORE PUSH1 0x40 SWAP2 DUP3 SWAP1 KECCAK256 DUP1 SLOAD SWAP4 DUP6 SWAP1 DIV DUP7 AND PUSH2 0xFFFF NOT SWAP1 SWAP5 AND SWAP4 SWAP1 SWAP4 OR SWAP1 SWAP3 SSTORE SWAP4 SLOAD PUSH1 0x1 DUP7 ADD SLOAD DUP7 SLOAD PUSH1 0x2 DUP9 ADD SLOAD PUSH1 0x4 DUP10 ADD SLOAD DUP9 MLOAD PUSH1 0x1 PUSH1 0x1 PUSH1 0xA0 SHL SUB SWAP3 DUP4 AND DUP2 MSTORE SWAP6 DUP7 ADD MSTORE SWAP5 SWAP1 SWAP3 DIV SWAP1 SWAP5 AND SWAP5 SWAP3 SWAP1 SWAP4 AND SWAP3 SWAP2 PUSH32 0xB8064287BE8E96C6334F8CFF70015F26AA567834BC9455BDC54F6D163A101376 SWAP2 ADD PUSH1 0x40 MLOAD DUP1 SWAP2 SUB SWAP1 LOG4 POP POP POP POP POP POP POP POP POP POP JUMP JUMPDEST PUSH1 0x0 SLOAD PUSH1 0x1 PUSH1 0x1 PUSH1 0xA0 SHL SUB AND CALLER EQ PUSH2 0x319 JUMPI PUSH1 0x40 MLOAD PUSH3 0x461BCD PUSH1 0xE5 SHL DUP2 MSTORE PUSH1 0x20 PUSH1 0x4 DUP3 ADD DUP2 SWAP1 MSTORE PUSH1 0x24 DUP3 ADD MSTORE PUSH32 0x4F776E61626C653A2063616C6C6572206973206E6F7420746865206F776E6572 PUSH1 0x44 DUP3 ADD MSTORE PUSH1 0x64 ADD PUSH2 0x21D JUMP JUMPDEST PUSH1 0x0 DUP1 SLOAD PUSH1 0x1 PUSH1 0x1 PUSH1 0xA0 SHL SUB DUP4 DUP2 AND PUSH1 0x1 PUSH1 0x1 PUSH1 0xA0 SHL SUB NOT DUP4 AND DUP2 OR DUP5 SSTORE PUSH1 0x40 MLOAD SWAP2 SWAP1 SWAP3 AND SWAP3 DUP4 SWAP2 PUSH32 0x8BE0079C531659141344CD1FD0A4F28419497F9722A3DAAFE3B4186F6B6457E0 SWAP2 SWAP1 LOG3 POP POP JUMP JUMPDEST PUSH1 0x2 DUP3 ADD SLOAD PUSH1 0x0 DUP2 DUP2 MSTORE PUSH1 0x1 DUP5 ADD PUSH1 0x20 MSTORE PUSH1 0x40 SWAP1 KECCAK256 SLOAD PUSH2 0xE37 JUMPI POP PUSH1 0x0 SWAP1 DUP2 MSTORE PUSH1 0x1 DUP3 ADD PUSH1 0x20 MSTORE PUSH1 0x40 DUP2 KECCAK256 DUP2 SWAP1 SSTORE PUSH1 0x2 SWAP1 SWAP2 ADD SSTORE JUMP JUMPDEST PUSH1 0x0 DUP2 DUP2 MSTORE PUSH1 0x1 DUP5 ADD PUSH1 0x20 MSTORE PUSH1 0x40 SWAP1 KECCAK256 SLOAD DUP3 EQ PUSH2 0xEB1 JUMPI DUP1 PUSH2 0xE9B JUMPI PUSH1 0x40 MLOAD PUSH3 0x461BCD PUSH1 0xE5 SHL DUP2 MSTORE PUSH1 0x20 PUSH1 0x4 DUP3 ADD MSTORE PUSH1 0x1F PUSH1 0x24 DUP3 ADD MSTORE PUSH32 0x5265636F72644E616D65206E6F7420666F756E6420666F722073656E64657200 PUSH1 0x44 DUP3 ADD MSTORE PUSH1 0x64 ADD PUSH2 0x21D JUMP JUMPDEST PUSH1 0x0 SWAP1 DUP2 MSTORE PUSH1 0x1 DUP4 ADD PUSH1 0x20 MSTORE PUSH1 0x40 SWAP1 KECCAK256 SLOAD PUSH2 0xE37 JUMP JUMPDEST PUSH1 0x0 DUP3 DUP2 MSTORE PUSH1 0x1 DUP5 ADD PUSH1 0x20 MSTORE PUSH1 0x40 DUP1 DUP3 KECCAK256 SLOAD DUP4 DUP4 MSTORE SWAP2 KECCAK256 SSTORE JUMPDEST POP POP POP JUMP JUMPDEST PUSH1 0x0 PUSH2 0xED9 PUSH2 0x11D6 JUMP JUMPDEST PUSH2 0x270F PUSH2 0xFFFF DUP5 AND GT ISZERO PUSH2 0xF12 JUMPI PUSH1 0x1 PUSH1 0x1 PUSH1 0xA0 SHL SUB DUP5 AND PUSH1 0x0 SWAP1 DUP2 MSTORE PUSH1 0x3 PUSH1 0x20 SWAP1 DUP2 MSTORE PUSH1 0x40 DUP1 DUP4 KECCAK256 DUP9 DUP5 MSTORE SWAP1 SWAP2 MSTORE SWAP1 KECCAK256 SLOAD PUSH2 0xFFFF AND SWAP3 POP JUMPDEST PUSH1 0x1 PUSH1 0x1 PUSH1 0xA0 SHL SUB DUP1 DUP6 AND PUSH1 0x0 SWAP1 DUP2 MSTORE PUSH1 0x2 PUSH1 0x20 DUP2 DUP2 MSTORE PUSH1 0x40 DUP1 DUP5 KECCAK256 DUP11 DUP6 MSTORE DUP3 MSTORE DUP1 DUP5 KECCAK256 PUSH2 0xFFFF DUP1 DUP11 AND DUP7 MSTORE SWAP1 DUP4 MSTORE SWAP4 DUP2 SWAP1 KECCAK256 DUP2 MLOAD PUSH2 0x100 DUP2 ADD DUP4 MSTORE DUP2 SLOAD DUP2 MSTORE PUSH1 0x1 DUP3 ADD SLOAD DUP8 AND SWAP4 DUP2 ADD SWAP4 SWAP1 SWAP4 MSTORE SWAP3 DUP4 ADD SLOAD DUP6 AND SWAP1 DUP3 ADD MSTORE PUSH1 0x3 DUP3 ADD SLOAD SWAP4 DUP5 AND PUSH1 0x60 DUP3 ADD MSTORE PUSH1 0x1 PUSH1 0xA0 SHL SWAP1 SWAP4 DIV SWAP1 SWAP2 AND PUSH1 0x80 DUP4 ADD MSTORE PUSH1 0x4 DUP2 ADD SLOAD PUSH1 0xA0 DUP4 ADD MSTORE PUSH1 0x5 DUP2 ADD DUP1 SLOAD PUSH1 0xC0 DUP5 ADD SWAP2 SWAP1 PUSH2 0xFA6 SWAP1 PUSH2 0x16C7 JUMP JUMPDEST DUP1 PUSH1 0x1F ADD PUSH1 0x20 DUP1 SWAP2 DIV MUL PUSH1 0x20 ADD PUSH1 0x40 MLOAD SWAP1 DUP2 ADD PUSH1 0x40 MSTORE DUP1 SWAP3 SWAP2 SWAP1 DUP2 DUP2 MSTORE PUSH1 0x20 ADD DUP3 DUP1 SLOAD PUSH2 0xFD2 SWAP1 PUSH2 0x16C7 JUMP JUMPDEST DUP1 ISZERO PUSH2 0x101F JUMPI DUP1 PUSH1 0x1F LT PUSH2 0xFF4 JUMPI PUSH2 0x100 DUP1 DUP4 SLOAD DIV MUL DUP4 MSTORE SWAP2 PUSH1 0x20 ADD SWAP2 PUSH2 0x101F JUMP JUMPDEST DUP3 ADD SWAP2 SWAP1 PUSH1 0x0 MSTORE PUSH1 0x20 PUSH1 0x0 KECCAK256 SWAP1 JUMPDEST DUP2 SLOAD DUP2 MSTORE SWAP1 PUSH1 0x1 ADD SWAP1 PUSH1 0x20 ADD DUP1 DUP4 GT PUSH2 0x1002 JUMPI DUP3 SWAP1 SUB PUSH1 0x1F AND DUP3 ADD SWAP2 JUMPDEST POP POP POP POP POP DUP2 MSTORE PUSH1 0x20 ADD PUSH1 0x6 DUP3 ADD SLOAD DUP2 MSTORE POP POP SWAP1 POP DUP1 PUSH1 0xE0 ADD MLOAD PUSH1 0x0 SUB PUSH2 0x1049 JUMPI PUSH1 0x0 SWAP2 POP PUSH2 0x632 JUMP JUMPDEST PUSH1 0x1 SWAP2 POP SWAP4 POP SWAP4 SWAP2 POP POP JUMP JUMPDEST PUSH1 0x1 PUSH1 0x1 PUSH1 0xA0 SHL SUB DUP2 AND PUSH1 0x0 SWAP1 DUP2 MSTORE PUSH1 0x3 PUSH1 0x20 MSTORE PUSH1 0x40 DUP2 KECCAK256 PUSH1 0x2 ADD SLOAD PUSH1 0x60 SWAP2 JUMPDEST DUP2 ISZERO DUP1 ISZERO SWAP1 PUSH2 0x1085 JUMPI POP PUSH2 0x2710 DUP2 LT JUMPDEST ISZERO PUSH2 0x10C8 JUMPI DUP1 PUSH2 0x1094 DUP2 PUSH2 0x18B5 JUMP JUMPDEST PUSH1 0x1 PUSH1 0x1 PUSH1 0xA0 SHL SUB DUP7 AND PUSH1 0x0 SWAP1 DUP2 MSTORE PUSH1 0x3 PUSH1 0x20 SWAP1 DUP2 MSTORE PUSH1 0x40 DUP1 DUP4 KECCAK256 SWAP7 DUP4 MSTORE PUSH1 0x1 SWAP1 SWAP7 ADD SWAP1 MSTORE SWAP4 SWAP1 SWAP4 KECCAK256 SLOAD SWAP3 SWAP2 POP PUSH2 0x1075 SWAP1 POP JUMP JUMPDEST PUSH1 0x1 PUSH1 0x1 PUSH1 0xA0 SHL SUB DUP5 AND PUSH1 0x0 SWAP1 DUP2 MSTORE PUSH1 0x3 PUSH1 0x20 MSTORE PUSH1 0x40 DUP2 KECCAK256 PUSH1 0x2 ADD SLOAD SWAP3 POP DUP2 PUSH8 0xFFFFFFFFFFFFFFFF DUP2 GT ISZERO PUSH2 0x10FF JUMPI PUSH2 0x10FF PUSH2 0x136A JUMP JUMPDEST PUSH1 0x40 MLOAD SWAP1 DUP1 DUP3 MSTORE DUP1 PUSH1 0x20 MUL PUSH1 0x20 ADD DUP3 ADD PUSH1 0x40 MSTORE DUP1 ISZERO PUSH2 0x1128 JUMPI DUP2 PUSH1 0x20 ADD PUSH1 0x20 DUP3 MUL DUP1 CALLDATASIZE DUP4 CALLDATACOPY ADD SWAP1 POP JUMPDEST POP SWAP1 POP PUSH1 0x0 JUMPDEST DUP3 DUP2 LT ISZERO PUSH2 0x1193 JUMPI DUP4 DUP3 DUP3 DUP2 MLOAD DUP2 LT PUSH2 0x1149 JUMPI PUSH2 0x1149 PUSH2 0x18CE JUMP JUMPDEST PUSH1 0x20 SWAP1 DUP2 MUL SWAP2 SWAP1 SWAP2 ADD DUP2 ADD SWAP2 SWAP1 SWAP2 MSTORE PUSH1 0x1 PUSH1 0x1 PUSH1 0xA0 SHL SUB DUP8 AND PUSH1 0x0 SWAP1 DUP2 MSTORE PUSH1 0x3 DUP3 MSTORE PUSH1 0x40 DUP1 DUP3 KECCAK256 SWAP7 DUP3 MSTORE PUSH1 0x1 SWAP1 SWAP7 ADD SWAP1 SWAP2 MSTORE SWAP4 SWAP1 SWAP4 KECCAK256 SLOAD SWAP3 DUP1 PUSH2 0x118B DUP2 PUSH2 0x18B5 JUMP JUMPDEST SWAP2 POP POP PUSH2 0x112E JUMP JUMPDEST POP SWAP5 SWAP4 POP POP POP POP JUMP JUMPDEST POP DUP1 SLOAD PUSH2 0x11A8 SWAP1 PUSH2 0x16C7 JUMP JUMPDEST PUSH1 0x0 DUP3 SSTORE DUP1 PUSH1 0x1F LT PUSH2 0x11B8 JUMPI POP POP JUMP JUMPDEST PUSH1 0x1F ADD PUSH1 0x20 SWAP1 DIV SWAP1 PUSH1 0x0 MSTORE PUSH1 0x20 PUSH1 0x0 KECCAK256 SWAP1 DUP2 ADD SWAP1 PUSH2 0x6C5 SWAP2 SWAP1 PUSH2 0x1219 JUMP JUMPDEST PUSH1 0x40 DUP1 MLOAD PUSH2 0x100 DUP2 ADD DUP3 MSTORE PUSH1 0x0 DUP1 DUP3 MSTORE PUSH1 0x20 DUP3 ADD DUP2 SWAP1 MSTORE SWAP2 DUP2 ADD DUP3 SWAP1 MSTORE PUSH1 0x60 DUP1 DUP3 ADD DUP4 SWAP1 MSTORE PUSH1 0x80 DUP3 ADD DUP4 SWAP1 MSTORE PUSH1 0xA0 DUP3 ADD DUP4 SWAP1 MSTORE PUSH1 0xC0 DUP3 ADD MSTORE PUSH1 0xE0 DUP2 ADD SWAP2 SWAP1 SWAP2 MSTORE SWAP1 JUMP JUMPDEST JUMPDEST DUP1 DUP3 GT ISZERO PUSH2 0x122E JUMPI PUSH1 0x0 DUP2 SSTORE PUSH1 0x1 ADD PUSH2 0x121A JUMP JUMPDEST POP SWAP1 JUMP JUMPDEST DUP1 CALLDATALOAD PUSH1 0x1 PUSH1 0x1 PUSH1 0xA0 SHL SUB DUP2 AND DUP2 EQ PUSH2 0x1249 JUMPI PUSH1 0x0 DUP1 REVERT JUMPDEST SWAP2 SWAP1 POP JUMP JUMPDEST DUP1 CALLDATALOAD PUSH2 0xFFFF DUP2 AND DUP2 EQ PUSH2 0x1249 JUMPI PUSH1 0x0 DUP1 REVERT JUMPDEST PUSH1 0x0 DUP1 PUSH1 0x0 DUP1 PUSH1 0x0 DUP1 PUSH1 0xC0 DUP8 DUP10 SUB SLT ISZERO PUSH2 0x1279 JUMPI PUSH1 0x0 DUP1 REVERT JUMPDEST DUP7 CALLDATALOAD SWAP6 POP PUSH2 0x1289 PUSH1 0x20 DUP9 ADD PUSH2 0x1232 JUMP JUMPDEST SWAP5 POP PUSH2 0x1297 PUSH1 0x40 DUP9 ADD PUSH2 0x1232 JUMP JUMPDEST SWAP4 POP PUSH2 0x12A5 PUSH1 0x60 DUP9 ADD PUSH2 0x124E JUMP JUMPDEST SWAP3 POP PUSH1 0x80 DUP8 ADD CALLDATALOAD SWAP2 POP PUSH2 0x12BA PUSH1 0xA0 DUP9 ADD PUSH2 0x1232 JUMP JUMPDEST SWAP1 POP SWAP3 SWAP6 POP SWAP3 SWAP6 POP SWAP3 SWAP6 JUMP JUMPDEST PUSH1 0x0 DUP1 PUSH1 0x0 DUP1 PUSH1 0x0 DUP1 PUSH1 0x0 PUSH1 0xE0 DUP9 DUP11 SUB SLT ISZERO PUSH2 0x12E1 JUMPI PUSH1 0x0 DUP1 REVERT JUMPDEST DUP8 CALLDATALOAD SWAP7 POP PUSH2 0x12F1 PUSH1 0x20 DUP10 ADD PUSH2 0x1232 JUMP JUMPDEST SWAP6 POP PUSH2 0x12FF PUSH1 0x40 DUP10 ADD PUSH2 0x1232 JUMP JUMPDEST SWAP5 POP PUSH2 0x130D PUSH1 0x60 DUP10 ADD PUSH2 0x1232 JUMP JUMPDEST SWAP4 POP PUSH2 0x131B PUSH1 0x80 DUP10 ADD PUSH2 0x124E JUMP JUMPDEST SWAP3 POP PUSH1 0xA0 DUP9 ADD CALLDATALOAD SWAP2 POP PUSH2 0x1330 PUSH1 0xC0 DUP10 ADD PUSH2 0x1232 JUMP JUMPDEST SWAP1 POP SWAP3 SWAP6 SWAP9 SWAP2 SWAP5 SWAP8 POP SWAP3 SWAP6 POP JUMP JUMPDEST PUSH1 0x0 DUP1 PUSH1 0x40 DUP4 DUP6 SUB SLT ISZERO PUSH2 0x1351 JUMPI PUSH1 0x0 DUP1 REVERT JUMPDEST DUP3 CALLDATALOAD SWAP2 POP PUSH2 0x1361 PUSH1 0x20 DUP5 ADD PUSH2 0x1232 JUMP JUMPDEST SWAP1 POP SWAP3 POP SWAP3 SWAP1 POP JUMP JUMPDEST PUSH4 0x4E487B71 PUSH1 0xE0 SHL PUSH1 0x0 MSTORE PUSH1 0x41 PUSH1 0x4 MSTORE PUSH1 0x24 PUSH1 0x0 REVERT JUMPDEST PUSH1 0x0 DUP1 PUSH1 0x40 DUP4 DUP6 SUB SLT ISZERO PUSH2 0x1393 JUMPI PUSH1 0x0 DUP1 REVERT JUMPDEST DUP3 CALLDATALOAD SWAP2 POP PUSH1 0x20 DUP4 ADD CALLDATALOAD PUSH8 0xFFFFFFFFFFFFFFFF DUP1 DUP3 GT ISZERO PUSH2 0x13B2 JUMPI PUSH1 0x0 DUP1 REVERT JUMPDEST DUP2 DUP6 ADD SWAP2 POP DUP6 PUSH1 0x1F DUP4 ADD SLT PUSH2 0x13C6 JUMPI PUSH1 0x0 DUP1 REVERT JUMPDEST DUP2 CALLDATALOAD DUP2 DUP2 GT ISZERO PUSH2 0x13D8 JUMPI PUSH2 0x13D8 PUSH2 0x136A JUMP JUMPDEST PUSH1 0x40 MLOAD PUSH1 0x1F DUP3 ADD PUSH1 0x1F NOT SWAP1 DUP2 AND PUSH1 0x3F ADD AND DUP2 ADD SWAP1 DUP4 DUP3 GT DUP2 DUP4 LT OR ISZERO PUSH2 0x1400 JUMPI PUSH2 0x1400 PUSH2 0x136A JUMP JUMPDEST DUP2 PUSH1 0x40 MSTORE DUP3 DUP2 MSTORE DUP9 PUSH1 0x20 DUP5 DUP8 ADD ADD GT ISZERO PUSH2 0x1419 JUMPI PUSH1 0x0 DUP1 REVERT JUMPDEST DUP3 PUSH1 0x20 DUP7 ADD PUSH1 0x20 DUP4 ADD CALLDATACOPY PUSH1 0x0 PUSH1 0x20 DUP5 DUP4 ADD ADD MSTORE DUP1 SWAP6 POP POP POP POP POP POP SWAP3 POP SWAP3 SWAP1 POP JUMP JUMPDEST PUSH1 0x0 DUP1 PUSH1 0x0 PUSH1 0x60 DUP5 DUP7 SUB SLT ISZERO PUSH2 0x1450 JUMPI PUSH1 0x0 DUP1 REVERT JUMPDEST DUP4 CALLDATALOAD SWAP3 POP PUSH2 0x1460 PUSH1 0x20 DUP6 ADD PUSH2 0x1232 JUMP JUMPDEST SWAP2 POP PUSH2 0x146E PUSH1 0x40 DUP6 ADD PUSH2 0x124E JUMP JUMPDEST SWAP1 POP SWAP3 POP SWAP3 POP SWAP3 JUMP JUMPDEST PUSH1 0x0 JUMPDEST DUP4 DUP2 LT ISZERO PUSH2 0x1492 JUMPI DUP2 DUP2 ADD MLOAD DUP4 DUP3 ADD MSTORE PUSH1 0x20 ADD PUSH2 0x147A JUMP JUMPDEST POP POP PUSH1 0x0 SWAP2 ADD MSTORE JUMP JUMPDEST PUSH1 0x0 DUP2 MLOAD DUP1 DUP5 MSTORE PUSH2 0x14B3 DUP2 PUSH1 0x20 DUP7 ADD PUSH1 0x20 DUP7 ADD PUSH2 0x1477 JUMP JUMPDEST PUSH1 0x1F ADD PUSH1 0x1F NOT AND SWAP3 SWAP1 SWAP3 ADD PUSH1 0x20 ADD SWAP3 SWAP2 POP POP JUMP JUMPDEST DUP3 ISZERO ISZERO DUP2 MSTORE PUSH1 0x40 PUSH1 0x20 DUP1 DUP4 ADD DUP3 SWAP1 MSTORE DUP4 MLOAD DUP3 DUP5 ADD MSTORE DUP4 ADD MLOAD PUSH1 0x1 PUSH1 0x1 PUSH1 0xA0 SHL SUB SWAP1 DUP2 AND PUSH1 0x60 DUP1 DUP6 ADD SWAP2 SWAP1 SWAP2 MSTORE SWAP2 DUP5 ADD MLOAD AND PUSH1 0x80 DUP4 ADD MSTORE DUP3 ADD MLOAD PUSH1 0x0 SWAP1 PUSH2 0x1518 PUSH1 0xA0 DUP5 ADD DUP3 PUSH1 0x1 PUSH1 0x1 PUSH1 0xA0 SHL SUB AND SWAP1 MSTORE JUMP JUMPDEST POP PUSH1 0x80 DUP4 ADD MLOAD PUSH2 0xFFFF DUP2 AND PUSH1 0xC0 DUP5 ADD MSTORE POP PUSH1 0xA0 DUP4 ADD MLOAD PUSH1 0xE0 DUP4 ADD MSTORE PUSH1 0xC0 DUP4 ADD MLOAD PUSH2 0x100 DUP1 DUP5 ADD MSTORE PUSH2 0x154D PUSH2 0x140 DUP5 ADD DUP3 PUSH2 0x149B JUMP JUMPDEST SWAP1 POP PUSH1 0xE0 DUP5 ADD MLOAD PUSH2 0x120 DUP5 ADD MSTORE DUP1 SWAP2 POP POP SWAP4 SWAP3 POP POP POP JUMP JUMPDEST PUSH1 0x20 DUP1 DUP3 MSTORE DUP3 MLOAD DUP3 DUP3 ADD DUP2 SWAP1 MSTORE PUSH1 0x0 SWAP2 SWAP1 DUP5 DUP3 ADD SWAP1 PUSH1 0x40 DUP6 ADD SWAP1 DUP5 JUMPDEST DUP2 DUP2 LT ISZERO PUSH2 0x159D JUMPI DUP4 MLOAD DUP4 MSTORE SWAP3 DUP5 ADD SWAP3 SWAP2 DUP5 ADD SWAP2 PUSH1 0x1 ADD PUSH2 0x1581 JUMP JUMPDEST POP SWAP1 SWAP7 SWAP6 POP POP POP POP POP POP JUMP JUMPDEST PUSH1 0x0 PUSH1 0x20 DUP3 DUP5 SUB SLT ISZERO PUSH2 0x15BB JUMPI PUSH1 0x0 DUP1 REVERT JUMPDEST PUSH2 0x15C4 DUP3 PUSH2 0x1232 JUMP JUMPDEST SWAP4 SWAP3 POP POP POP JUMP JUMPDEST PUSH1 0x1 PUSH1 0x1 PUSH1 0xA0 SHL SUB SWAP4 DUP5 AND DUP2 MSTORE SWAP2 SWAP1 SWAP3 AND PUSH1 0x20 DUP3 ADD MSTORE PUSH1 0x40 DUP2 ADD SWAP2 SWAP1 SWAP2 MSTORE PUSH1 0x60 ADD SWAP1 JUMP JUMPDEST PUSH1 0x0 PUSH1 0x20 DUP3 DUP5 SUB SLT ISZERO PUSH2 0x1601 JUMPI PUSH1 0x0 DUP1 REVERT JUMPDEST DUP2 MLOAD DUP1 ISZERO ISZERO DUP2 EQ PUSH2 0x15C4 JUMPI PUSH1 0x0 DUP1 REVERT JUMPDEST PUSH1 0x20 DUP1 DUP3 MSTORE PUSH1 0x1B SWAP1 DUP3 ADD MSTORE PUSH32 0x43616C6C2066726F6D20756E7472757374656420616464726573730000000000 PUSH1 0x40 DUP3 ADD MSTORE PUSH1 0x60 ADD SWAP1 JUMP JUMPDEST PUSH1 0x20 DUP1 DUP3 MSTORE PUSH1 0x12 SWAP1 DUP3 ADD MSTORE PUSH18 0x149958DBDC99081B985B59481B9959591959 PUSH1 0x72 SHL PUSH1 0x40 DUP3 ADD MSTORE PUSH1 0x60 ADD SWAP1 JUMP JUMPDEST PUSH1 0x20 DUP1 DUP3 MSTORE PUSH1 0x1C SWAP1 DUP3 ADD MSTORE PUSH32 0x4E6F7420726567697374657265642C2075736520726567697374657200000000 PUSH1 0x40 DUP3 ADD MSTORE PUSH1 0x60 ADD SWAP1 JUMP JUMPDEST PUSH1 0x0 DUP3 MLOAD PUSH2 0x16BD DUP2 DUP5 PUSH1 0x20 DUP8 ADD PUSH2 0x1477 JUMP JUMPDEST SWAP2 SWAP1 SWAP2 ADD SWAP3 SWAP2 POP POP JUMP JUMPDEST PUSH1 0x1 DUP2 DUP2 SHR SWAP1 DUP3 AND DUP1 PUSH2 0x16DB JUMPI PUSH1 0x7F DUP3 AND SWAP2 POP JUMPDEST PUSH1 0x20 DUP3 LT DUP2 SUB PUSH2 0x16FB JUMPI PUSH4 0x4E487B71 PUSH1 0xE0 SHL PUSH1 0x0 MSTORE PUSH1 0x22 PUSH1 0x4 MSTORE PUSH1 0x24 PUSH1 0x0 REVERT JUMPDEST POP SWAP2 SWAP1 POP JUMP JUMPDEST PUSH1 0x0 DUP1 DUP4 SLOAD PUSH2 0x170F DUP2 PUSH2 0x16C7 JUMP JUMPDEST PUSH1 0x1 DUP3 DUP2 AND DUP1 ISZERO PUSH2 0x1727 JUMPI PUSH1 0x1 DUP2 EQ PUSH2 0x173C JUMPI PUSH2 0x176B JUMP JUMPDEST PUSH1 0xFF NOT DUP5 AND DUP8 MSTORE DUP3 ISZERO ISZERO DUP4 MUL DUP8 ADD SWAP5 POP PUSH2 0x176B JUMP JUMPDEST DUP8 PUSH1 0x0 MSTORE PUSH1 0x20 DUP1 PUSH1 0x0 KECCAK256 PUSH1 0x0 JUMPDEST DUP6 DUP2 LT ISZERO PUSH2 0x1762 JUMPI DUP2 SLOAD DUP11 DUP3 ADD MSTORE SWAP1 DUP5 ADD SWAP1 DUP3 ADD PUSH2 0x1749 JUMP JUMPDEST POP POP POP DUP3 DUP8 ADD SWAP5 POP JUMPDEST POP SWAP3 SWAP7 SWAP6 POP POP POP POP POP POP JUMP JUMPDEST PUSH1 0x1F DUP3 GT ISZERO PUSH2 0xECA JUMPI PUSH1 0x0 DUP2 DUP2 MSTORE PUSH1 0x20 DUP2 KECCAK256 PUSH1 0x1F DUP6 ADD PUSH1 0x5 SHR DUP2 ADD PUSH1 0x20 DUP7 LT ISZERO PUSH2 0x179E JUMPI POP DUP1 JUMPDEST PUSH1 0x1F DUP6 ADD PUSH1 0x5 SHR DUP3 ADD SWAP2 POP JUMPDEST DUP2 DUP2 LT ISZERO PUSH2 0x234 JUMPI DUP3 DUP2 SSTORE PUSH1 0x1 ADD PUSH2 0x17AA JUMP JUMPDEST DUP2 MLOAD PUSH8 0xFFFFFFFFFFFFFFFF DUP2 GT ISZERO PUSH2 0x17D7 JUMPI PUSH2 0x17D7 PUSH2 0x136A JUMP JUMPDEST PUSH2 0x17EB DUP2 PUSH2 0x17E5 DUP5 SLOAD PUSH2 0x16C7 JUMP JUMPDEST DUP5 PUSH2 0x1777 JUMP JUMPDEST PUSH1 0x20 DUP1 PUSH1 0x1F DUP4 GT PUSH1 0x1 DUP2 EQ PUSH2 0x1820 JUMPI PUSH1 0x0 DUP5 ISZERO PUSH2 0x1808 JUMPI POP DUP6 DUP4 ADD MLOAD JUMPDEST PUSH1 0x0 NOT PUSH1 0x3 DUP7 SWAP1 SHL SHR NOT AND PUSH1 0x1 DUP6 SWAP1 SHL OR DUP6 SSTORE PUSH2 0x234 JUMP JUMPDEST PUSH1 0x0 DUP6 DUP2 MSTORE PUSH1 0x20 DUP2 KECCAK256 PUSH1 0x1F NOT DUP7 AND SWAP2 JUMPDEST DUP3 DUP2 LT ISZERO PUSH2 0x184F JUMPI DUP9 DUP7 ADD MLOAD DUP3 SSTORE SWAP5 DUP5 ADD SWAP5 PUSH1 0x1 SWAP1 SWAP2 ADD SWAP1 DUP5 ADD PUSH2 0x1830 JUMP JUMPDEST POP DUP6 DUP3 LT ISZERO PUSH2 0x186D JUMPI DUP8 DUP6 ADD MLOAD PUSH1 0x0 NOT PUSH1 0x3 DUP9 SWAP1 SHL PUSH1 0xF8 AND SHR NOT AND DUP2 SSTORE JUMPDEST POP POP POP POP POP PUSH1 0x1 SWAP1 DUP2 SHL ADD SWAP1 SSTORE POP JUMP JUMPDEST PUSH4 0x4E487B71 PUSH1 0xE0 SHL PUSH1 0x0 MSTORE PUSH1 0x11 PUSH1 0x4 MSTORE PUSH1 0x24 PUSH1 0x0 REVERT JUMPDEST PUSH2 0xFFFF DUP2 DUP2 AND DUP4 DUP3 AND ADD SWAP1 DUP1 DUP3 GT ISZERO PUSH2 0x18AE JUMPI PUSH2 0x18AE PUSH2 0x187D JUMP JUMPDEST POP SWAP3 SWAP2 POP POP JUMP JUMPDEST PUSH1 0x0 PUSH1 0x1 DUP3 ADD PUSH2 0x18C7 JUMPI PUSH2 0x18C7 PUSH2 0x187D JUMP JUMPDEST POP PUSH1 0x1 ADD SWAP1 JUMP JUMPDEST PUSH4 0x4E487B71 PUSH1 0xE0 SHL PUSH1 0x0 MSTORE PUSH1 0x32 PUSH1 0x4 MSTORE PUSH1 0x24 PUSH1 0x0 REVERT INVALID LOG2 PUSH5 0x6970667358 0x22 SLT KECCAK256 0xAF CALLVALUE 0xC9 SIGNEXTEND STATICCALL 0xB5 0xA7 0xE 0x1E 0xED DUP11 DUP1 0xB1 DUP8 INVALID 0x2C STATICCALL SWAP10 PUSH28 0xBFB501210589B0B5F28DA2E48C64736F6C6343000811003300000000 "},"methodIdentifiers":{"changeRegisteredAdmin(bytes32,address)":"842f95f0","editExtraData(bytes32,bytes)":"9ecbb057","getMyRecords()":"e76637ce","getRecord(bytes32,address,uint16)":"ccd92b48","getSystemRecords()":"ff69bc33","owner()":"8da5cb5b","register(bytes32,address,address,uint16,bytes32,address)":"116cce86","renounceOwnership()":"715018a6","transferOwnership(address)":"f2fde38b","update(bytes32,address,address,address,uint16,bytes32,address)":"40a40e9d"}}}}}