{
  "_format": "hh-sol-artifact-1",
  "contractName": "ContractRegistry",
  "sourceName": "contracts/ContractRegistry.sol",
  "abi": [
    {
      "inputs": [
        {
          "internalType": "contract ICodeTrust",
          "name": "initCodeTrust",
          "type": "address"
        },
        {
          "internalType": "bytes32",
          "name": "name",
          "type": "bytes32"
        },
        {
          "internalType": "uint16",
          "name": "version",
          "type": "uint16"
        },
        {
          "internalType": "bytes32",
          "name": "logicCodeHash",
          "type": "bytes32"
        }
      ],
      "stateMutability": "nonpayable",
      "type": "constructor"
    },
    {
      "anonymous": false,
      "inputs": [
        {
          "indexed": false,
          "internalType": "bytes32",
          "name": "name",
          "type": "bytes32"
        },
        {
          "indexed": true,
          "internalType": "address",
          "name": "oldAdmin",
          "type": "address"
        },
        {
          "indexed": true,
          "internalType": "address",
          "name": "newAdmin",
          "type": "address"
        }
      ],
      "name": "AdminChanged",
      "type": "event"
    },
    {
      "anonymous": false,
      "inputs": [
        {
          "indexed": true,
          "internalType": "bytes32",
          "name": "name",
          "type": "bytes32"
        },
        {
          "indexed": true,
          "internalType": "address",
          "name": "proxy",
          "type": "address"
        },
        {
          "indexed": false,
          "internalType": "address",
          "name": "logic",
          "type": "address"
        },
        {
          "indexed": true,
          "internalType": "uint16",
          "name": "version",
          "type": "uint16"
        },
        {
          "indexed": false,
          "internalType": "bytes32",
          "name": "logicCodeHash",
          "type": "bytes32"
        }
      ],
      "name": "NewRecord",
      "type": "event"
    },
    {
      "anonymous": false,
      "inputs": [
        {
          "indexed": true,
          "internalType": "address",
          "name": "previousOwner",
          "type": "address"
        },
        {
          "indexed": true,
          "internalType": "address",
          "name": "newOwner",
          "type": "address"
        }
      ],
      "name": "OwnershipTransferred",
      "type": "event"
    },
    {
      "inputs": [
        {
          "internalType": "bytes32",
          "name": "name",
          "type": "bytes32"
        },
        {
          "internalType": "address",
          "name": "newAdmin",
          "type": "address"
        }
      ],
      "name": "changeRegisteredAdmin",
      "outputs": [],
      "stateMutability": "nonpayable",
      "type": "function"
    },
    {
      "inputs": [],
      "name": "getMyRecords",
      "outputs": [
        {
          "internalType": "bytes32[]",
          "name": "latestRecords",
          "type": "bytes32[]"
        }
      ],
      "stateMutability": "view",
      "type": "function"
    },
    {
      "inputs": [
        {
          "internalType": "bytes32",
          "name": "name",
          "type": "bytes32"
        },
        {
          "internalType": "address",
          "name": "admin",
          "type": "address"
        },
        {
          "internalType": "uint16",
          "name": "version",
          "type": "uint16"
        }
      ],
      "name": "getRecord",
      "outputs": [
        {
          "internalType": "bool",
          "name": "found",
          "type": "bool"
        },
        {
          "components": [
            {
              "internalType": "bytes32",
              "name": "name",
              "type": "bytes32"
            },
            {
              "internalType": "address",
              "name": "proxy",
              "type": "address"
            },
            {
              "internalType": "address",
              "name": "logic",
              "type": "address"
            },
            {
              "internalType": "address",
              "name": "admin",
              "type": "address"
            },
            {
              "internalType": "uint16",
              "name": "version",
              "type": "uint16"
            },
            {
              "internalType": "bytes32",
              "name": "logicCodeHash",
              "type": "bytes32"
            },
            {
              "internalType": "uint256",
              "name": "timestamp",
              "type": "uint256"
            }
          ],
          "internalType": "struct ContractRecord",
          "name": "record",
          "type": "tuple"
        }
      ],
      "stateMutability": "view",
      "type": "function"
    },
    {
      "inputs": [],
      "name": "getSystemRecords",
      "outputs": [
        {
          "internalType": "bytes32[]",
          "name": "latestRecords",
          "type": "bytes32[]"
        }
      ],
      "stateMutability": "view",
      "type": "function"
    },
    {
      "inputs": [],
      "name": "owner",
      "outputs": [
        {
          "internalType": "address",
          "name": "",
          "type": "address"
        }
      ],
      "stateMutability": "view",
      "type": "function"
    },
    {
      "inputs": [
        {
          "internalType": "bytes32",
          "name": "name",
          "type": "bytes32"
        },
        {
          "internalType": "address",
          "name": "proxy",
          "type": "address"
        },
        {
          "internalType": "address",
          "name": "logic",
          "type": "address"
        },
        {
          "internalType": "uint16",
          "name": "version",
          "type": "uint16"
        },
        {
          "internalType": "bytes32",
          "name": "logicCodeHash",
          "type": "bytes32"
        },
        {
          "internalType": "address",
          "name": "admin",
          "type": "address"
        }
      ],
      "name": "register",
      "outputs": [],
      "stateMutability": "nonpayable",
      "type": "function"
    },
    {
      "inputs": [],
      "name": "renounceOwnership",
      "outputs": [],
      "stateMutability": "nonpayable",
      "type": "function"
    },
    {
      "inputs": [
        {
          "internalType": "address",
          "name": "newOwner",
          "type": "address"
        }
      ],
      "name": "transferOwnership",
      "outputs": [],
      "stateMutability": "nonpayable",
      "type": "function"
    },
    {
      "inputs": [
        {
          "internalType": "bytes32",
          "name": "name",
          "type": "bytes32"
        },
        {
          "internalType": "address",
          "name": "proxy",
          "type": "address"
        },
        {
          "internalType": "address",
          "name": "logic",
          "type": "address"
        },
        {
          "internalType": "address",
          "name": "newAdmin",
          "type": "address"
        },
        {
          "internalType": "uint16",
          "name": "version",
          "type": "uint16"
        },
        {
          "internalType": "bytes32",
          "name": "logicCodeHash",
          "type": "bytes32"
        },
        {
          "internalType": "address",
          "name": "admin",
          "type": "address"
        }
      ],
      "name": "update",
      "outputs": [],
      "stateMutability": "nonpayable",
      "type": "function"
    }
  ],
  "bytecode": "0x60806040523480156200001157600080fd5b506040516200189938038062001899833981016040819052620000349162000460565b6200003f3362000091565b600180546001600160a01b0319166001600160a01b0386161790558262000077576f436f6e7472616374526567697374727960801b92505b62000087833080858533620000e1565b50505050620004bf565b600080546001600160a01b038381166001600160a01b0319831681178455604051919092169283917f8be0079c531659141344cd1fd0a4f28419497f9722a3daafe3b4186f6b6457e09190a35050565b6001600160a01b0384166200013d5760405162461bcd60e51b815260206004820152601760248201527f4c6f6769632061646472657373206973206e656464656400000000000000000060448201526064015b60405180910390fd5b6001600160a01b03851662000150578394505b61270f61ffff84161115620001a85760405162461bcd60e51b815260206004820152601f60248201527f56657273696f6e206d757374206265206c6f776572207468616e203939393900604482015260640162000134565b6001600160a01b0381166000908152600360209081526040808320600283528184208a855283528184208184528285205461ffff16855290925290912060058101541580156200020557506003810154600160a01b900461ffff16155b620002535760405162461bcd60e51b815260206004820152601e60248201527f416c726561647920726567697374657265642c20757365207570646174650000604482015260640162000134565b60026000846001600160a01b03166001600160a01b03168152602001908152602001600020600089815260200190815260200160002060008661ffff1661ffff1681526020019081526020016000209050878160000181905550868160010160006101000a8154816001600160a01b0302191690836001600160a01b03160217905550858160020160006101000a8154816001600160a01b0302191690836001600160a01b03160217905550828160030160006101000a8154816001600160a01b0302191690836001600160a01b03160217905550848160030160146101000a81548161ffff021916908361ffff16021790555083816004018190555042816005018190555081600201548260010160008a815260200190815260200160002081905550878260020181905550848260000160008a815260200190815260200160002060006101000a81548161ffff021916908361ffff1602179055508060030160149054906101000a900461ffff1661ffff168160010160009054906101000a90046001600160a01b03166001600160a01b031682600001547fb8064287be8e96c6334f8cff70015f26aa567834bc9455bdc54f6d163a1013768460020160009054906101000a90046001600160a01b031685600401546040516200044e9291906001600160a01b03929092168252602082015260400190565b60405180910390a45050505050505050565b600080600080608085870312156200047757600080fd5b84516001600160a01b03811681146200048f57600080fd5b60208601516040870151919550935061ffff81168114620004af57600080fd5b6060959095015193969295505050565b6113ca80620004cf6000396000f3fe608060405234801561001057600080fd5b50600436106100835760003560e01c8063116cce861461008857806340a40e9d1461009d578063715018a6146100b0578063842f95f0146100b85780638da5cb5b146100cb578063ccd92b48146100eb578063e76637ce1461016c578063f2fde38b14610181578063ff69bc3314610194575b600080fd5b61009b6100963660046110ea565b61019c565b005b61009b6100ab366004611150565b61026e565b61009b610339565b61009b6100c63660046111c8565b61034d565b6000546040516001600160a01b0390911681526020015b60405180910390f35b6100fe6100f93660046111f4565b610545565b60408051921515835281516020808501919091528201516001600160a01b03908116848301529082015181166060808501919091528201511660808084019190915281015161ffff1660a08084019190915281015160c080840191909152015160e0820152610100016100e2565b610174610567565b6040516100e29190611230565b61009b61018f366004611274565b61057c565b6101746105f5565b6001600160a01b0381166101ad5750335b6001600160a01b03811633148061023357506001546001600160a01b0316634f940270338360006040518463ffffffff1660e01b81526004016101f293929190611296565b602060405180830381865afa15801561020f573d6000803e3d6000fd5b505050506040513d601f19601f8201168201806040525081019061023391906112ba565b6102585760405162461bcd60e51b815260040161024f906112dc565b60405180910390fd5b61026686868686868661060c565b505050505050565b6001600160a01b03811661027f5750335b6001600160a01b03811633148061030557506001546001600160a01b0316634f940270338360006040518463ffffffff1660e01b81526004016102c493929190611296565b602060405180830381865afa1580156102e1573d6000803e3d6000fd5b505050506040513d601f19601f8201168201806040525081019061030591906112ba565b6103215760405162461bcd60e51b815260040161024f906112dc565b61033087878787878787610978565b50505050505050565b610341610cd9565b61034b6000610d33565b565b336001600160a01b038216158015906103785750806001600160a01b0316826001600160a01b031614155b6103b85760405162461bcd60e51b815260206004820152601160248201527024b73b30b634b2103732bb9030b236b4b760791b604482015260640161024f565b6001600160a01b03811660009081526003602090815260408083206002835281842087855283528184208184528285205461ffff1685529092528220600581015491929091900361044b5760405162461bcd60e51b815260206004820152601e60248201527f436f6e7472616374207265636f7264206e6f7420726567697374657265640000604482015260640161024f565b8054600182015460028301546003840154600485015461048694936001600160a01b03908116931691600160a01b900461ffff16908961060c565b6104908286610d83565b6001600160a01b0383811660008181526002602081815260408084208b855282528084208883528185205461ffff16855282528084208481556001810180546001600160a01b031990811690915593810180549094169093556003830180546001600160b01b03191690556004830184905560059092019290925551888152928716927f6467ef979e83be7da4c6bdb4513ae6309dbf5cd9ca8f5474d2f77ef171f5b903910160405180910390a35050505050565b600061054f611080565b61055a858585610e4f565b915091505b935093915050565b606061057733610f39565b610f39565b905090565b610584610cd9565b6001600160a01b0381166105e95760405162461bcd60e51b815260206004820152602660248201527f4f776e61626c653a206e6577206f776e657220697320746865207a65726f206160448201526564647265737360d01b606482015260840161024f565b6105f281610d33565b50565b60606105776105726000546001600160a01b031690565b6001600160a01b03841661065c5760405162461bcd60e51b8152602060048201526017602482015276131bd9da58c81859191c995cdcc81a5cc81b9959191959604a1b604482015260640161024f565b6001600160a01b03851661066e578394505b61270f61ffff841611156106c45760405162461bcd60e51b815260206004820152601f60248201527f56657273696f6e206d757374206265206c6f776572207468616e203939393900604482015260640161024f565b6001600160a01b0381166000908152600360209081526040808320600283528184208a855283528184208184528285205461ffff168552909252909120600581015415801561072057506003810154600160a01b900461ffff16155b61076c5760405162461bcd60e51b815260206004820152601e60248201527f416c726561647920726567697374657265642c20757365207570646174650000604482015260640161024f565b60026000846001600160a01b03166001600160a01b03168152602001908152602001600020600089815260200190815260200160002060008661ffff1661ffff1681526020019081526020016000209050878160000181905550868160010160006101000a8154816001600160a01b0302191690836001600160a01b03160217905550858160020160006101000a8154816001600160a01b0302191690836001600160a01b03160217905550828160030160006101000a8154816001600160a01b0302191690836001600160a01b03160217905550848160030160146101000a81548161ffff021916908361ffff16021790555083816004018190555042816005018190555081600201548260010160008a815260200190815260200160002081905550878260020181905550848260000160008a815260200190815260200160002060006101000a81548161ffff021916908361ffff1602179055508060030160149054906101000a900461ffff1661ffff168160010160009054906101000a90046001600160a01b03166001600160a01b031682600001547fb8064287be8e96c6334f8cff70015f26aa567834bc9455bdc54f6d163a1013768460020160009054906101000a90046001600160a01b031685600401546040516109669291906001600160a01b03929092168252602082015260400190565b60405180910390a45050505050505050565b866109ba5760405162461bcd60e51b8152602060048201526012602482015271149958dbdc99081b985b59481b995959195960721b604482015260640161024f565b6001600160a01b0381166000908152600360209081526040808320600283528184208b855283528184208184528285205461ffff16855290925282206005810154919290919003610a4d5760405162461bcd60e51b815260206004820152601c60248201527f4e6f7420726567697374657265642c2075736520726567697374657200000000604482015260640161024f565b8461ffff16600003610a77576003810154610a7490600160a01b900461ffff166001611329565b94505b600381015461ffff808716600160a01b9092041610610ace5760405162461bcd60e51b815260206004820152601360248201527224b73b30b634b2103732bb903b32b939b4b7b760691b604482015260640161024f565b6001600160a01b0380841660009081526002602090815260408083208d8452825280832061ffff8a168452909152902090891615610b28576001810180546001600160a01b0319166001600160a01b038b16179055610b4f565b60018083015490820180546001600160a01b0319166001600160a01b039092169190911790555b6001600160a01b03881615610b80576002810180546001600160a01b0319166001600160a01b038a16179055610ba7565b60028083015490820180546001600160a01b0319166001600160a01b039092169190911790555b6001600160a01b03871615610bd8576003810180546001600160a01b0319166001600160a01b038916179055610bff565b60038083015490820180546001600160a01b0319166001600160a01b039092169190911790555b8415610c115760048101859055610c1c565b600480830154908201555b8154815560038101805461ffff60a01b1916600160a01b61ffff89811682029290921780845542600586015560008e81526020888152604091829020805493859004861661ffff19909416939093179092559354600186015486546002880154600489015488516001600160a01b0392831681529586015294909204909416949290931692917fb8064287be8e96c6334f8cff70015f26aa567834bc9455bdc54f6d163a101376910160405180910390a450505050505050505050565b6000546001600160a01b0316331461034b5760405162461bcd60e51b815260206004820181905260248201527f4f776e61626c653a2063616c6c6572206973206e6f7420746865206f776e6572604482015260640161024f565b600080546001600160a01b038381166001600160a01b0319831681178455604051919092169283917f8be0079c531659141344cd1fd0a4f28419497f9722a3daafe3b4186f6b6457e09190a35050565b60028201546000818152600184016020526040902054610db9575060009081526001820160205260408120819055600290910155565b60008181526001840160205260409020548214610e335780610e1d5760405162461bcd60e51b815260206004820152601f60248201527f5265636f72644e616d65206e6f7420666f756e6420666f722073656e64657200604482015260640161024f565b6000908152600183016020526040902054610db9565b6000918252600192909201602052604080822054928252902055565b6000610e59611080565b61270f61ffff84161115610e92576001600160a01b038416600090815260036020908152604080832088845290915290205461ffff1692505b506001600160a01b038084166000908152600260208181526040808420898552825280842061ffff8089168652908352818520825160e0810184528154815260018201548816948101949094529384015486169183019190915260038301549485166060830152600160a01b9094049093166080840152600481015460a08401526005015460c083018190529003610f2d576000915061055f565b60019150935093915050565b6001600160a01b0381166000908152600360205260408120600201546060915b8115801590610f69575061271081105b15610fac5780610f788161134f565b6001600160a01b0386166000908152600360209081526040808320968352600190960190529390932054929150610f599050565b6001600160a01b03841660009081526003602052604081206002015492508167ffffffffffffffff811115610fe357610fe3611368565b60405190808252806020026020018201604052801561100c578160200160208202803683370190505b50905060005b82811015611077578382828151811061102d5761102d61137e565b6020908102919091018101919091526001600160a01b038716600090815260038252604080822096825260019096019091529390932054928061106f8161134f565b915050611012565b50949350505050565b6040805160e081018252600080825260208201819052918101829052606081018290526080810182905260a0810182905260c081019190915290565b80356001600160a01b03811681146110d357600080fd5b919050565b803561ffff811681146110d357600080fd5b60008060008060008060c0878903121561110357600080fd5b86359550611113602088016110bc565b9450611121604088016110bc565b935061112f606088016110d8565b92506080870135915061114460a088016110bc565b90509295509295509295565b600080600080600080600060e0888a03121561116b57600080fd5b8735965061117b602089016110bc565b9550611189604089016110bc565b9450611197606089016110bc565b93506111a5608089016110d8565b925060a088013591506111ba60c089016110bc565b905092959891949750929550565b600080604083850312156111db57600080fd5b823591506111eb602084016110bc565b90509250929050565b60008060006060848603121561120957600080fd5b83359250611219602085016110bc565b9150611227604085016110d8565b90509250925092565b6020808252825182820181905260009190848201906040850190845b818110156112685783518352928401929184019160010161124c565b50909695505050505050565b60006020828403121561128657600080fd5b61128f826110bc565b9392505050565b6001600160a01b039384168152919092166020820152604081019190915260600190565b6000602082840312156112cc57600080fd5b8151801515811461128f57600080fd5b6020808252601b908201527f43616c6c2066726f6d20756e7472757374656420616464726573730000000000604082015260600190565b634e487b7160e01b600052601160045260246000fd5b600061ffff80831681851680830382111561134657611346611313565b01949350505050565b60006001820161136157611361611313565b5060010190565b634e487b7160e01b600052604160045260246000fd5b634e487b7160e01b600052603260045260246000fdfea2646970667358221220ac6b6a7c0761b68029d167b4ef2c584c91113483e3559ba89955e1c27d9fb10a64736f6c634300080d0033",
  "linkReferences": {},
  "deployedLinkReferences": {}
}